{
  "_format": "hh-sol-artifact-1",
  "contractName": "FuzzNFT",
  "sourceName": "contracts/FuzzNFT.sol",
  "abi": [
    {
      "inputs": [],
      "stateMutability": "nonpayable",
      "type": "constructor"
    },
    {
      "anonymous": false,
      "inputs": [
        {
          "indexed": true,
          "internalType": "address",
          "name": "owner",
          "type": "address"
        },
        {
          "indexed": true,
          "internalType": "address",
          "name": "approved",
          "type": "address"
        },
        {
          "indexed": true,
          "internalType": "uint256",
          "name": "tokenId",
          "type": "uint256"
        }
      ],
      "name": "Approval",
      "type": "event"
    },
    {
      "anonymous": false,
      "inputs": [
        {
          "indexed": true,
          "internalType": "address",
          "name": "owner",
          "type": "address"
        },
        {
          "indexed": true,
          "internalType": "address",
          "name": "operator",
          "type": "address"
        },
        {
          "indexed": false,
          "internalType": "bool",
          "name": "approved",
          "type": "bool"
        }
      ],
      "name": "ApprovalForAll",
      "type": "event"
    },
    {
      "anonymous": false,
      "inputs": [
        {
          "indexed": true,
          "internalType": "address",
          "name": "previousOwner",
          "type": "address"
        },
        {
          "indexed": true,
          "internalType": "address",
          "name": "newOwner",
          "type": "address"
        }
      ],
      "name": "OwnershipTransferred",
      "type": "event"
    },
    {
      "anonymous": false,
      "inputs": [
        {
          "indexed": true,
          "internalType": "address",
          "name": "from",
          "type": "address"
        },
        {
          "indexed": true,
          "internalType": "address",
          "name": "to",
          "type": "address"
        },
        {
          "indexed": true,
          "internalType": "uint256",
          "name": "tokenId",
          "type": "uint256"
        }
      ],
      "name": "Transfer",
      "type": "event"
    },
    {
      "inputs": [],
      "name": "CREATOR_PRICE",
      "outputs": [
        {
          "internalType": "uint256",
          "name": "",
          "type": "uint256"
        }
      ],
      "stateMutability": "view",
      "type": "function"
    },
    {
      "inputs": [],
      "name": "MAX_QTY_PER_MINTER",
      "outputs": [
        {
          "internalType": "uint256",
          "name": "",
          "type": "uint256"
        }
      ],
      "stateMutability": "view",
      "type": "function"
    },
    {
      "inputs": [],
      "name": "PRE_SALES_PRICE",
      "outputs": [
        {
          "internalType": "uint256",
          "name": "",
          "type": "uint256"
        }
      ],
      "stateMutability": "view",
      "type": "function"
    },
    {
      "inputs": [],
      "name": "PUBLIC_SALES_PRICE",
      "outputs": [
        {
          "internalType": "uint256",
          "name": "",
          "type": "uint256"
        }
      ],
      "stateMutability": "view",
      "type": "function"
    },
    {
      "inputs": [
        {
          "internalType": "address",
          "name": "to",
          "type": "address"
        },
        {
          "internalType": "uint256",
          "name": "tokenId",
          "type": "uint256"
        }
      ],
      "name": "approve",
      "outputs": [],
      "stateMutability": "nonpayable",
      "type": "function"
    },
    {
      "inputs": [
        {
          "internalType": "address",
          "name": "owner",
          "type": "address"
        }
      ],
      "name": "balanceOf",
      "outputs": [
        {
          "internalType": "uint256",
          "name": "",
          "type": "uint256"
        }
      ],
      "stateMutability": "view",
      "type": "function"
    },
    {
      "inputs": [],
      "name": "creatorMint",
      "outputs": [],
      "stateMutability": "payable",
      "type": "function"
    },
    {
      "inputs": [
        {
          "internalType": "uint256",
          "name": "tokenId",
          "type": "uint256"
        }
      ],
      "name": "getApproved",
      "outputs": [
        {
          "internalType": "address",
          "name": "",
          "type": "address"
        }
      ],
      "stateMutability": "view",
      "type": "function"
    },
    {
      "inputs": [],
      "name": "getPrice",
      "outputs": [
        {
          "internalType": "uint256",
          "name": "",
          "type": "uint256"
        }
      ],
      "stateMutability": "view",
      "type": "function"
    },
    {
      "inputs": [
        {
          "internalType": "address",
          "name": "owner",
          "type": "address"
        },
        {
          "internalType": "address",
          "name": "operator",
          "type": "address"
        }
      ],
      "name": "isApprovedForAll",
      "outputs": [
        {
          "internalType": "bool",
          "name": "",
          "type": "bool"
        }
      ],
      "stateMutability": "view",
      "type": "function"
    },
    {
      "inputs": [],
      "name": "name",
      "outputs": [
        {
          "internalType": "string",
          "name": "",
          "type": "string"
        }
      ],
      "stateMutability": "view",
      "type": "function"
    },
    {
      "inputs": [],
      "name": "owner",
      "outputs": [
        {
          "internalType": "address",
          "name": "",
          "type": "address"
        }
      ],
      "stateMutability": "view",
      "type": "function"
    },
    {
      "inputs": [
        {
          "internalType": "uint256",
          "name": "tokenId",
          "type": "uint256"
        }
      ],
      "name": "ownerOf",
      "outputs": [
        {
          "internalType": "address",
          "name": "",
          "type": "address"
        }
      ],
      "stateMutability": "view",
      "type": "function"
    },
    {
      "inputs": [
        {
          "internalType": "bytes32[]",
          "name": "proof",
          "type": "bytes32[]"
        },
        {
          "internalType": "uint256",
          "name": "qty",
          "type": "uint256"
        },
        {
          "internalType": "uint256",
          "name": "allowance",
          "type": "uint256"
        }
      ],
      "name": "presaleMint",
      "outputs": [],
      "stateMutability": "payable",
      "type": "function"
    },
    {
      "inputs": [
        {
          "internalType": "uint256",
          "name": "qty",
          "type": "uint256"
        }
      ],
      "name": "publicMint",
      "outputs": [],
      "stateMutability": "payable",
      "type": "function"
    },
    {
      "inputs": [
        {
          "internalType": "address",
          "name": "",
          "type": "address"
        }
      ],
      "name": "publicMintedAmount",
      "outputs": [
        {
          "internalType": "uint256",
          "name": "",
          "type": "uint256"
        }
      ],
      "stateMutability": "view",
      "type": "function"
    },
    {
      "inputs": [],
      "name": "renounceOwnership",
      "outputs": [],
      "stateMutability": "nonpayable",
      "type": "function"
    },
    {
      "inputs": [
        {
          "internalType": "address",
          "name": "",
          "type": "address"
        }
      ],
      "name": "reservedClaimed",
      "outputs": [
        {
          "internalType": "bool",
          "name": "",
          "type": "bool"
        }
      ],
      "stateMutability": "view",
      "type": "function"
    },
    {
      "inputs": [
        {
          "internalType": "bytes32[]",
          "name": "proof",
          "type": "bytes32[]"
        }
      ],
      "name": "reservedMint",
      "outputs": [],
      "stateMutability": "payable",
      "type": "function"
    },
    {
      "inputs": [
        {
          "internalType": "address",
          "name": "from",
          "type": "address"
        },
        {
          "internalType": "address",
          "name": "to",
          "type": "address"
        },
        {
          "internalType": "uint256",
          "name": "tokenId",
          "type": "uint256"
        }
      ],
      "name": "safeTransferFrom",
      "outputs": [],
      "stateMutability": "nonpayable",
      "type": "function"
    },
    {
      "inputs": [
        {
          "internalType": "address",
          "name": "from",
          "type": "address"
        },
        {
          "internalType": "address",
          "name": "to",
          "type": "address"
        },
        {
          "internalType": "uint256",
          "name": "tokenId",
          "type": "uint256"
        },
        {
          "internalType": "bytes",
          "name": "data",
          "type": "bytes"
        }
      ],
      "name": "safeTransferFrom",
      "outputs": [],
      "stateMutability": "nonpayable",
      "type": "function"
    },
    {
      "inputs": [
        {
          "internalType": "address",
          "name": "operator",
          "type": "address"
        },
        {
          "internalType": "bool",
          "name": "approved",
          "type": "bool"
        }
      ],
      "name": "setApprovalForAll",
      "outputs": [],
      "stateMutability": "nonpayable",
      "type": "function"
    },
    {
      "inputs": [
        {
          "internalType": "uint256",
          "name": "_price",
          "type": "uint256"
        }
      ],
      "name": "setCreatorPrice",
      "outputs": [],
      "stateMutability": "nonpayable",
      "type": "function"
    },
    {
      "inputs": [
        {
          "internalType": "uint256",
          "name": "_price",
          "type": "uint256"
        }
      ],
      "name": "setPreSalePrice",
      "outputs": [],
      "stateMutability": "nonpayable",
      "type": "function"
    },
    {
      "inputs": [
        {
          "internalType": "uint256",
          "name": "_price",
          "type": "uint256"
        }
      ],
      "name": "setPublicSalePrice",
      "outputs": [],
      "stateMutability": "nonpayable",
      "type": "function"
    },
    {
      "inputs": [
        {
          "internalType": "bytes32",
          "name": "_reservedMerkleRoot",
          "type": "bytes32"
        }
      ],
      "name": "setReservedMerkleroot",
      "outputs": [],
      "stateMutability": "nonpayable",
      "type": "function"
    },
    {
      "inputs": [
        {
          "internalType": "string",
          "name": "_status",
          "type": "string"
        }
      ],
      "name": "setStatus",
      "outputs": [],
      "stateMutability": "nonpayable",
      "type": "function"
    },
    {
      "inputs": [
        {
          "internalType": "bytes32",
          "name": "_whitelistMerkleRoot",
          "type": "bytes32"
        }
      ],
      "name": "setWhitelistMerkleRoot",
      "outputs": [],
      "stateMutability": "nonpayable",
      "type": "function"
    },
    {
      "inputs": [],
      "name": "status",
      "outputs": [
        {
          "internalType": "string",
          "name": "",
          "type": "string"
        }
      ],
      "stateMutability": "view",
      "type": "function"
    },
    {
      "inputs": [
        {
          "internalType": "bytes4",
          "name": "interfaceId",
          "type": "bytes4"
        }
      ],
      "name": "supportsInterface",
      "outputs": [
        {
          "internalType": "bool",
          "name": "",
          "type": "bool"
        }
      ],
      "stateMutability": "view",
      "type": "function"
    },
    {
      "inputs": [],
      "name": "symbol",
      "outputs": [
        {
          "internalType": "string",
          "name": "",
          "type": "string"
        }
      ],
      "stateMutability": "view",
      "type": "function"
    },
    {
      "inputs": [
        {
          "internalType": "uint256",
          "name": "tokenId",
          "type": "uint256"
        }
      ],
      "name": "tokenURI",
      "outputs": [
        {
          "internalType": "string",
          "name": "",
          "type": "string"
        }
      ],
      "stateMutability": "view",
      "type": "function"
    },
    {
      "inputs": [
        {
          "internalType": "address",
          "name": "from",
          "type": "address"
        },
        {
          "internalType": "address",
          "name": "to",
          "type": "address"
        },
        {
          "internalType": "uint256",
          "name": "tokenId",
          "type": "uint256"
        }
      ],
      "name": "transferFrom",
      "outputs": [],
      "stateMutability": "nonpayable",
      "type": "function"
    },
    {
      "inputs": [
        {
          "internalType": "address",
          "name": "newOwner",
          "type": "address"
        }
      ],
      "name": "transferOwnership",
      "outputs": [],
      "stateMutability": "nonpayable",
      "type": "function"
    },
    {
      "inputs": [
        {
          "internalType": "address",
          "name": "",
          "type": "address"
        }
      ],
      "name": "whitelistMintedAmount",
      "outputs": [
        {
          "internalType": "uint256",
          "name": "",
          "type": "uint256"
        }
      ],
      "stateMutability": "view",
      "type": "function"
    },
    {
      "inputs": [],
      "name": "withdraw",
      "outputs": [],
      "stateMutability": "nonpayable",
      "type": "function"
    }
  ],
  "bytecode": "0x6080604052606460085560006011553480156200001b57600080fd5b506040518060400160405280600a81526020017f46757a7a20546f6b656e000000000000000000000000000000000000000000008152506040518060400160405280600481526020017f46757a7a000000000000000000000000000000000000000000000000000000008152508160009080519060200190620000a0929190620001b8565b508060019080519060200190620000b9929190620001b8565b505050620000dc620000d0620000ea60201b60201c565b620000f260201b60201c565b6001600781905550620002cd565b600033905090565b6000600660009054906101000a900473ffffffffffffffffffffffffffffffffffffffff16905081600660006101000a81548173ffffffffffffffffffffffffffffffffffffffff021916908373ffffffffffffffffffffffffffffffffffffffff1602179055508173ffffffffffffffffffffffffffffffffffffffff168173ffffffffffffffffffffffffffffffffffffffff167f8be0079c531659141344cd1fd0a4f28419497f9722a3daafe3b4186f6b6457e060405160405180910390a35050565b828054620001c69062000268565b90600052602060002090601f016020900481019282620001ea576000855562000236565b82601f106200020557805160ff191683800117855562000236565b8280016001018555821562000236579182015b828111156200023557825182559160200191906001019062000218565b5b50905062000245919062000249565b5090565b5b80821115620002645760008160009055506001016200024a565b5090565b600060028204905060018216806200028157607f821691505b602082108114156200029857620002976200029e565b5b50919050565b7f4e487b7100000000000000000000000000000000000000000000000000000000600052602260045260246000fd5b614b3480620002dd6000396000f3fe60806040526004361061020f5760003560e01c8063791a251911610118578063aaab1ba5116100a0578063c87b56dd1161006f578063c87b56dd14610729578063d6eec46a14610766578063e985e9c514610791578063ead29d4e146107ce578063f2fde38b1461080b5761020f565b8063aaab1ba514610690578063ac501c41146106ac578063b88d4fde146106d7578063bd32fb66146107005761020f565b8063886e0c10116100e7578063886e0c10146105bd5780638da5cb5b146105e657806395d89b411461061157806398d5fdca1461063c578063a22cb465146106675761020f565b8063791a2519146105175780637d2211d6146105405780637d7eee421461056957806382afe550146105925761020f565b80633ccfd60b1161019b5780634b8454991161016a5780634b8454991461045157806354a953511461045b5780636352211e1461048657806370a08231146104c3578063715018a6146105005761020f565b80633ccfd60b146103ab5780633e9c9ec2146103c257806340702c90146103ff57806342842e0e146104285761020f565b80631fac2a35116101e25780631fac2a35146102e2578063200d2ed21461031f57806323b872dd1461034a5780632db11544146103735780633c18c3da1461038f5761020f565b806301ffc9a71461021457806306fdde0314610251578063081812fc1461027c578063095ea7b3146102b9575b600080fd5b34801561022057600080fd5b5061023b60048036038101906102369190613426565b610834565b6040516102489190613b3f565b60405180910390f35b34801561025d57600080fd5b50610266610916565b6040516102739190613b5a565b60405180910390f35b34801561028857600080fd5b506102a3600480360381019061029e91906134b9565b6109a8565b6040516102b09190613ad8565b60405180910390f35b3480156102c557600080fd5b506102e060048036038101906102db9190613319565b6109ee565b005b3480156102ee57600080fd5b50610309600480360381019061030491906131ae565b610b06565b6040516103169190613f1c565b60405180910390f35b34801561032b57600080fd5b50610334610b1e565b6040516103419190613b5a565b60405180910390f35b34801561035657600080fd5b50610371600480360381019061036c9190613213565b610bac565b005b61038d600480360381019061038891906134b9565b610c0c565b005b6103a960048036038101906103a49190613396565b610ed0565b005b3480156103b757600080fd5b506103c06111c0565b005b3480156103ce57600080fd5b506103e960048036038101906103e491906131ae565b61126b565b6040516103f69190613b3f565b60405180910390f35b34801561040b57600080fd5b50610426600480360381019061042191906134b9565b61128b565b005b34801561043457600080fd5b5061044f600480360381019061044a9190613213565b61129d565b005b6104596112bd565b005b34801561046757600080fd5b5061047061145e565b60405161047d9190613f1c565b60405180910390f35b34801561049257600080fd5b506104ad60048036038101906104a891906134b9565b611464565b6040516104ba9190613ad8565b60405180910390f35b3480156104cf57600080fd5b506104ea60048036038101906104e591906131ae565b6114eb565b6040516104f79190613f1c565b60405180910390f35b34801561050c57600080fd5b506105156115a3565b005b34801561052357600080fd5b5061053e600480360381019061053991906134b9565b6115b7565b005b34801561054c57600080fd5b5061056760048036038101906105629190613478565b6115c9565b005b34801561057557600080fd5b50610590600480360381019061058b91906134b9565b6115eb565b005b34801561059e57600080fd5b506105a76115fd565b6040516105b49190613f1c565b60405180910390f35b3480156105c957600080fd5b506105e460048036038101906105df91906133fd565b611603565b005b3480156105f257600080fd5b506105fb611615565b6040516106089190613ad8565b60405180910390f35b34801561061d57600080fd5b5061062661163f565b6040516106339190613b5a565b60405180910390f35b34801561064857600080fd5b506106516116d1565b60405161065e9190613f1c565b60405180910390f35b34801561067357600080fd5b5061068e600480360381019061068991906132dd565b6117a3565b005b6106aa60048036038101906106a59190613355565b6117b9565b005b3480156106b857600080fd5b506106c1611a35565b6040516106ce9190613f1c565b60405180910390f35b3480156106e357600080fd5b506106fe60048036038101906106f99190613262565b611a3a565b005b34801561070c57600080fd5b50610727600480360381019061072291906133fd565b611a9c565b005b34801561073557600080fd5b50610750600480360381019061074b91906134b9565b611aae565b60405161075d9190613b5a565b60405180910390f35b34801561077257600080fd5b5061077b611b16565b6040516107889190613f1c565b60405180910390f35b34801561079d57600080fd5b506107b860048036038101906107b391906131d7565b611b1c565b6040516107c59190613b3f565b60405180910390f35b3480156107da57600080fd5b506107f560048036038101906107f091906131ae565b611bb0565b6040516108029190613f1c565b60405180910390f35b34801561081757600080fd5b50610832600480360381019061082d91906131ae565b611bc8565b005b60007f80ac58cd000000000000000000000000000000000000000000000000000000007bffffffffffffffffffffffffffffffffffffffffffffffffffffffff1916827bffffffffffffffffffffffffffffffffffffffffffffffffffffffff191614806108ff57507f5b5e139f000000000000000000000000000000000000000000000000000000007bffffffffffffffffffffffffffffffffffffffffffffffffffffffff1916827bffffffffffffffffffffffffffffffffffffffffffffffffffffffff1916145b8061090f575061090e82611c4c565b5b9050919050565b606060008054610925906141f1565b80601f0160208091040260200160405190810160405280929190818152602001828054610951906141f1565b801561099e5780601f106109735761010080835404028352916020019161099e565b820191906000526020600020905b81548152906001019060200180831161098157829003601f168201915b5050505050905090565b60006109b382611cb6565b6004600083815260200190815260200160002060009054906101000a900473ffffffffffffffffffffffffffffffffffffffff169050919050565b60006109f982611464565b90508073ffffffffffffffffffffffffffffffffffffffff168373ffffffffffffffffffffffffffffffffffffffff161415610a6a576040517f08c379a0000000000000000000000000000000000000000000000000000000008152600401610a6190613e9c565b60405180910390fd5b8073ffffffffffffffffffffffffffffffffffffffff16610a89611d01565b73ffffffffffffffffffffffffffffffffffffffff161480610ab85750610ab781610ab2611d01565b611b1c565b5b610af7576040517f08c379a0000000000000000000000000000000000000000000000000000000008152600401610aee90613ebc565b60405180910390fd5b610b018383611d09565b505050565b600d6020528060005260406000206000915090505481565b60128054610b2b906141f1565b80601f0160208091040260200160405190810160405280929190818152602001828054610b57906141f1565b8015610ba45780601f10610b7957610100808354040283529160200191610ba4565b820191906000526020600020905b815481529060010190602001808311610b8757829003601f168201915b505050505081565b610bbd610bb7611d01565b82611dc2565b610bfc576040517f08c379a0000000000000000000000000000000000000000000000000000000008152600401610bf390613b9c565b60405180910390fd5b610c07838383611e57565b505050565b6040518060400160405280600a81526020017f5075626c696353616c6500000000000000000000000000000000000000000000815250805190602001206012604051610c589190613a9d565b604051809103902014610ca0576040517f08c379a0000000000000000000000000000000000000000000000000000000008152600401610c9790613d7c565b60405180910390fd5b6000610caa6116d1565b11610cea576040517f08c379a0000000000000000000000000000000000000000000000000000000008152600401610ce190613d1c565b60405180910390fd5b600281600c60003373ffffffffffffffffffffffffffffffffffffffff1673ffffffffffffffffffffffffffffffffffffffff16815260200190815260200160002054610d37919061404d565b1115610d78576040517f08c379a0000000000000000000000000000000000000000000000000000000008152600401610d6f90613d5c565b60405180910390fd5b60085481601154610d89919061404d565b10610dc9576040517f08c379a0000000000000000000000000000000000000000000000000000000008152600401610dc090613b7c565b60405180910390fd5b80610dd26116d1565b610ddc91906140a3565b3414610e1d576040517f08c379a0000000000000000000000000000000000000000000000000000000008152600401610e1490613e1c565b60405180910390fd5b60005b81811015610e7657610e326013612151565b6000610e3e6013612167565b9050610e4a3382612175565b60116000815480929190610e5d90614254565b9190505550508080610e6e90614254565b915050610e20565b5080600c60003373ffffffffffffffffffffffffffffffffffffffff1673ffffffffffffffffffffffffffffffffffffffff1681526020019081526020016000206000828254610ec6919061404d565b9250508190555050565b6040518060400160405280600781526020017f50726553616c6500000000000000000000000000000000000000000000000000815250805190602001206012604051610f1c9190613a9d565b604051809103902014610f64576040517f08c379a0000000000000000000000000000000000000000000000000000000008152600401610f5b90613c5c565b60405180910390fd5b610f9983600f543384604051602001610f7e929190613a71565b60405160208183030381529060405280519060200120612193565b610fd8576040517f08c379a0000000000000000000000000000000000000000000000000000000008152600401610fcf90613bdc565b60405180910390fd5b60085482601154610fe9919061404d565b111561102a576040517f08c379a000000000000000000000000000000000000000000000000000000000815260040161102190613dfc565b60405180910390fd5b8082600d60003373ffffffffffffffffffffffffffffffffffffffff1673ffffffffffffffffffffffffffffffffffffffff16815260200190815260200160002054611076919061404d565b11156110b7576040517f08c379a00000000000000000000000000000000000000000000000000000000081526004016110ae90613efc565b60405180910390fd5b34826110c16116d1565b6110cb91906140a3565b1461110b576040517f08c379a000000000000000000000000000000000000000000000000000000000815260040161110290613e1c565b60405180910390fd5b60005b82811015611164576111206013612151565b600061112c6013612167565b90506111383382612175565b6011600081548092919061114b90614254565b919050555050808061115c90614254565b91505061110e565b5081600d60003373ffffffffffffffffffffffffffffffffffffffff1673ffffffffffffffffffffffffffffffffffffffff16815260200190815260200160002060008282546111b4919061404d565b92505081905550505050565b6111c86121aa565b6111d0612228565b60004711611213576040517f08c379a000000000000000000000000000000000000000000000000000000000815260040161120a90613e7c565b60405180910390fd5b61121b611615565b73ffffffffffffffffffffffffffffffffffffffff166108fc479081150290604051600060405180830381858888f19350505050158015611260573d6000803e3d6000fd5b50611269612278565b565b600e6020528060005260406000206000915054906101000a900460ff1681565b6112936121aa565b80600b8190555050565b6112b883838360405180602001604052806000815250611a3a565b505050565b6112c56121aa565b60006011546008546112d791906140fd565b90506040518060400160405280600a81526020017f5075626c696353616c65000000000000000000000000000000000000000000008152508051906020012060126040516113259190613a9d565b60405180910390201461136d576040517f08c379a000000000000000000000000000000000000000000000000000000000815260040161136490613bbc565b60405180910390fd5b6000600b54116113b2576040517f08c379a00000000000000000000000000000000000000000000000000000000081526004016113a990613cbc565b60405180910390fd5b80600b546113c091906140a3565b3414611401576040517f08c379a00000000000000000000000000000000000000000000000000000000081526004016113f890613e1c565b60405180910390fd5b60005b8181101561145a576114166013612151565b60006114226013612167565b905061142e3382612175565b6011600081548092919061144190614254565b919050555050808061145290614254565b915050611404565b5050565b600b5481565b60008061147083612282565b9050600073ffffffffffffffffffffffffffffffffffffffff168173ffffffffffffffffffffffffffffffffffffffff1614156114e2576040517f08c379a00000000000000000000000000000000000000000000000000000000081526004016114d990613e5c565b60405180910390fd5b80915050919050565b60008073ffffffffffffffffffffffffffffffffffffffff168273ffffffffffffffffffffffffffffffffffffffff16141561155c576040517f08c379a000000000000000000000000000000000000000000000000000000000815260040161155390613d9c565b60405180910390fd5b600360008373ffffffffffffffffffffffffffffffffffffffff1673ffffffffffffffffffffffffffffffffffffffff168152602001908152602001600020549050919050565b6115ab6121aa565b6115b560006122bf565b565b6115bf6121aa565b80600a8190555050565b6115d16121aa565b80601290805190602001906115e7929190612f27565b5050565b6115f36121aa565b8060098190555050565b60095481565b61160b6121aa565b8060108190555050565b6000600660009054906101000a900473ffffffffffffffffffffffffffffffffffffffff16905090565b60606001805461164e906141f1565b80601f016020809104026020016040519081016040528092919081815260200182805461167a906141f1565b80156116c75780601f1061169c576101008083540402835291602001916116c7565b820191906000526020600020905b8154815290600101906020018083116116aa57829003601f168201915b5050505050905090565b60006040518060400160405280600781526020017f50726553616c650000000000000000000000000000000000000000000000000081525080519060200120601260405161171f9190613a9d565b604051809103902014156117375760095490506117a0565b6040518060400160405280600a81526020017f5075626c696353616c65000000000000000000000000000000000000000000008152508051906020012060126040516117839190613a9d565b6040518091039020141561179b57600a5490506117a0565b600090505b90565b6117b56117ae611d01565b8383612385565b5050565b6040518060400160405280600c81526020017f526573657276656453616c6500000000000000000000000000000000000000008152508051906020012060126040516118059190613a9d565b60405180910390201461184d576040517f08c379a000000000000000000000000000000000000000000000000000000000815260040161184490613e3c565b60405180910390fd5b61188081601054336040516020016118659190613a56565b60405160208183030381529060405280519060200120612193565b6118bf576040517f08c379a00000000000000000000000000000000000000000000000000000000081526004016118b690613bfc565b60405180910390fd5b60085460016011546118d1919061404d565b1115611912576040517f08c379a000000000000000000000000000000000000000000000000000000000815260040161190990613b7c565b60405180910390fd5b600e60003373ffffffffffffffffffffffffffffffffffffffff1673ffffffffffffffffffffffffffffffffffffffff16815260200190815260200160002060009054906101000a900460ff161561199f576040517f08c379a000000000000000000000000000000000000000000000000000000000815260040161199690613d3c565b60405180910390fd5b6001600e60003373ffffffffffffffffffffffffffffffffffffffff1673ffffffffffffffffffffffffffffffffffffffff16815260200190815260200160002060006101000a81548160ff021916908315150217905550611a016013612151565b6000611a0d6013612167565b9050611a193382612175565b60116000815480929190611a2c90614254565b91905055505050565b600281565b611a4b611a45611d01565b83611dc2565b611a8a576040517f08c379a0000000000000000000000000000000000000000000000000000000008152600401611a8190613b9c565b60405180910390fd5b611a96848484846124f2565b50505050565b611aa46121aa565b80600f8190555050565b6060611ab982611cb6565b6000611ac361254e565b90506000815111611ae35760405180602001604052806000815250611b0e565b80611aed8461256e565b604051602001611afe929190613ab4565b6040516020818303038152906040525b915050919050565b600a5481565b6000600560008473ffffffffffffffffffffffffffffffffffffffff1673ffffffffffffffffffffffffffffffffffffffff16815260200190815260200160002060008373ffffffffffffffffffffffffffffffffffffffff1673ffffffffffffffffffffffffffffffffffffffff16815260200190815260200160002060009054906101000a900460ff16905092915050565b600c6020528060005260406000206000915090505481565b611bd06121aa565b600073ffffffffffffffffffffffffffffffffffffffff168173ffffffffffffffffffffffffffffffffffffffff161415611c40576040517f08c379a0000000000000000000000000000000000000000000000000000000008152600401611c3790613c3c565b60405180910390fd5b611c49816122bf565b50565b60007f01ffc9a7000000000000000000000000000000000000000000000000000000007bffffffffffffffffffffffffffffffffffffffffffffffffffffffff1916827bffffffffffffffffffffffffffffffffffffffffffffffffffffffff1916149050919050565b611cbf81612692565b611cfe576040517f08c379a0000000000000000000000000000000000000000000000000000000008152600401611cf590613e5c565b60405180910390fd5b50565b600033905090565b816004600083815260200190815260200160002060006101000a81548173ffffffffffffffffffffffffffffffffffffffff021916908373ffffffffffffffffffffffffffffffffffffffff160217905550808273ffffffffffffffffffffffffffffffffffffffff16611d7c83611464565b73ffffffffffffffffffffffffffffffffffffffff167f8c5be1e5ebec7d5bd14f71427d1e84f3dd0314c0f7b2291e5b200ac8c7c3b92560405160405180910390a45050565b600080611dce83611464565b90508073ffffffffffffffffffffffffffffffffffffffff168473ffffffffffffffffffffffffffffffffffffffff161480611e105750611e0f8185611b1c565b5b80611e4e57508373ffffffffffffffffffffffffffffffffffffffff16611e36846109a8565b73ffffffffffffffffffffffffffffffffffffffff16145b91505092915050565b8273ffffffffffffffffffffffffffffffffffffffff16611e7782611464565b73ffffffffffffffffffffffffffffffffffffffff1614611ecd576040517f08c379a0000000000000000000000000000000000000000000000000000000008152600401611ec490613c7c565b60405180910390fd5b600073ffffffffffffffffffffffffffffffffffffffff168273ffffffffffffffffffffffffffffffffffffffff161415611f3d576040517f08c379a0000000000000000000000000000000000000000000000000000000008152600401611f3490613cdc565b60405180910390fd5b611f4a83838360016126d3565b8273ffffffffffffffffffffffffffffffffffffffff16611f6a82611464565b73ffffffffffffffffffffffffffffffffffffffff1614611fc0576040517f08c379a0000000000000000000000000000000000000000000000000000000008152600401611fb790613c7c565b60405180910390fd5b6004600082815260200190815260200160002060006101000a81549073ffffffffffffffffffffffffffffffffffffffff02191690556001600360008573ffffffffffffffffffffffffffffffffffffffff1673ffffffffffffffffffffffffffffffffffffffff168152602001908152602001600020600082825403925050819055506001600360008473ffffffffffffffffffffffffffffffffffffffff1673ffffffffffffffffffffffffffffffffffffffff16815260200190815260200160002060008282540192505081905550816002600083815260200190815260200160002060006101000a81548173ffffffffffffffffffffffffffffffffffffffff021916908373ffffffffffffffffffffffffffffffffffffffff160217905550808273ffffffffffffffffffffffffffffffffffffffff168473ffffffffffffffffffffffffffffffffffffffff167fddf252ad1be2c89b69c2b068fc378daa952ba7f163c4a11628f55a4df523b3ef60405160405180910390a461214c83838360016127f9565b505050565b6001816000016000828254019250508190555050565b600081600001549050919050565b61218f8282604051806020016040528060008152506127ff565b5050565b6000826121a0858461285a565b1490509392505050565b6121b2611d01565b73ffffffffffffffffffffffffffffffffffffffff166121d0611615565b73ffffffffffffffffffffffffffffffffffffffff1614612226576040517f08c379a000000000000000000000000000000000000000000000000000000000815260040161221d90613ddc565b60405180910390fd5b565b6002600754141561226e576040517f08c379a000000000000000000000000000000000000000000000000000000000815260040161226590613edc565b60405180910390fd5b6002600781905550565b6001600781905550565b60006002600083815260200190815260200160002060009054906101000a900473ffffffffffffffffffffffffffffffffffffffff169050919050565b6000600660009054906101000a900473ffffffffffffffffffffffffffffffffffffffff16905081600660006101000a81548173ffffffffffffffffffffffffffffffffffffffff021916908373ffffffffffffffffffffffffffffffffffffffff1602179055508173ffffffffffffffffffffffffffffffffffffffff168173ffffffffffffffffffffffffffffffffffffffff167f8be0079c531659141344cd1fd0a4f28419497f9722a3daafe3b4186f6b6457e060405160405180910390a35050565b8173ffffffffffffffffffffffffffffffffffffffff168373ffffffffffffffffffffffffffffffffffffffff1614156123f4576040517f08c379a00000000000000000000000000000000000000000000000000000000081526004016123eb90613cfc565b60405180910390fd5b80600560008573ffffffffffffffffffffffffffffffffffffffff1673ffffffffffffffffffffffffffffffffffffffff16815260200190815260200160002060008473ffffffffffffffffffffffffffffffffffffffff1673ffffffffffffffffffffffffffffffffffffffff16815260200190815260200160002060006101000a81548160ff0219169083151502179055508173ffffffffffffffffffffffffffffffffffffffff168373ffffffffffffffffffffffffffffffffffffffff167f17307eab39ab6107e8899845ad3d59bd9653f200f220920489ca2b5937696c31836040516124e59190613b3f565b60405180910390a3505050565b6124fd848484611e57565b612509848484846128d6565b612548576040517f08c379a000000000000000000000000000000000000000000000000000000000815260040161253f90613c1c565b60405180910390fd5b50505050565b6060604051806060016040528060368152602001614ac960369139905090565b60606000600161257d84612a6d565b01905060008167ffffffffffffffff8111156125c2577f4e487b7100000000000000000000000000000000000000000000000000000000600052604160045260246000fd5b6040519080825280601f01601f1916602001820160405280156125f45781602001600182028036833780820191505090505b509050600082602001820190505b600115612687578080600190039150507f3031323334353637383961626364656600000000000000000000000000000000600a86061a8153600a8581612671577f4e487b7100000000000000000000000000000000000000000000000000000000600052601260045260246000fd5b049450600085141561268257612687565b612602565b819350505050919050565b60008073ffffffffffffffffffffffffffffffffffffffff166126b483612282565b73ffffffffffffffffffffffffffffffffffffffff1614159050919050565b60018111156127f357600073ffffffffffffffffffffffffffffffffffffffff168473ffffffffffffffffffffffffffffffffffffffff16146127675780600360008673ffffffffffffffffffffffffffffffffffffffff1673ffffffffffffffffffffffffffffffffffffffff168152602001908152602001600020600082825461275f91906140fd565b925050819055505b600073ffffffffffffffffffffffffffffffffffffffff168373ffffffffffffffffffffffffffffffffffffffff16146127f25780600360008573ffffffffffffffffffffffffffffffffffffffff1673ffffffffffffffffffffffffffffffffffffffff16815260200190815260200160002060008282546127ea919061404d565b925050819055505b5b50505050565b50505050565b6128098383612ca4565b61281660008484846128d6565b612855576040517f08c379a000000000000000000000000000000000000000000000000000000000815260040161284c90613c1c565b60405180910390fd5b505050565b60008082905060005b84518110156128cb576128b6828683815181106128a9577f4e487b7100000000000000000000000000000000000000000000000000000000600052603260045260246000fd5b6020026020010151612ec2565b915080806128c390614254565b915050612863565b508091505092915050565b60006128f78473ffffffffffffffffffffffffffffffffffffffff16612eed565b15612a60578373ffffffffffffffffffffffffffffffffffffffff1663150b7a02612920611d01565b8786866040518563ffffffff1660e01b81526004016129429493929190613af3565b602060405180830381600087803b15801561295c57600080fd5b505af192505050801561298d57506040513d601f19601f8201168201806040525081019061298a919061344f565b60015b612a10573d80600081146129bd576040519150601f19603f3d011682016040523d82523d6000602084013e6129c2565b606091505b50600081511415612a08576040517f08c379a00000000000000000000000000000000000000000000000000000000081526004016129ff90613c1c565b60405180910390fd5b805181602001fd5b63150b7a0260e01b7bffffffffffffffffffffffffffffffffffffffffffffffffffffffff1916817bffffffffffffffffffffffffffffffffffffffffffffffffffffffff191614915050612a65565b600190505b949350505050565b600080600090507a184f03e93ff9f4daa797ed6e38ed64bf6a1f0100000000000000008310612af1577a184f03e93ff9f4daa797ed6e38ed64bf6a1f0100000000000000008381612ae7577f4e487b7100000000000000000000000000000000000000000000000000000000600052601260045260246000fd5b0492506040810190505b6d04ee2d6d415b85acef81000000008310612b54576d04ee2d6d415b85acef81000000008381612b4a577f4e487b7100000000000000000000000000000000000000000000000000000000600052601260045260246000fd5b0492506020810190505b662386f26fc100008310612ba957662386f26fc100008381612b9f577f4e487b7100000000000000000000000000000000000000000000000000000000600052601260045260246000fd5b0492506010810190505b6305f5e1008310612bf8576305f5e1008381612bee577f4e487b7100000000000000000000000000000000000000000000000000000000600052601260045260246000fd5b0492506008810190505b6127108310612c43576127108381612c39577f4e487b7100000000000000000000000000000000000000000000000000000000600052601260045260246000fd5b0492506004810190505b60648310612c8c5760648381612c82577f4e487b7100000000000000000000000000000000000000000000000000000000600052601260045260246000fd5b0492506002810190505b600a8310612c9b576001810190505b80915050919050565b600073ffffffffffffffffffffffffffffffffffffffff168273ffffffffffffffffffffffffffffffffffffffff161415612d14576040517f08c379a0000000000000000000000000000000000000000000000000000000008152600401612d0b90613dbc565b60405180910390fd5b612d1d81612692565b15612d5d576040517f08c379a0000000000000000000000000000000000000000000000000000000008152600401612d5490613c9c565b60405180910390fd5b612d6b6000838360016126d3565b612d7481612692565b15612db4576040517f08c379a0000000000000000000000000000000000000000000000000000000008152600401612dab90613c9c565b60405180910390fd5b6001600360008473ffffffffffffffffffffffffffffffffffffffff1673ffffffffffffffffffffffffffffffffffffffff16815260200190815260200160002060008282540192505081905550816002600083815260200190815260200160002060006101000a81548173ffffffffffffffffffffffffffffffffffffffff021916908373ffffffffffffffffffffffffffffffffffffffff160217905550808273ffffffffffffffffffffffffffffffffffffffff16600073ffffffffffffffffffffffffffffffffffffffff167fddf252ad1be2c89b69c2b068fc378daa952ba7f163c4a11628f55a4df523b3ef60405160405180910390a4612ebe6000838360016127f9565b5050565b6000818310612eda57612ed58284612f10565b612ee5565b612ee48383612f10565b5b905092915050565b6000808273ffffffffffffffffffffffffffffffffffffffff163b119050919050565b600082600052816020526040600020905092915050565b828054612f33906141f1565b90600052602060002090601f016020900481019282612f555760008555612f9c565b82601f10612f6e57805160ff1916838001178555612f9c565b82800160010185558215612f9c579182015b82811115612f9b578251825591602001919060010190612f80565b5b509050612fa99190612fad565b5090565b5b80821115612fc6576000816000905550600101612fae565b5090565b6000612fdd612fd884613f5c565b613f37565b90508083825260208201905082856020860282011115612ffc57600080fd5b60005b8581101561302c57816130128882613106565b845260208401935060208301925050600181019050612fff565b5050509392505050565b600061304961304484613f88565b613f37565b90508281526020810184848401111561306157600080fd5b61306c8482856141af565b509392505050565b600061308761308284613fb9565b613f37565b90508281526020810184848401111561309f57600080fd5b6130aa8482856141af565b509392505050565b6000813590506130c181614a55565b92915050565b600082601f8301126130d857600080fd5b81356130e8848260208601612fca565b91505092915050565b60008135905061310081614a6c565b92915050565b60008135905061311581614a83565b92915050565b60008135905061312a81614a9a565b92915050565b60008151905061313f81614a9a565b92915050565b600082601f83011261315657600080fd5b8135613166848260208601613036565b91505092915050565b600082601f83011261318057600080fd5b8135613190848260208601613074565b91505092915050565b6000813590506131a881614ab1565b92915050565b6000602082840312156131c057600080fd5b60006131ce848285016130b2565b91505092915050565b600080604083850312156131ea57600080fd5b60006131f8858286016130b2565b9250506020613209858286016130b2565b9150509250929050565b60008060006060848603121561322857600080fd5b6000613236868287016130b2565b9350506020613247868287016130b2565b925050604061325886828701613199565b9150509250925092565b6000806000806080858703121561327857600080fd5b6000613286878288016130b2565b9450506020613297878288016130b2565b93505060406132a887828801613199565b925050606085013567ffffffffffffffff8111156132c557600080fd5b6132d187828801613145565b91505092959194509250565b600080604083850312156132f057600080fd5b60006132fe858286016130b2565b925050602061330f858286016130f1565b9150509250929050565b6000806040838503121561332c57600080fd5b600061333a858286016130b2565b925050602061334b85828601613199565b9150509250929050565b60006020828403121561336757600080fd5b600082013567ffffffffffffffff81111561338157600080fd5b61338d848285016130c7565b91505092915050565b6000806000606084860312156133ab57600080fd5b600084013567ffffffffffffffff8111156133c557600080fd5b6133d1868287016130c7565b93505060206133e286828701613199565b92505060406133f386828701613199565b9150509250925092565b60006020828403121561340f57600080fd5b600061341d84828501613106565b91505092915050565b60006020828403121561343857600080fd5b60006134468482850161311b565b91505092915050565b60006020828403121561346157600080fd5b600061346f84828501613130565b91505092915050565b60006020828403121561348a57600080fd5b600082013567ffffffffffffffff8111156134a457600080fd5b6134b08482850161316f565b91505092915050565b6000602082840312156134cb57600080fd5b60006134d984828501613199565b91505092915050565b6134eb81614131565b82525050565b6135026134fd82614131565b61429d565b82525050565b61351181614143565b82525050565b600061352282613fff565b61352c8185614015565b935061353c8185602086016141be565b61354581614358565b840191505092915050565b6000815461355d816141f1565b6135678186614026565b945060018216600081146135825760018114613593576135c6565b60ff198316865281860193506135c6565b61359c85613fea565b60005b838110156135be5781548189015260018201915060208101905061359f565b838801955050505b50505092915050565b60006135da8261400a565b6135e48185614031565b93506135f48185602086016141be565b6135fd81614358565b840191505092915050565b60006136138261400a565b61361d8185614042565b935061362d8185602086016141be565b80840191505092915050565b6000613646602383614031565b915061365182614376565b604082019050919050565b6000613669602d83614031565b9150613674826143c5565b604082019050919050565b600061368c602f83614031565b915061369782614414565b604082019050919050565b60006136af601d83614031565b91506136ba82614463565b602082019050919050565b60006136d2602183614031565b91506136dd8261448c565b604082019050919050565b60006136f5603283614031565b9150613700826144db565b604082019050919050565b6000613718602683614031565b91506137238261452a565b604082019050919050565b600061373b601683614031565b915061374682614579565b602082019050919050565b600061375e602583614031565b9150613769826145a2565b604082019050919050565b6000613781601c83614031565b915061378c826145f1565b602082019050919050565b60006137a4601483614031565b91506137af8261461a565b602082019050919050565b60006137c7602483614031565b91506137d282614643565b604082019050919050565b60006137ea601983614031565b91506137f582614692565b602082019050919050565b600061380d601583614031565b9150613818826146bb565b602082019050919050565b6000613830602283614031565b915061383b826146e4565b604082019050919050565b6000613853602b83614031565b915061385e82614733565b604082019050919050565b6000613876602183614031565b915061388182614782565b604082019050919050565b6000613899602983614031565b91506138a4826147d1565b604082019050919050565b60006138bc602083614031565b91506138c782614820565b602082019050919050565b60006138df602083614031565b91506138ea82614849565b602082019050919050565b6000613902602683614031565b915061390d82614872565b604082019050919050565b6000613925601483614031565b9150613930826148c1565b602082019050919050565b6000613948601c83614031565b9150613953826148ea565b602082019050919050565b600061396b601883614031565b915061397682614913565b602082019050919050565b600061398e600e83614031565b91506139998261493c565b602082019050919050565b60006139b1602183614031565b91506139bc82614965565b604082019050919050565b60006139d4603d83614031565b91506139df826149b4565b604082019050919050565b60006139f7601f83614031565b9150613a0282614a03565b602082019050919050565b6000613a1a601783614031565b9150613a2582614a2c565b602082019050919050565b613a39816141a5565b82525050565b613a50613a4b826141a5565b6142c1565b82525050565b6000613a6282846134f1565b60148201915081905092915050565b6000613a7d82856134f1565b601482019150613a8d8284613a3f565b6020820191508190509392505050565b6000613aa98284613550565b915081905092915050565b6000613ac08285613608565b9150613acc8284613608565b91508190509392505050565b6000602082019050613aed60008301846134e2565b92915050565b6000608082019050613b0860008301876134e2565b613b1560208301866134e2565b613b226040830185613a30565b8181036060830152613b348184613517565b905095945050505050565b6000602082019050613b546000830184613508565b92915050565b60006020820190508181036000830152613b7481846135cf565b905092915050565b60006020820190508181036000830152613b9581613639565b9050919050565b60006020820190508181036000830152613bb58161365c565b9050919050565b60006020820190508181036000830152613bd58161367f565b9050919050565b60006020820190508181036000830152613bf5816136a2565b9050919050565b60006020820190508181036000830152613c15816136c5565b9050919050565b60006020820190508181036000830152613c35816136e8565b9050919050565b60006020820190508181036000830152613c558161370b565b9050919050565b60006020820190508181036000830152613c758161372e565b9050919050565b60006020820190508181036000830152613c9581613751565b9050919050565b60006020820190508181036000830152613cb581613774565b9050919050565b60006020820190508181036000830152613cd581613797565b9050919050565b60006020820190508181036000830152613cf5816137ba565b9050919050565b60006020820190508181036000830152613d15816137dd565b9050919050565b60006020820190508181036000830152613d3581613800565b9050919050565b60006020820190508181036000830152613d5581613823565b9050919050565b60006020820190508181036000830152613d7581613846565b9050919050565b60006020820190508181036000830152613d9581613869565b9050919050565b60006020820190508181036000830152613db58161388c565b9050919050565b60006020820190508181036000830152613dd5816138af565b9050919050565b60006020820190508181036000830152613df5816138d2565b9050919050565b60006020820190508181036000830152613e15816138f5565b9050919050565b60006020820190508181036000830152613e3581613918565b9050919050565b60006020820190508181036000830152613e558161393b565b9050919050565b60006020820190508181036000830152613e758161395e565b9050919050565b60006020820190508181036000830152613e9581613981565b9050919050565b60006020820190508181036000830152613eb5816139a4565b9050919050565b60006020820190508181036000830152613ed5816139c7565b9050919050565b60006020820190508181036000830152613ef5816139ea565b9050919050565b60006020820190508181036000830152613f1581613a0d565b9050919050565b6000602082019050613f316000830184613a30565b92915050565b6000613f41613f52565b9050613f4d8282614223565b919050565b6000604051905090565b600067ffffffffffffffff821115613f7757613f76614329565b5b602082029050602081019050919050565b600067ffffffffffffffff821115613fa357613fa2614329565b5b613fac82614358565b9050602081019050919050565b600067ffffffffffffffff821115613fd457613fd3614329565b5b613fdd82614358565b9050602081019050919050565b60008190508160005260206000209050919050565b600081519050919050565b600081519050919050565b600082825260208201905092915050565b600081905092915050565b600082825260208201905092915050565b600081905092915050565b6000614058826141a5565b9150614063836141a5565b9250827fffffffffffffffffffffffffffffffffffffffffffffffffffffffffffffffff03821115614098576140976142cb565b5b828201905092915050565b60006140ae826141a5565b91506140b9836141a5565b9250817fffffffffffffffffffffffffffffffffffffffffffffffffffffffffffffffff04831182151516156140f2576140f16142cb565b5b828202905092915050565b6000614108826141a5565b9150614113836141a5565b925082821015614126576141256142cb565b5b828203905092915050565b600061413c82614185565b9050919050565b60008115159050919050565b6000819050919050565b60007fffffffff0000000000000000000000000000000000000000000000000000000082169050919050565b600073ffffffffffffffffffffffffffffffffffffffff82169050919050565b6000819050919050565b82818337600083830152505050565b60005b838110156141dc5780820151818401526020810190506141c1565b838111156141eb576000848401525b50505050565b6000600282049050600182168061420957607f821691505b6020821081141561421d5761421c6142fa565b5b50919050565b61422c82614358565b810181811067ffffffffffffffff8211171561424b5761424a614329565b5b80604052505050565b600061425f826141a5565b91507fffffffffffffffffffffffffffffffffffffffffffffffffffffffffffffffff821415614292576142916142cb565b5b600182019050919050565b60006142a8826142af565b9050919050565b60006142ba82614369565b9050919050565b6000819050919050565b7f4e487b7100000000000000000000000000000000000000000000000000000000600052601160045260246000fd5b7f4e487b7100000000000000000000000000000000000000000000000000000000600052602260045260246000fd5b7f4e487b7100000000000000000000000000000000000000000000000000000000600052604160045260246000fd5b6000601f19601f8301169050919050565b60008160601b9050919050565b7f4d696e74696e6720657863656564207468652073616c6520616c6c6f6361746960008201527f6f6e2e0000000000000000000000000000000000000000000000000000000000602082015250565b7f4552433732313a2063616c6c6572206973206e6f7420746f6b656e206f776e6560008201527f72206f7220617070726f76656400000000000000000000000000000000000000602082015250565b7f43726561746f722063616e206f6e6c79206d696e7420647572696e672050756260008201527f6c69632053616c6520706572696f640000000000000000000000000000000000602082015250565b7f596f7520617265206e6f74206f6e207468652077686974656c6973742e000000600082015250565b7f596f7520617265206e6f74206f6e20746865207265736572766564206c69737460008201527f2e00000000000000000000000000000000000000000000000000000000000000602082015250565b7f4552433732313a207472616e7366657220746f206e6f6e20455243373231526560008201527f63656976657220696d706c656d656e7465720000000000000000000000000000602082015250565b7f4f776e61626c653a206e6577206f776e657220697320746865207a65726f206160008201527f6464726573730000000000000000000000000000000000000000000000000000602082015250565b7f50726573616c6520706572696f64206973206f76657200000000000000000000600082015250565b7f4552433732313a207472616e736665722066726f6d20696e636f72726563742060008201527f6f776e6572000000000000000000000000000000000000000000000000000000602082015250565b7f4552433732313a20746f6b656e20616c7265616479206d696e74656400000000600082015250565b7f5365742074686520707269636520666972737421000000000000000000000000600082015250565b7f4552433732313a207472616e7366657220746f20746865207a65726f2061646460008201527f7265737300000000000000000000000000000000000000000000000000000000602082015250565b7f4552433732313a20617070726f766520746f2063616c6c657200000000000000600082015250565b7f4974656d206973206e6f7420617661696c61626c650000000000000000000000600082015250565b7f596f75206861766520636c61696d656420746865207265736572766564206d6960008201527f6e74000000000000000000000000000000000000000000000000000000000000602082015250565b7f4d696e74696e6720616d6f756e74206578636565647320616c6c6f77616e636560008201527f207065722077616c6c6574000000000000000000000000000000000000000000602082015250565b7f4974732063757272656e746c79206e6f74206f70656e20666f72207075626c6960008201527f6300000000000000000000000000000000000000000000000000000000000000602082015250565b7f4552433732313a2061646472657373207a65726f206973206e6f74206120766160008201527f6c6964206f776e65720000000000000000000000000000000000000000000000602082015250565b7f4552433732313a206d696e7420746f20746865207a65726f2061646472657373600082015250565b7f4f776e61626c653a2063616c6c6572206973206e6f7420746865206f776e6572600082015250565b7f4d696e74696e6720657863656564207468652070726573616c6520616c6c6f6360008201527f6174696f6e2e0000000000000000000000000000000000000000000000000000602082015250565b7f696e73756666696369656e742062616c616e6365000000000000000000000000600082015250565b7f52657365727665642073616c6520706572696f64206973206f76657200000000600082015250565b7f4552433732313a20696e76616c696420746f6b656e2049440000000000000000600082015250565b7f6e6f20657468657220666f756e64000000000000000000000000000000000000600082015250565b7f4552433732313a20617070726f76616c20746f2063757272656e74206f776e6560008201527f7200000000000000000000000000000000000000000000000000000000000000602082015250565b7f4552433732313a20617070726f76652063616c6c6572206973206e6f7420746f60008201527f6b656e206f776e6572206f7220617070726f76656420666f7220616c6c000000602082015250565b7f5265656e7472616e637947756172643a207265656e7472616e742063616c6c00600082015250565b7f4d617820616c6c6f77616e63652065786365656465642e000000000000000000600082015250565b614a5e81614131565b8114614a6957600080fd5b50565b614a7581614143565b8114614a8057600080fd5b50565b614a8c8161414f565b8114614a9757600080fd5b50565b614aa381614159565b8114614aae57600080fd5b50565b614aba816141a5565b8114614ac557600080fd5b5056fe697066733a2f2f516d596d573933685044534232384333586a6575536575576458715179506139753666766867766b6250325074332fa264697066735822122016d434ea733b6d0fd198f0adc83b67e759ef29b36d03f0ac8cc6a4c1cc43260f64736f6c63430008040033",
  "linkReferences": {},
  "deployedLinkReferences": {}
}