{
  "_format": "hh-sol-artifact-1",
  "contractName": "FuzzNFT",
  "sourceName": "contracts/FuzzNFT.sol",
  "abi": [
    {
      "inputs": [],
      "stateMutability": "nonpayable",
      "type": "constructor"
    },
    {
      "anonymous": false,
      "inputs": [
        {
          "indexed": true,
          "internalType": "address",
          "name": "owner",
          "type": "address"
        },
        {
          "indexed": true,
          "internalType": "address",
          "name": "approved",
          "type": "address"
        },
        {
          "indexed": true,
          "internalType": "uint256",
          "name": "tokenId",
          "type": "uint256"
        }
      ],
      "name": "Approval",
      "type": "event"
    },
    {
      "anonymous": false,
      "inputs": [
        {
          "indexed": true,
          "internalType": "address",
          "name": "owner",
          "type": "address"
        },
        {
          "indexed": true,
          "internalType": "address",
          "name": "operator",
          "type": "address"
        },
        {
          "indexed": false,
          "internalType": "bool",
          "name": "approved",
          "type": "bool"
        }
      ],
      "name": "ApprovalForAll",
      "type": "event"
    },
    {
      "anonymous": false,
      "inputs": [
        {
          "indexed": true,
          "internalType": "address",
          "name": "previousOwner",
          "type": "address"
        },
        {
          "indexed": true,
          "internalType": "address",
          "name": "newOwner",
          "type": "address"
        }
      ],
      "name": "OwnershipTransferred",
      "type": "event"
    },
    {
      "anonymous": false,
      "inputs": [
        {
          "indexed": true,
          "internalType": "address",
          "name": "from",
          "type": "address"
        },
        {
          "indexed": true,
          "internalType": "address",
          "name": "to",
          "type": "address"
        },
        {
          "indexed": true,
          "internalType": "uint256",
          "name": "tokenId",
          "type": "uint256"
        }
      ],
      "name": "Transfer",
      "type": "event"
    },
    {
      "inputs": [],
      "name": "CREATOR_PRICE",
      "outputs": [
        {
          "internalType": "uint256",
          "name": "",
          "type": "uint256"
        }
      ],
      "stateMutability": "view",
      "type": "function"
    },
    {
      "inputs": [],
      "name": "MAX_QTY_PER_MINTER",
      "outputs": [
        {
          "internalType": "uint256",
          "name": "",
          "type": "uint256"
        }
      ],
      "stateMutability": "view",
      "type": "function"
    },
    {
      "inputs": [],
      "name": "PRE_SALES_PRICE",
      "outputs": [
        {
          "internalType": "uint256",
          "name": "",
          "type": "uint256"
        }
      ],
      "stateMutability": "view",
      "type": "function"
    },
    {
      "inputs": [],
      "name": "PUBLIC_SALES_PRICE",
      "outputs": [
        {
          "internalType": "uint256",
          "name": "",
          "type": "uint256"
        }
      ],
      "stateMutability": "view",
      "type": "function"
    },
    {
      "inputs": [],
      "name": "SALES_MAX_QTY",
      "outputs": [
        {
          "internalType": "uint256",
          "name": "",
          "type": "uint256"
        }
      ],
      "stateMutability": "view",
      "type": "function"
    },
    {
      "inputs": [
        {
          "internalType": "address",
          "name": "to",
          "type": "address"
        },
        {
          "internalType": "uint256",
          "name": "tokenId",
          "type": "uint256"
        }
      ],
      "name": "approve",
      "outputs": [],
      "stateMutability": "nonpayable",
      "type": "function"
    },
    {
      "inputs": [
        {
          "internalType": "address",
          "name": "owner",
          "type": "address"
        }
      ],
      "name": "balanceOf",
      "outputs": [
        {
          "internalType": "uint256",
          "name": "",
          "type": "uint256"
        }
      ],
      "stateMutability": "view",
      "type": "function"
    },
    {
      "inputs": [],
      "name": "creatorMint",
      "outputs": [],
      "stateMutability": "payable",
      "type": "function"
    },
    {
      "inputs": [
        {
          "internalType": "uint256",
          "name": "tokenId",
          "type": "uint256"
        }
      ],
      "name": "getApproved",
      "outputs": [
        {
          "internalType": "address",
          "name": "",
          "type": "address"
        }
      ],
      "stateMutability": "view",
      "type": "function"
    },
    {
      "inputs": [],
      "name": "getPrice",
      "outputs": [
        {
          "internalType": "uint256",
          "name": "",
          "type": "uint256"
        }
      ],
      "stateMutability": "view",
      "type": "function"
    },
    {
      "inputs": [
        {
          "internalType": "address",
          "name": "owner",
          "type": "address"
        },
        {
          "internalType": "address",
          "name": "operator",
          "type": "address"
        }
      ],
      "name": "isApprovedForAll",
      "outputs": [
        {
          "internalType": "bool",
          "name": "",
          "type": "bool"
        }
      ],
      "stateMutability": "view",
      "type": "function"
    },
    {
      "inputs": [],
      "name": "name",
      "outputs": [
        {
          "internalType": "string",
          "name": "",
          "type": "string"
        }
      ],
      "stateMutability": "view",
      "type": "function"
    },
    {
      "inputs": [],
      "name": "owner",
      "outputs": [
        {
          "internalType": "address",
          "name": "",
          "type": "address"
        }
      ],
      "stateMutability": "view",
      "type": "function"
    },
    {
      "inputs": [
        {
          "internalType": "uint256",
          "name": "tokenId",
          "type": "uint256"
        }
      ],
      "name": "ownerOf",
      "outputs": [
        {
          "internalType": "address",
          "name": "",
          "type": "address"
        }
      ],
      "stateMutability": "view",
      "type": "function"
    },
    {
      "inputs": [
        {
          "internalType": "bytes32[]",
          "name": "proof",
          "type": "bytes32[]"
        },
        {
          "internalType": "uint256",
          "name": "qty",
          "type": "uint256"
        },
        {
          "internalType": "uint256",
          "name": "allowance",
          "type": "uint256"
        }
      ],
      "name": "presaleMint",
      "outputs": [],
      "stateMutability": "payable",
      "type": "function"
    },
    {
      "inputs": [
        {
          "internalType": "uint256",
          "name": "qty",
          "type": "uint256"
        }
      ],
      "name": "publicMint",
      "outputs": [],
      "stateMutability": "payable",
      "type": "function"
    },
    {
      "inputs": [
        {
          "internalType": "address",
          "name": "",
          "type": "address"
        }
      ],
      "name": "publicMintedAmount",
      "outputs": [
        {
          "internalType": "uint256",
          "name": "",
          "type": "uint256"
        }
      ],
      "stateMutability": "view",
      "type": "function"
    },
    {
      "inputs": [],
      "name": "renounceOwnership",
      "outputs": [],
      "stateMutability": "nonpayable",
      "type": "function"
    },
    {
      "inputs": [
        {
          "internalType": "address",
          "name": "",
          "type": "address"
        }
      ],
      "name": "reservedClaimed",
      "outputs": [
        {
          "internalType": "bool",
          "name": "",
          "type": "bool"
        }
      ],
      "stateMutability": "view",
      "type": "function"
    },
    {
      "inputs": [
        {
          "internalType": "bytes32[]",
          "name": "proof",
          "type": "bytes32[]"
        }
      ],
      "name": "reservedMint",
      "outputs": [],
      "stateMutability": "payable",
      "type": "function"
    },
    {
      "inputs": [
        {
          "internalType": "address",
          "name": "from",
          "type": "address"
        },
        {
          "internalType": "address",
          "name": "to",
          "type": "address"
        },
        {
          "internalType": "uint256",
          "name": "tokenId",
          "type": "uint256"
        }
      ],
      "name": "safeTransferFrom",
      "outputs": [],
      "stateMutability": "nonpayable",
      "type": "function"
    },
    {
      "inputs": [
        {
          "internalType": "address",
          "name": "from",
          "type": "address"
        },
        {
          "internalType": "address",
          "name": "to",
          "type": "address"
        },
        {
          "internalType": "uint256",
          "name": "tokenId",
          "type": "uint256"
        },
        {
          "internalType": "bytes",
          "name": "data",
          "type": "bytes"
        }
      ],
      "name": "safeTransferFrom",
      "outputs": [],
      "stateMutability": "nonpayable",
      "type": "function"
    },
    {
      "inputs": [
        {
          "internalType": "address",
          "name": "operator",
          "type": "address"
        },
        {
          "internalType": "bool",
          "name": "approved",
          "type": "bool"
        }
      ],
      "name": "setApprovalForAll",
      "outputs": [],
      "stateMutability": "nonpayable",
      "type": "function"
    },
    {
      "inputs": [
        {
          "internalType": "uint256",
          "name": "_price",
          "type": "uint256"
        }
      ],
      "name": "setCreatorPrice",
      "outputs": [],
      "stateMutability": "nonpayable",
      "type": "function"
    },
    {
      "inputs": [
        {
          "internalType": "uint256",
          "name": "_price",
          "type": "uint256"
        }
      ],
      "name": "setPreSalePrice",
      "outputs": [],
      "stateMutability": "nonpayable",
      "type": "function"
    },
    {
      "inputs": [
        {
          "internalType": "bytes32",
          "name": "_reservedMerkleRoot",
          "type": "bytes32"
        }
      ],
      "name": "setReservedMerkleroot",
      "outputs": [],
      "stateMutability": "nonpayable",
      "type": "function"
    },
    {
      "inputs": [
        {
          "internalType": "string",
          "name": "_status",
          "type": "string"
        }
      ],
      "name": "setStatus",
      "outputs": [],
      "stateMutability": "nonpayable",
      "type": "function"
    },
    {
      "inputs": [
        {
          "internalType": "bytes32",
          "name": "_whitelistMerkleRoot",
          "type": "bytes32"
        }
      ],
      "name": "setWhitelistMerkleRoot",
      "outputs": [],
      "stateMutability": "nonpayable",
      "type": "function"
    },
    {
      "inputs": [],
      "name": "status",
      "outputs": [
        {
          "internalType": "string",
          "name": "",
          "type": "string"
        }
      ],
      "stateMutability": "view",
      "type": "function"
    },
    {
      "inputs": [
        {
          "internalType": "bytes4",
          "name": "interfaceId",
          "type": "bytes4"
        }
      ],
      "name": "supportsInterface",
      "outputs": [
        {
          "internalType": "bool",
          "name": "",
          "type": "bool"
        }
      ],
      "stateMutability": "view",
      "type": "function"
    },
    {
      "inputs": [],
      "name": "symbol",
      "outputs": [
        {
          "internalType": "string",
          "name": "",
          "type": "string"
        }
      ],
      "stateMutability": "view",
      "type": "function"
    },
    {
      "inputs": [
        {
          "internalType": "uint256",
          "name": "tokenId",
          "type": "uint256"
        }
      ],
      "name": "tokenURI",
      "outputs": [
        {
          "internalType": "string",
          "name": "",
          "type": "string"
        }
      ],
      "stateMutability": "view",
      "type": "function"
    },
    {
      "inputs": [],
      "name": "totalSupply",
      "outputs": [
        {
          "internalType": "uint256",
          "name": "",
          "type": "uint256"
        }
      ],
      "stateMutability": "view",
      "type": "function"
    },
    {
      "inputs": [
        {
          "internalType": "address",
          "name": "from",
          "type": "address"
        },
        {
          "internalType": "address",
          "name": "to",
          "type": "address"
        },
        {
          "internalType": "uint256",
          "name": "tokenId",
          "type": "uint256"
        }
      ],
      "name": "transferFrom",
      "outputs": [],
      "stateMutability": "nonpayable",
      "type": "function"
    },
    {
      "inputs": [
        {
          "internalType": "address",
          "name": "newOwner",
          "type": "address"
        }
      ],
      "name": "transferOwnership",
      "outputs": [],
      "stateMutability": "nonpayable",
      "type": "function"
    },
    {
      "inputs": [
        {
          "internalType": "address",
          "name": "",
          "type": "address"
        }
      ],
      "name": "whitelistMintedAmount",
      "outputs": [
        {
          "internalType": "uint256",
          "name": "",
          "type": "uint256"
        }
      ],
      "stateMutability": "view",
      "type": "function"
    },
    {
      "inputs": [],
      "name": "withdraw",
      "outputs": [],
      "stateMutability": "nonpayable",
      "type": "function"
    }
  ],
  "bytecode": "0x608060405260006010553480156200001657600080fd5b506040518060400160405280600a81526020017f46757a7a20546f6b656e000000000000000000000000000000000000000000008152506040518060400160405280600481526020017f46757a7a0000000000000000000000000000000000000000000000000000000081525081600090805190602001906200009b929190620001b3565b508060019080519060200190620000b4929190620001b3565b505050620000d7620000cb620000e560201b60201c565b620000ed60201b60201c565b6001600781905550620002c8565b600033905090565b6000600660009054906101000a900473ffffffffffffffffffffffffffffffffffffffff16905081600660006101000a81548173ffffffffffffffffffffffffffffffffffffffff021916908373ffffffffffffffffffffffffffffffffffffffff1602179055508173ffffffffffffffffffffffffffffffffffffffff168173ffffffffffffffffffffffffffffffffffffffff167f8be0079c531659141344cd1fd0a4f28419497f9722a3daafe3b4186f6b6457e060405160405180910390a35050565b828054620001c19062000263565b90600052602060002090601f016020900481019282620001e5576000855562000231565b82601f106200020057805160ff191683800117855562000231565b8280016001018555821562000231579182015b828111156200023057825182559160200191906001019062000213565b5b50905062000240919062000244565b5090565b5b808211156200025f57600081600090555060010162000245565b5090565b600060028204905060018216806200027c57607f821691505b6020821081141562000293576200029262000299565b5b50919050565b7f4e487b7100000000000000000000000000000000000000000000000000000000600052602260045260246000fd5b614bba80620002d86000396000f3fe6080604052600436106102195760003560e01c806370a0823111610123578063a22cb465116100ab578063c87b56dd1161006f578063c87b56dd14610760578063d6eec46a1461079d578063e985e9c5146107c8578063ead29d4e14610805578063f2fde38b1461084257610219565b8063a22cb4651461069e578063aaab1ba5146106c7578063ac501c41146106e3578063b88d4fde1461070e578063bd32fb661461073757610219565b806382afe550116100f257806382afe550146105c9578063886e0c10146105f45780638da5cb5b1461061d57806395d89b411461064857806398d5fdca1461067357610219565b806370a0823114610523578063715018a6146105605780637d2211d6146105775780637d7eee42146105a057610219565b80632db11544116101a657806340702c901161017557806340702c901461045f57806342842e0e146104885780634b845499146104b157806354a95351146104bb5780636352211e146104e657610219565b80632db11544146103d35780633c18c3da146103ef5780633ccfd60b1461040b5780633e9c9ec21461042257610219565b8063095ea7b3116101ed578063095ea7b3146102ee57806318160ddd146103175780631fac2a3514610342578063200d2ed21461037f57806323b872dd146103aa57610219565b806226275e1461021e57806301ffc9a71461024957806306fdde0314610286578063081812fc146102b1575b600080fd5b34801561022a57600080fd5b5061023361086b565b6040516102409190613fa2565b60405180910390f35b34801561025557600080fd5b50610270600480360381019061026b91906134ac565b610871565b60405161027d9190613bc5565b60405180910390f35b34801561029257600080fd5b5061029b610953565b6040516102a89190613be0565b60405180910390f35b3480156102bd57600080fd5b506102d860048036038101906102d3919061353f565b6109e5565b6040516102e59190613b5e565b60405180910390f35b3480156102fa57600080fd5b506103156004803603810190610310919061339f565b610a2b565b005b34801561032357600080fd5b5061032c610b43565b6040516103399190613fa2565b60405180910390f35b34801561034e57600080fd5b5061036960048036038101906103649190613234565b610b49565b6040516103769190613fa2565b60405180910390f35b34801561038b57600080fd5b50610394610b61565b6040516103a19190613be0565b60405180910390f35b3480156103b657600080fd5b506103d160048036038101906103cc9190613299565b610bef565b005b6103ed60048036038101906103e8919061353f565b610c4f565b005b6104096004803603810190610404919061341c565b610f13565b005b34801561041757600080fd5b50610420611203565b005b34801561042e57600080fd5b5061044960048036038101906104449190613234565b6112ae565b6040516104569190613bc5565b60405180910390f35b34801561046b57600080fd5b506104866004803603810190610481919061353f565b6112ce565b005b34801561049457600080fd5b506104af60048036038101906104aa9190613299565b6112e0565b005b6104b9611300565b005b3480156104c757600080fd5b506104d06114a1565b6040516104dd9190613fa2565b60405180910390f35b3480156104f257600080fd5b5061050d6004803603810190610508919061353f565b6114a7565b60405161051a9190613b5e565b60405180910390f35b34801561052f57600080fd5b5061054a60048036038101906105459190613234565b61152e565b6040516105579190613fa2565b60405180910390f35b34801561056c57600080fd5b506105756115e6565b005b34801561058357600080fd5b5061059e600480360381019061059991906134fe565b6115fa565b005b3480156105ac57600080fd5b506105c760048036038101906105c2919061353f565b61161c565b005b3480156105d557600080fd5b506105de61162e565b6040516105eb9190613fa2565b60405180910390f35b34801561060057600080fd5b5061061b60048036038101906106169190613483565b611634565b005b34801561062957600080fd5b50610632611646565b60405161063f9190613b5e565b60405180910390f35b34801561065457600080fd5b5061065d611670565b60405161066a9190613be0565b60405180910390f35b34801561067f57600080fd5b50610688611702565b6040516106959190613fa2565b60405180910390f35b3480156106aa57600080fd5b506106c560048036038101906106c09190613363565b611829565b005b6106e160048036038101906106dc91906133db565b61183f565b005b3480156106ef57600080fd5b506106f8611abb565b6040516107059190613fa2565b60405180910390f35b34801561071a57600080fd5b50610735600480360381019061073091906132e8565b611ac0565b005b34801561074357600080fd5b5061075e60048036038101906107599190613483565b611b22565b005b34801561076c57600080fd5b506107876004803603810190610782919061353f565b611b34565b6040516107949190613be0565b60405180910390f35b3480156107a957600080fd5b506107b2611b9c565b6040516107bf9190613fa2565b60405180910390f35b3480156107d457600080fd5b506107ef60048036038101906107ea919061325d565b611ba2565b6040516107fc9190613bc5565b60405180910390f35b34801561081157600080fd5b5061082c60048036038101906108279190613234565b611c36565b6040516108399190613fa2565b60405180910390f35b34801561084e57600080fd5b5061086960048036038101906108649190613234565b611c4e565b005b6103e881565b60007f80ac58cd000000000000000000000000000000000000000000000000000000007bffffffffffffffffffffffffffffffffffffffffffffffffffffffff1916827bffffffffffffffffffffffffffffffffffffffffffffffffffffffff1916148061093c57507f5b5e139f000000000000000000000000000000000000000000000000000000007bffffffffffffffffffffffffffffffffffffffffffffffffffffffff1916827bffffffffffffffffffffffffffffffffffffffffffffffffffffffff1916145b8061094c575061094b82611cd2565b5b9050919050565b60606000805461096290614277565b80601f016020809104026020016040519081016040528092919081815260200182805461098e90614277565b80156109db5780601f106109b0576101008083540402835291602001916109db565b820191906000526020600020905b8154815290600101906020018083116109be57829003601f168201915b5050505050905090565b60006109f082611d3c565b6004600083815260200190815260200160002060009054906101000a900473ffffffffffffffffffffffffffffffffffffffff169050919050565b6000610a36826114a7565b90508073ffffffffffffffffffffffffffffffffffffffff168373ffffffffffffffffffffffffffffffffffffffff161415610aa7576040517f08c379a0000000000000000000000000000000000000000000000000000000008152600401610a9e90613f22565b60405180910390fd5b8073ffffffffffffffffffffffffffffffffffffffff16610ac6611d87565b73ffffffffffffffffffffffffffffffffffffffff161480610af55750610af481610aef611d87565b611ba2565b5b610b34576040517f08c379a0000000000000000000000000000000000000000000000000000000008152600401610b2b90613f42565b60405180910390fd5b610b3e8383611d8f565b505050565b60105481565b600c6020528060005260406000206000915090505481565b60118054610b6e90614277565b80601f0160208091040260200160405190810160405280929190818152602001828054610b9a90614277565b8015610be75780601f10610bbc57610100808354040283529160200191610be7565b820191906000526020600020905b815481529060010190602001808311610bca57829003601f168201915b505050505081565b610c00610bfa611d87565b82611e48565b610c3f576040517f08c379a0000000000000000000000000000000000000000000000000000000008152600401610c3690613c22565b60405180910390fd5b610c4a838383611edd565b505050565b6040518060400160405280600a81526020017f5075626c696353616c6500000000000000000000000000000000000000000000815250805190602001206011604051610c9b9190613b23565b604051809103902014610ce3576040517f08c379a0000000000000000000000000000000000000000000000000000000008152600401610cda90613e02565b60405180910390fd5b6000610ced611702565b11610d2d576040517f08c379a0000000000000000000000000000000000000000000000000000000008152600401610d2490613da2565b60405180910390fd5b600281600b60003373ffffffffffffffffffffffffffffffffffffffff1673ffffffffffffffffffffffffffffffffffffffff16815260200190815260200160002054610d7a91906140d3565b1115610dbb576040517f08c379a0000000000000000000000000000000000000000000000000000000008152600401610db290613de2565b60405180910390fd5b6103e881601054610dcc91906140d3565b10610e0c576040517f08c379a0000000000000000000000000000000000000000000000000000000008152600401610e0390613c02565b60405180910390fd5b80610e15611702565b610e1f9190614129565b3414610e60576040517f08c379a0000000000000000000000000000000000000000000000000000000008152600401610e5790613ea2565b60405180910390fd5b60005b81811015610eb957610e7560126121d7565b6000610e8160126121ed565b9050610e8d33826121fb565b60106000815480929190610ea0906142da565b9190505550508080610eb1906142da565b915050610e63565b5080600b60003373ffffffffffffffffffffffffffffffffffffffff1673ffffffffffffffffffffffffffffffffffffffff1681526020019081526020016000206000828254610f0991906140d3565b9250508190555050565b6040518060400160405280600781526020017f50726553616c6500000000000000000000000000000000000000000000000000815250805190602001206011604051610f5f9190613b23565b604051809103902014610fa7576040517f08c379a0000000000000000000000000000000000000000000000000000000008152600401610f9e90613ce2565b60405180910390fd5b610fdc83600e543384604051602001610fc1929190613af7565b60405160208183030381529060405280519060200120612219565b61101b576040517f08c379a000000000000000000000000000000000000000000000000000000000815260040161101290613c62565b60405180910390fd5b6103e88260105461102c91906140d3565b111561106d576040517f08c379a000000000000000000000000000000000000000000000000000000000815260040161106490613e82565b60405180910390fd5b8082600c60003373ffffffffffffffffffffffffffffffffffffffff1673ffffffffffffffffffffffffffffffffffffffff168152602001908152602001600020546110b991906140d3565b11156110fa576040517f08c379a00000000000000000000000000000000000000000000000000000000081526004016110f190613f82565b60405180910390fd5b3482611104611702565b61110e9190614129565b1461114e576040517f08c379a000000000000000000000000000000000000000000000000000000000815260040161114590613ea2565b60405180910390fd5b60005b828110156111a75761116360126121d7565b600061116f60126121ed565b905061117b33826121fb565b6010600081548092919061118e906142da565b919050555050808061119f906142da565b915050611151565b5081600c60003373ffffffffffffffffffffffffffffffffffffffff1673ffffffffffffffffffffffffffffffffffffffff16815260200190815260200160002060008282546111f791906140d3565b92505081905550505050565b61120b612230565b6112136122ae565b60004711611256576040517f08c379a000000000000000000000000000000000000000000000000000000000815260040161124d90613f02565b60405180910390fd5b61125e611646565b73ffffffffffffffffffffffffffffffffffffffff166108fc479081150290604051600060405180830381858888f193505050501580156112a3573d6000803e3d6000fd5b506112ac6122fe565b565b600d6020528060005260406000206000915054906101000a900460ff1681565b6112d6612230565b80600a8190555050565b6112fb83838360405180602001604052806000815250611ac0565b505050565b611308612230565b60006010546103e861131a9190614183565b90506040518060400160405280600a81526020017f5075626c696353616c65000000000000000000000000000000000000000000008152508051906020012060116040516113689190613b23565b6040518091039020146113b0576040517f08c379a00000000000000000000000000000000000000000000000000000000081526004016113a790613c42565b60405180910390fd5b6000600a54116113f5576040517f08c379a00000000000000000000000000000000000000000000000000000000081526004016113ec90613d42565b60405180910390fd5b80600a546114039190614129565b3414611444576040517f08c379a000000000000000000000000000000000000000000000000000000000815260040161143b90613ea2565b60405180910390fd5b60005b8181101561149d5761145960126121d7565b600061146560126121ed565b905061147133826121fb565b60106000815480929190611484906142da565b9190505550508080611495906142da565b915050611447565b5050565b600a5481565b6000806114b383612308565b9050600073ffffffffffffffffffffffffffffffffffffffff168173ffffffffffffffffffffffffffffffffffffffff161415611525576040517f08c379a000000000000000000000000000000000000000000000000000000000815260040161151c90613ee2565b60405180910390fd5b80915050919050565b60008073ffffffffffffffffffffffffffffffffffffffff168273ffffffffffffffffffffffffffffffffffffffff16141561159f576040517f08c379a000000000000000000000000000000000000000000000000000000000815260040161159690613e22565b60405180910390fd5b600360008373ffffffffffffffffffffffffffffffffffffffff1673ffffffffffffffffffffffffffffffffffffffff168152602001908152602001600020549050919050565b6115ee612230565b6115f86000612345565b565b611602612230565b8060119080519060200190611618929190612fad565b5050565b611624612230565b8060088190555050565b60085481565b61163c612230565b80600f8190555050565b6000600660009054906101000a900473ffffffffffffffffffffffffffffffffffffffff16905090565b60606001805461167f90614277565b80601f01602080910402602001604051908101604052809291908181526020018280546116ab90614277565b80156116f85780601f106116cd576101008083540402835291602001916116f8565b820191906000526020600020905b8154815290600101906020018083116116db57829003601f168201915b5050505050905090565b60006040518060400160405280600781526020017f50726553616c65000000000000000000000000000000000000000000000000008152508051906020012060116040516117509190613b23565b60405180910390201415611768576008549050611826565b6040518060400160405280600a81526020017f5075626c696353616c65000000000000000000000000000000000000000000008152508051906020012060116040516117b49190613b23565b6040518091039020141561182157606460105410156117dc57662386f26fc100009050611826565b6064601054101580156117f25750610190601054105b156118065766354a6ba7a180009050611826565b610190601054106118205766470de4df8200009050611826565b5b600090505b90565b61183b611834611d87565b838361240b565b5050565b6040518060400160405280600c81526020017f526573657276656453616c65000000000000000000000000000000000000000081525080519060200120601160405161188b9190613b23565b6040518091039020146118d3576040517f08c379a00000000000000000000000000000000000000000000000000000000081526004016118ca90613ec2565b60405180910390fd5b61190681600f54336040516020016118eb9190613adc565b60405160208183030381529060405280519060200120612219565b611945576040517f08c379a000000000000000000000000000000000000000000000000000000000815260040161193c90613c82565b60405180910390fd5b6103e8600160105461195791906140d3565b1115611998576040517f08c379a000000000000000000000000000000000000000000000000000000000815260040161198f90613c02565b60405180910390fd5b600d60003373ffffffffffffffffffffffffffffffffffffffff1673ffffffffffffffffffffffffffffffffffffffff16815260200190815260200160002060009054906101000a900460ff1615611a25576040517f08c379a0000000000000000000000000000000000000000000000000000000008152600401611a1c90613dc2565b60405180910390fd5b6001600d60003373ffffffffffffffffffffffffffffffffffffffff1673ffffffffffffffffffffffffffffffffffffffff16815260200190815260200160002060006101000a81548160ff021916908315150217905550611a8760126121d7565b6000611a9360126121ed565b9050611a9f33826121fb565b60106000815480929190611ab2906142da565b91905055505050565b600281565b611ad1611acb611d87565b83611e48565b611b10576040517f08c379a0000000000000000000000000000000000000000000000000000000008152600401611b0790613c22565b60405180910390fd5b611b1c84848484612578565b50505050565b611b2a612230565b80600e8190555050565b6060611b3f82611d3c565b6000611b496125d4565b90506000815111611b695760405180602001604052806000815250611b94565b80611b73846125f4565b604051602001611b84929190613b3a565b6040516020818303038152906040525b915050919050565b60095481565b6000600560008473ffffffffffffffffffffffffffffffffffffffff1673ffffffffffffffffffffffffffffffffffffffff16815260200190815260200160002060008373ffffffffffffffffffffffffffffffffffffffff1673ffffffffffffffffffffffffffffffffffffffff16815260200190815260200160002060009054906101000a900460ff16905092915050565b600b6020528060005260406000206000915090505481565b611c56612230565b600073ffffffffffffffffffffffffffffffffffffffff168173ffffffffffffffffffffffffffffffffffffffff161415611cc6576040517f08c379a0000000000000000000000000000000000000000000000000000000008152600401611cbd90613cc2565b60405180910390fd5b611ccf81612345565b50565b60007f01ffc9a7000000000000000000000000000000000000000000000000000000007bffffffffffffffffffffffffffffffffffffffffffffffffffffffff1916827bffffffffffffffffffffffffffffffffffffffffffffffffffffffff1916149050919050565b611d4581612718565b611d84576040517f08c379a0000000000000000000000000000000000000000000000000000000008152600401611d7b90613ee2565b60405180910390fd5b50565b600033905090565b816004600083815260200190815260200160002060006101000a81548173ffffffffffffffffffffffffffffffffffffffff021916908373ffffffffffffffffffffffffffffffffffffffff160217905550808273ffffffffffffffffffffffffffffffffffffffff16611e02836114a7565b73ffffffffffffffffffffffffffffffffffffffff167f8c5be1e5ebec7d5bd14f71427d1e84f3dd0314c0f7b2291e5b200ac8c7c3b92560405160405180910390a45050565b600080611e54836114a7565b90508073ffffffffffffffffffffffffffffffffffffffff168473ffffffffffffffffffffffffffffffffffffffff161480611e965750611e958185611ba2565b5b80611ed457508373ffffffffffffffffffffffffffffffffffffffff16611ebc846109e5565b73ffffffffffffffffffffffffffffffffffffffff16145b91505092915050565b8273ffffffffffffffffffffffffffffffffffffffff16611efd826114a7565b73ffffffffffffffffffffffffffffffffffffffff1614611f53576040517f08c379a0000000000000000000000000000000000000000000000000000000008152600401611f4a90613d02565b60405180910390fd5b600073ffffffffffffffffffffffffffffffffffffffff168273ffffffffffffffffffffffffffffffffffffffff161415611fc3576040517f08c379a0000000000000000000000000000000000000000000000000000000008152600401611fba90613d62565b60405180910390fd5b611fd08383836001612759565b8273ffffffffffffffffffffffffffffffffffffffff16611ff0826114a7565b73ffffffffffffffffffffffffffffffffffffffff1614612046576040517f08c379a000000000000000000000000000000000000000000000000000000000815260040161203d90613d02565b60405180910390fd5b6004600082815260200190815260200160002060006101000a81549073ffffffffffffffffffffffffffffffffffffffff02191690556001600360008573ffffffffffffffffffffffffffffffffffffffff1673ffffffffffffffffffffffffffffffffffffffff168152602001908152602001600020600082825403925050819055506001600360008473ffffffffffffffffffffffffffffffffffffffff1673ffffffffffffffffffffffffffffffffffffffff16815260200190815260200160002060008282540192505081905550816002600083815260200190815260200160002060006101000a81548173ffffffffffffffffffffffffffffffffffffffff021916908373ffffffffffffffffffffffffffffffffffffffff160217905550808273ffffffffffffffffffffffffffffffffffffffff168473ffffffffffffffffffffffffffffffffffffffff167fddf252ad1be2c89b69c2b068fc378daa952ba7f163c4a11628f55a4df523b3ef60405160405180910390a46121d2838383600161287f565b505050565b6001816000016000828254019250508190555050565b600081600001549050919050565b612215828260405180602001604052806000815250612885565b5050565b60008261222685846128e0565b1490509392505050565b612238611d87565b73ffffffffffffffffffffffffffffffffffffffff16612256611646565b73ffffffffffffffffffffffffffffffffffffffff16146122ac576040517f08c379a00000000000000000000000000000000000000000000000000000000081526004016122a390613e62565b60405180910390fd5b565b600260075414156122f4576040517f08c379a00000000000000000000000000000000000000000000000000000000081526004016122eb90613f62565b60405180910390fd5b6002600781905550565b6001600781905550565b60006002600083815260200190815260200160002060009054906101000a900473ffffffffffffffffffffffffffffffffffffffff169050919050565b6000600660009054906101000a900473ffffffffffffffffffffffffffffffffffffffff16905081600660006101000a81548173ffffffffffffffffffffffffffffffffffffffff021916908373ffffffffffffffffffffffffffffffffffffffff1602179055508173ffffffffffffffffffffffffffffffffffffffff168173ffffffffffffffffffffffffffffffffffffffff167f8be0079c531659141344cd1fd0a4f28419497f9722a3daafe3b4186f6b6457e060405160405180910390a35050565b8173ffffffffffffffffffffffffffffffffffffffff168373ffffffffffffffffffffffffffffffffffffffff16141561247a576040517f08c379a000000000000000000000000000000000000000000000000000000000815260040161247190613d82565b60405180910390fd5b80600560008573ffffffffffffffffffffffffffffffffffffffff1673ffffffffffffffffffffffffffffffffffffffff16815260200190815260200160002060008473ffffffffffffffffffffffffffffffffffffffff1673ffffffffffffffffffffffffffffffffffffffff16815260200190815260200160002060006101000a81548160ff0219169083151502179055508173ffffffffffffffffffffffffffffffffffffffff168373ffffffffffffffffffffffffffffffffffffffff167f17307eab39ab6107e8899845ad3d59bd9653f200f220920489ca2b5937696c318360405161256b9190613bc5565b60405180910390a3505050565b612583848484611edd565b61258f8484848461295c565b6125ce576040517f08c379a00000000000000000000000000000000000000000000000000000000081526004016125c590613ca2565b60405180910390fd5b50505050565b6060604051806060016040528060368152602001614b4f60369139905090565b60606000600161260384612af3565b01905060008167ffffffffffffffff811115612648577f4e487b7100000000000000000000000000000000000000000000000000000000600052604160045260246000fd5b6040519080825280601f01601f19166020018201604052801561267a5781602001600182028036833780820191505090505b509050600082602001820190505b60011561270d578080600190039150507f3031323334353637383961626364656600000000000000000000000000000000600a86061a8153600a85816126f7577f4e487b7100000000000000000000000000000000000000000000000000000000600052601260045260246000fd5b04945060008514156127085761270d565b612688565b819350505050919050565b60008073ffffffffffffffffffffffffffffffffffffffff1661273a83612308565b73ffffffffffffffffffffffffffffffffffffffff1614159050919050565b600181111561287957600073ffffffffffffffffffffffffffffffffffffffff168473ffffffffffffffffffffffffffffffffffffffff16146127ed5780600360008673ffffffffffffffffffffffffffffffffffffffff1673ffffffffffffffffffffffffffffffffffffffff16815260200190815260200160002060008282546127e59190614183565b925050819055505b600073ffffffffffffffffffffffffffffffffffffffff168373ffffffffffffffffffffffffffffffffffffffff16146128785780600360008573ffffffffffffffffffffffffffffffffffffffff1673ffffffffffffffffffffffffffffffffffffffff168152602001908152602001600020600082825461287091906140d3565b925050819055505b5b50505050565b50505050565b61288f8383612d2a565b61289c600084848461295c565b6128db576040517f08c379a00000000000000000000000000000000000000000000000000000000081526004016128d290613ca2565b60405180910390fd5b505050565b60008082905060005b84518110156129515761293c8286838151811061292f577f4e487b7100000000000000000000000000000000000000000000000000000000600052603260045260246000fd5b6020026020010151612f48565b91508080612949906142da565b9150506128e9565b508091505092915050565b600061297d8473ffffffffffffffffffffffffffffffffffffffff16612f73565b15612ae6578373ffffffffffffffffffffffffffffffffffffffff1663150b7a026129a6611d87565b8786866040518563ffffffff1660e01b81526004016129c89493929190613b79565b602060405180830381600087803b1580156129e257600080fd5b505af1925050508015612a1357506040513d601f19601f82011682018060405250810190612a1091906134d5565b60015b612a96573d8060008114612a43576040519150601f19603f3d011682016040523d82523d6000602084013e612a48565b606091505b50600081511415612a8e576040517f08c379a0000000000000000000000000000000000000000000000000000000008152600401612a8590613ca2565b60405180910390fd5b805181602001fd5b63150b7a0260e01b7bffffffffffffffffffffffffffffffffffffffffffffffffffffffff1916817bffffffffffffffffffffffffffffffffffffffffffffffffffffffff191614915050612aeb565b600190505b949350505050565b600080600090507a184f03e93ff9f4daa797ed6e38ed64bf6a1f0100000000000000008310612b77577a184f03e93ff9f4daa797ed6e38ed64bf6a1f0100000000000000008381612b6d577f4e487b7100000000000000000000000000000000000000000000000000000000600052601260045260246000fd5b0492506040810190505b6d04ee2d6d415b85acef81000000008310612bda576d04ee2d6d415b85acef81000000008381612bd0577f4e487b7100000000000000000000000000000000000000000000000000000000600052601260045260246000fd5b0492506020810190505b662386f26fc100008310612c2f57662386f26fc100008381612c25577f4e487b7100000000000000000000000000000000000000000000000000000000600052601260045260246000fd5b0492506010810190505b6305f5e1008310612c7e576305f5e1008381612c74577f4e487b7100000000000000000000000000000000000000000000000000000000600052601260045260246000fd5b0492506008810190505b6127108310612cc9576127108381612cbf577f4e487b7100000000000000000000000000000000000000000000000000000000600052601260045260246000fd5b0492506004810190505b60648310612d125760648381612d08577f4e487b7100000000000000000000000000000000000000000000000000000000600052601260045260246000fd5b0492506002810190505b600a8310612d21576001810190505b80915050919050565b600073ffffffffffffffffffffffffffffffffffffffff168273ffffffffffffffffffffffffffffffffffffffff161415612d9a576040517f08c379a0000000000000000000000000000000000000000000000000000000008152600401612d9190613e42565b60405180910390fd5b612da381612718565b15612de3576040517f08c379a0000000000000000000000000000000000000000000000000000000008152600401612dda90613d22565b60405180910390fd5b612df1600083836001612759565b612dfa81612718565b15612e3a576040517f08c379a0000000000000000000000000000000000000000000000000000000008152600401612e3190613d22565b60405180910390fd5b6001600360008473ffffffffffffffffffffffffffffffffffffffff1673ffffffffffffffffffffffffffffffffffffffff16815260200190815260200160002060008282540192505081905550816002600083815260200190815260200160002060006101000a81548173ffffffffffffffffffffffffffffffffffffffff021916908373ffffffffffffffffffffffffffffffffffffffff160217905550808273ffffffffffffffffffffffffffffffffffffffff16600073ffffffffffffffffffffffffffffffffffffffff167fddf252ad1be2c89b69c2b068fc378daa952ba7f163c4a11628f55a4df523b3ef60405160405180910390a4612f4460008383600161287f565b5050565b6000818310612f6057612f5b8284612f96565b612f6b565b612f6a8383612f96565b5b905092915050565b6000808273ffffffffffffffffffffffffffffffffffffffff163b119050919050565b600082600052816020526040600020905092915050565b828054612fb990614277565b90600052602060002090601f016020900481019282612fdb5760008555613022565b82601f10612ff457805160ff1916838001178555613022565b82800160010185558215613022579182015b82811115613021578251825591602001919060010190613006565b5b50905061302f9190613033565b5090565b5b8082111561304c576000816000905550600101613034565b5090565b600061306361305e84613fe2565b613fbd565b9050808382526020820190508285602086028201111561308257600080fd5b60005b858110156130b25781613098888261318c565b845260208401935060208301925050600181019050613085565b5050509392505050565b60006130cf6130ca8461400e565b613fbd565b9050828152602081018484840111156130e757600080fd5b6130f2848285614235565b509392505050565b600061310d6131088461403f565b613fbd565b90508281526020810184848401111561312557600080fd5b613130848285614235565b509392505050565b60008135905061314781614adb565b92915050565b600082601f83011261315e57600080fd5b813561316e848260208601613050565b91505092915050565b60008135905061318681614af2565b92915050565b60008135905061319b81614b09565b92915050565b6000813590506131b081614b20565b92915050565b6000815190506131c581614b20565b92915050565b600082601f8301126131dc57600080fd5b81356131ec8482602086016130bc565b91505092915050565b600082601f83011261320657600080fd5b81356132168482602086016130fa565b91505092915050565b60008135905061322e81614b37565b92915050565b60006020828403121561324657600080fd5b600061325484828501613138565b91505092915050565b6000806040838503121561327057600080fd5b600061327e85828601613138565b925050602061328f85828601613138565b9150509250929050565b6000806000606084860312156132ae57600080fd5b60006132bc86828701613138565b93505060206132cd86828701613138565b92505060406132de8682870161321f565b9150509250925092565b600080600080608085870312156132fe57600080fd5b600061330c87828801613138565b945050602061331d87828801613138565b935050604061332e8782880161321f565b925050606085013567ffffffffffffffff81111561334b57600080fd5b613357878288016131cb565b91505092959194509250565b6000806040838503121561337657600080fd5b600061338485828601613138565b925050602061339585828601613177565b9150509250929050565b600080604083850312156133b257600080fd5b60006133c085828601613138565b92505060206133d18582860161321f565b9150509250929050565b6000602082840312156133ed57600080fd5b600082013567ffffffffffffffff81111561340757600080fd5b6134138482850161314d565b91505092915050565b60008060006060848603121561343157600080fd5b600084013567ffffffffffffffff81111561344b57600080fd5b6134578682870161314d565b93505060206134688682870161321f565b92505060406134798682870161321f565b9150509250925092565b60006020828403121561349557600080fd5b60006134a38482850161318c565b91505092915050565b6000602082840312156134be57600080fd5b60006134cc848285016131a1565b91505092915050565b6000602082840312156134e757600080fd5b60006134f5848285016131b6565b91505092915050565b60006020828403121561351057600080fd5b600082013567ffffffffffffffff81111561352a57600080fd5b613536848285016131f5565b91505092915050565b60006020828403121561355157600080fd5b600061355f8482850161321f565b91505092915050565b613571816141b7565b82525050565b613588613583826141b7565b614323565b82525050565b613597816141c9565b82525050565b60006135a882614085565b6135b2818561409b565b93506135c2818560208601614244565b6135cb816143de565b840191505092915050565b600081546135e381614277565b6135ed81866140ac565b9450600182166000811461360857600181146136195761364c565b60ff1983168652818601935061364c565b61362285614070565b60005b8381101561364457815481890152600182019150602081019050613625565b838801955050505b50505092915050565b600061366082614090565b61366a81856140b7565b935061367a818560208601614244565b613683816143de565b840191505092915050565b600061369982614090565b6136a381856140c8565b93506136b3818560208601614244565b80840191505092915050565b60006136cc6023836140b7565b91506136d7826143fc565b604082019050919050565b60006136ef602d836140b7565b91506136fa8261444b565b604082019050919050565b6000613712602f836140b7565b915061371d8261449a565b604082019050919050565b6000613735601d836140b7565b9150613740826144e9565b602082019050919050565b60006137586021836140b7565b915061376382614512565b604082019050919050565b600061377b6032836140b7565b915061378682614561565b604082019050919050565b600061379e6026836140b7565b91506137a9826145b0565b604082019050919050565b60006137c16016836140b7565b91506137cc826145ff565b602082019050919050565b60006137e46025836140b7565b91506137ef82614628565b604082019050919050565b6000613807601c836140b7565b915061381282614677565b602082019050919050565b600061382a6014836140b7565b9150613835826146a0565b602082019050919050565b600061384d6024836140b7565b9150613858826146c9565b604082019050919050565b60006138706019836140b7565b915061387b82614718565b602082019050919050565b60006138936015836140b7565b915061389e82614741565b602082019050919050565b60006138b66022836140b7565b91506138c18261476a565b604082019050919050565b60006138d9602b836140b7565b91506138e4826147b9565b604082019050919050565b60006138fc6021836140b7565b915061390782614808565b604082019050919050565b600061391f6029836140b7565b915061392a82614857565b604082019050919050565b60006139426020836140b7565b915061394d826148a6565b602082019050919050565b60006139656020836140b7565b9150613970826148cf565b602082019050919050565b60006139886026836140b7565b9150613993826148f8565b604082019050919050565b60006139ab6014836140b7565b91506139b682614947565b602082019050919050565b60006139ce601c836140b7565b91506139d982614970565b602082019050919050565b60006139f16018836140b7565b91506139fc82614999565b602082019050919050565b6000613a14600e836140b7565b9150613a1f826149c2565b602082019050919050565b6000613a376021836140b7565b9150613a42826149eb565b604082019050919050565b6000613a5a603d836140b7565b9150613a6582614a3a565b604082019050919050565b6000613a7d601f836140b7565b9150613a8882614a89565b602082019050919050565b6000613aa06017836140b7565b9150613aab82614ab2565b602082019050919050565b613abf8161422b565b82525050565b613ad6613ad18261422b565b614347565b82525050565b6000613ae88284613577565b60148201915081905092915050565b6000613b038285613577565b601482019150613b138284613ac5565b6020820191508190509392505050565b6000613b2f82846135d6565b915081905092915050565b6000613b46828561368e565b9150613b52828461368e565b91508190509392505050565b6000602082019050613b736000830184613568565b92915050565b6000608082019050613b8e6000830187613568565b613b9b6020830186613568565b613ba86040830185613ab6565b8181036060830152613bba818461359d565b905095945050505050565b6000602082019050613bda600083018461358e565b92915050565b60006020820190508181036000830152613bfa8184613655565b905092915050565b60006020820190508181036000830152613c1b816136bf565b9050919050565b60006020820190508181036000830152613c3b816136e2565b9050919050565b60006020820190508181036000830152613c5b81613705565b9050919050565b60006020820190508181036000830152613c7b81613728565b9050919050565b60006020820190508181036000830152613c9b8161374b565b9050919050565b60006020820190508181036000830152613cbb8161376e565b9050919050565b60006020820190508181036000830152613cdb81613791565b9050919050565b60006020820190508181036000830152613cfb816137b4565b9050919050565b60006020820190508181036000830152613d1b816137d7565b9050919050565b60006020820190508181036000830152613d3b816137fa565b9050919050565b60006020820190508181036000830152613d5b8161381d565b9050919050565b60006020820190508181036000830152613d7b81613840565b9050919050565b60006020820190508181036000830152613d9b81613863565b9050919050565b60006020820190508181036000830152613dbb81613886565b9050919050565b60006020820190508181036000830152613ddb816138a9565b9050919050565b60006020820190508181036000830152613dfb816138cc565b9050919050565b60006020820190508181036000830152613e1b816138ef565b9050919050565b60006020820190508181036000830152613e3b81613912565b9050919050565b60006020820190508181036000830152613e5b81613935565b9050919050565b60006020820190508181036000830152613e7b81613958565b9050919050565b60006020820190508181036000830152613e9b8161397b565b9050919050565b60006020820190508181036000830152613ebb8161399e565b9050919050565b60006020820190508181036000830152613edb816139c1565b9050919050565b60006020820190508181036000830152613efb816139e4565b9050919050565b60006020820190508181036000830152613f1b81613a07565b9050919050565b60006020820190508181036000830152613f3b81613a2a565b9050919050565b60006020820190508181036000830152613f5b81613a4d565b9050919050565b60006020820190508181036000830152613f7b81613a70565b9050919050565b60006020820190508181036000830152613f9b81613a93565b9050919050565b6000602082019050613fb76000830184613ab6565b92915050565b6000613fc7613fd8565b9050613fd382826142a9565b919050565b6000604051905090565b600067ffffffffffffffff821115613ffd57613ffc6143af565b5b602082029050602081019050919050565b600067ffffffffffffffff821115614029576140286143af565b5b614032826143de565b9050602081019050919050565b600067ffffffffffffffff82111561405a576140596143af565b5b614063826143de565b9050602081019050919050565b60008190508160005260206000209050919050565b600081519050919050565b600081519050919050565b600082825260208201905092915050565b600081905092915050565b600082825260208201905092915050565b600081905092915050565b60006140de8261422b565b91506140e98361422b565b9250827fffffffffffffffffffffffffffffffffffffffffffffffffffffffffffffffff0382111561411e5761411d614351565b5b828201905092915050565b60006141348261422b565b915061413f8361422b565b9250817fffffffffffffffffffffffffffffffffffffffffffffffffffffffffffffffff048311821515161561417857614177614351565b5b828202905092915050565b600061418e8261422b565b91506141998361422b565b9250828210156141ac576141ab614351565b5b828203905092915050565b60006141c28261420b565b9050919050565b60008115159050919050565b6000819050919050565b60007fffffffff0000000000000000000000000000000000000000000000000000000082169050919050565b600073ffffffffffffffffffffffffffffffffffffffff82169050919050565b6000819050919050565b82818337600083830152505050565b60005b83811015614262578082015181840152602081019050614247565b83811115614271576000848401525b50505050565b6000600282049050600182168061428f57607f821691505b602082108114156142a3576142a2614380565b5b50919050565b6142b2826143de565b810181811067ffffffffffffffff821117156142d1576142d06143af565b5b80604052505050565b60006142e58261422b565b91507fffffffffffffffffffffffffffffffffffffffffffffffffffffffffffffffff82141561431857614317614351565b5b600182019050919050565b600061432e82614335565b9050919050565b6000614340826143ef565b9050919050565b6000819050919050565b7f4e487b7100000000000000000000000000000000000000000000000000000000600052601160045260246000fd5b7f4e487b7100000000000000000000000000000000000000000000000000000000600052602260045260246000fd5b7f4e487b7100000000000000000000000000000000000000000000000000000000600052604160045260246000fd5b6000601f19601f8301169050919050565b60008160601b9050919050565b7f4d696e74696e6720657863656564207468652073616c6520616c6c6f6361746960008201527f6f6e2e0000000000000000000000000000000000000000000000000000000000602082015250565b7f4552433732313a2063616c6c6572206973206e6f7420746f6b656e206f776e6560008201527f72206f7220617070726f76656400000000000000000000000000000000000000602082015250565b7f43726561746f722063616e206f6e6c79206d696e7420647572696e672050756260008201527f6c69632053616c6520706572696f640000000000000000000000000000000000602082015250565b7f596f7520617265206e6f74206f6e207468652077686974656c6973742e000000600082015250565b7f596f7520617265206e6f74206f6e20746865207265736572766564206c69737460008201527f2e00000000000000000000000000000000000000000000000000000000000000602082015250565b7f4552433732313a207472616e7366657220746f206e6f6e20455243373231526560008201527f63656976657220696d706c656d656e7465720000000000000000000000000000602082015250565b7f4f776e61626c653a206e6577206f776e657220697320746865207a65726f206160008201527f6464726573730000000000000000000000000000000000000000000000000000602082015250565b7f50726573616c6520706572696f64206973206f76657200000000000000000000600082015250565b7f4552433732313a207472616e736665722066726f6d20696e636f72726563742060008201527f6f776e6572000000000000000000000000000000000000000000000000000000602082015250565b7f4552433732313a20746f6b656e20616c7265616479206d696e74656400000000600082015250565b7f5365742074686520707269636520666972737421000000000000000000000000600082015250565b7f4552433732313a207472616e7366657220746f20746865207a65726f2061646460008201527f7265737300000000000000000000000000000000000000000000000000000000602082015250565b7f4552433732313a20617070726f766520746f2063616c6c657200000000000000600082015250565b7f4974656d206973206e6f7420617661696c61626c650000000000000000000000600082015250565b7f596f75206861766520636c61696d656420746865207265736572766564206d6960008201527f6e74000000000000000000000000000000000000000000000000000000000000602082015250565b7f4d696e74696e6720616d6f756e74206578636565647320616c6c6f77616e636560008201527f207065722077616c6c6574000000000000000000000000000000000000000000602082015250565b7f4974732063757272656e746c79206e6f74206f70656e20666f72207075626c6960008201527f6300000000000000000000000000000000000000000000000000000000000000602082015250565b7f4552433732313a2061646472657373207a65726f206973206e6f74206120766160008201527f6c6964206f776e65720000000000000000000000000000000000000000000000602082015250565b7f4552433732313a206d696e7420746f20746865207a65726f2061646472657373600082015250565b7f4f776e61626c653a2063616c6c6572206973206e6f7420746865206f776e6572600082015250565b7f4d696e74696e6720657863656564207468652070726573616c6520616c6c6f6360008201527f6174696f6e2e0000000000000000000000000000000000000000000000000000602082015250565b7f696e73756666696369656e742062616c616e6365000000000000000000000000600082015250565b7f52657365727665642073616c6520706572696f64206973206f76657200000000600082015250565b7f4552433732313a20696e76616c696420746f6b656e2049440000000000000000600082015250565b7f6e6f20657468657220666f756e64000000000000000000000000000000000000600082015250565b7f4552433732313a20617070726f76616c20746f2063757272656e74206f776e6560008201527f7200000000000000000000000000000000000000000000000000000000000000602082015250565b7f4552433732313a20617070726f76652063616c6c6572206973206e6f7420746f60008201527f6b656e206f776e6572206f7220617070726f76656420666f7220616c6c000000602082015250565b7f5265656e7472616e637947756172643a207265656e7472616e742063616c6c00600082015250565b7f4d617820616c6c6f77616e63652065786365656465642e000000000000000000600082015250565b614ae4816141b7565b8114614aef57600080fd5b50565b614afb816141c9565b8114614b0657600080fd5b50565b614b12816141d5565b8114614b1d57600080fd5b50565b614b29816141df565b8114614b3457600080fd5b50565b614b408161422b565b8114614b4b57600080fd5b5056fe697066733a2f2f516d596d573933685044534232384333586a6575536575576458715179506139753666766867766b6250325074332fa26469706673582212200e0496639f639b681f1d77692a3451517bdf0ec24308032872835c47dba9d14864736f6c63430008040033",
  "linkReferences": {},
  "deployedLinkReferences": {}
}