{
  "_format": "hh-sol-artifact-1",
  "contractName": "FuzzNFT",
  "sourceName": "contracts/FuzzNFT.sol",
  "abi": [
    {
      "inputs": [],
      "stateMutability": "nonpayable",
      "type": "constructor"
    },
    {
      "anonymous": false,
      "inputs": [
        {
          "indexed": true,
          "internalType": "address",
          "name": "owner",
          "type": "address"
        },
        {
          "indexed": true,
          "internalType": "address",
          "name": "approved",
          "type": "address"
        },
        {
          "indexed": true,
          "internalType": "uint256",
          "name": "tokenId",
          "type": "uint256"
        }
      ],
      "name": "Approval",
      "type": "event"
    },
    {
      "anonymous": false,
      "inputs": [
        {
          "indexed": true,
          "internalType": "address",
          "name": "owner",
          "type": "address"
        },
        {
          "indexed": true,
          "internalType": "address",
          "name": "operator",
          "type": "address"
        },
        {
          "indexed": false,
          "internalType": "bool",
          "name": "approved",
          "type": "bool"
        }
      ],
      "name": "ApprovalForAll",
      "type": "event"
    },
    {
      "anonymous": false,
      "inputs": [
        {
          "indexed": true,
          "internalType": "address",
          "name": "previousOwner",
          "type": "address"
        },
        {
          "indexed": true,
          "internalType": "address",
          "name": "newOwner",
          "type": "address"
        }
      ],
      "name": "OwnershipTransferred",
      "type": "event"
    },
    {
      "anonymous": false,
      "inputs": [
        {
          "indexed": true,
          "internalType": "address",
          "name": "from",
          "type": "address"
        },
        {
          "indexed": true,
          "internalType": "address",
          "name": "to",
          "type": "address"
        },
        {
          "indexed": true,
          "internalType": "uint256",
          "name": "tokenId",
          "type": "uint256"
        }
      ],
      "name": "Transfer",
      "type": "event"
    },
    {
      "inputs": [],
      "name": "MAX_QTY_PER_MINTER",
      "outputs": [
        {
          "internalType": "uint256",
          "name": "",
          "type": "uint256"
        }
      ],
      "stateMutability": "view",
      "type": "function"
    },
    {
      "inputs": [],
      "name": "PRE_SALES_PRICE",
      "outputs": [
        {
          "internalType": "uint256",
          "name": "",
          "type": "uint256"
        }
      ],
      "stateMutability": "view",
      "type": "function"
    },
    {
      "inputs": [],
      "name": "PUBLIC_SALES_PRICE",
      "outputs": [
        {
          "internalType": "uint256",
          "name": "",
          "type": "uint256"
        }
      ],
      "stateMutability": "view",
      "type": "function"
    },
    {
      "inputs": [
        {
          "internalType": "address",
          "name": "to",
          "type": "address"
        },
        {
          "internalType": "uint256",
          "name": "tokenId",
          "type": "uint256"
        }
      ],
      "name": "approve",
      "outputs": [],
      "stateMutability": "nonpayable",
      "type": "function"
    },
    {
      "inputs": [
        {
          "internalType": "address",
          "name": "owner",
          "type": "address"
        }
      ],
      "name": "balanceOf",
      "outputs": [
        {
          "internalType": "uint256",
          "name": "",
          "type": "uint256"
        }
      ],
      "stateMutability": "view",
      "type": "function"
    },
    {
      "inputs": [
        {
          "internalType": "uint256",
          "name": "tokenId",
          "type": "uint256"
        }
      ],
      "name": "getApproved",
      "outputs": [
        {
          "internalType": "address",
          "name": "",
          "type": "address"
        }
      ],
      "stateMutability": "view",
      "type": "function"
    },
    {
      "inputs": [],
      "name": "getPrice",
      "outputs": [
        {
          "internalType": "uint256",
          "name": "",
          "type": "uint256"
        }
      ],
      "stateMutability": "view",
      "type": "function"
    },
    {
      "inputs": [
        {
          "internalType": "address",
          "name": "owner",
          "type": "address"
        },
        {
          "internalType": "address",
          "name": "operator",
          "type": "address"
        }
      ],
      "name": "isApprovedForAll",
      "outputs": [
        {
          "internalType": "bool",
          "name": "",
          "type": "bool"
        }
      ],
      "stateMutability": "view",
      "type": "function"
    },
    {
      "inputs": [],
      "name": "name",
      "outputs": [
        {
          "internalType": "string",
          "name": "",
          "type": "string"
        }
      ],
      "stateMutability": "view",
      "type": "function"
    },
    {
      "inputs": [],
      "name": "owner",
      "outputs": [
        {
          "internalType": "address",
          "name": "",
          "type": "address"
        }
      ],
      "stateMutability": "view",
      "type": "function"
    },
    {
      "inputs": [
        {
          "internalType": "uint256",
          "name": "tokenId",
          "type": "uint256"
        }
      ],
      "name": "ownerOf",
      "outputs": [
        {
          "internalType": "address",
          "name": "",
          "type": "address"
        }
      ],
      "stateMutability": "view",
      "type": "function"
    },
    {
      "inputs": [
        {
          "internalType": "bytes32[]",
          "name": "proof",
          "type": "bytes32[]"
        },
        {
          "internalType": "uint256",
          "name": "qty",
          "type": "uint256"
        },
        {
          "internalType": "uint256",
          "name": "allowance",
          "type": "uint256"
        }
      ],
      "name": "presaleMint",
      "outputs": [],
      "stateMutability": "payable",
      "type": "function"
    },
    {
      "inputs": [
        {
          "internalType": "uint256",
          "name": "qty",
          "type": "uint256"
        }
      ],
      "name": "publicMint",
      "outputs": [],
      "stateMutability": "payable",
      "type": "function"
    },
    {
      "inputs": [
        {
          "internalType": "address",
          "name": "",
          "type": "address"
        }
      ],
      "name": "publicMintedAmount",
      "outputs": [
        {
          "internalType": "uint256",
          "name": "",
          "type": "uint256"
        }
      ],
      "stateMutability": "view",
      "type": "function"
    },
    {
      "inputs": [],
      "name": "renounceOwnership",
      "outputs": [],
      "stateMutability": "nonpayable",
      "type": "function"
    },
    {
      "inputs": [
        {
          "internalType": "address",
          "name": "",
          "type": "address"
        }
      ],
      "name": "reservedClaimed",
      "outputs": [
        {
          "internalType": "bool",
          "name": "",
          "type": "bool"
        }
      ],
      "stateMutability": "view",
      "type": "function"
    },
    {
      "inputs": [
        {
          "internalType": "bytes32[]",
          "name": "proof",
          "type": "bytes32[]"
        }
      ],
      "name": "reservedMint",
      "outputs": [],
      "stateMutability": "payable",
      "type": "function"
    },
    {
      "inputs": [
        {
          "internalType": "address",
          "name": "from",
          "type": "address"
        },
        {
          "internalType": "address",
          "name": "to",
          "type": "address"
        },
        {
          "internalType": "uint256",
          "name": "tokenId",
          "type": "uint256"
        }
      ],
      "name": "safeTransferFrom",
      "outputs": [],
      "stateMutability": "nonpayable",
      "type": "function"
    },
    {
      "inputs": [
        {
          "internalType": "address",
          "name": "from",
          "type": "address"
        },
        {
          "internalType": "address",
          "name": "to",
          "type": "address"
        },
        {
          "internalType": "uint256",
          "name": "tokenId",
          "type": "uint256"
        },
        {
          "internalType": "bytes",
          "name": "data",
          "type": "bytes"
        }
      ],
      "name": "safeTransferFrom",
      "outputs": [],
      "stateMutability": "nonpayable",
      "type": "function"
    },
    {
      "inputs": [
        {
          "internalType": "address",
          "name": "operator",
          "type": "address"
        },
        {
          "internalType": "bool",
          "name": "approved",
          "type": "bool"
        }
      ],
      "name": "setApprovalForAll",
      "outputs": [],
      "stateMutability": "nonpayable",
      "type": "function"
    },
    {
      "inputs": [
        {
          "internalType": "uint256",
          "name": "_price",
          "type": "uint256"
        }
      ],
      "name": "setPreSalePrice",
      "outputs": [],
      "stateMutability": "nonpayable",
      "type": "function"
    },
    {
      "inputs": [
        {
          "internalType": "uint256",
          "name": "_price",
          "type": "uint256"
        }
      ],
      "name": "setPublicSalePrice",
      "outputs": [],
      "stateMutability": "nonpayable",
      "type": "function"
    },
    {
      "inputs": [
        {
          "internalType": "bytes32",
          "name": "_reservedMerkleRoot",
          "type": "bytes32"
        }
      ],
      "name": "setReservedMerkleroot",
      "outputs": [],
      "stateMutability": "nonpayable",
      "type": "function"
    },
    {
      "inputs": [
        {
          "internalType": "string",
          "name": "_status",
          "type": "string"
        }
      ],
      "name": "setStatus",
      "outputs": [],
      "stateMutability": "nonpayable",
      "type": "function"
    },
    {
      "inputs": [
        {
          "internalType": "bytes32",
          "name": "_whitelistMerkleRoot",
          "type": "bytes32"
        }
      ],
      "name": "setWhitelistMerkleRoot",
      "outputs": [],
      "stateMutability": "nonpayable",
      "type": "function"
    },
    {
      "inputs": [],
      "name": "status",
      "outputs": [
        {
          "internalType": "string",
          "name": "",
          "type": "string"
        }
      ],
      "stateMutability": "view",
      "type": "function"
    },
    {
      "inputs": [
        {
          "internalType": "bytes4",
          "name": "interfaceId",
          "type": "bytes4"
        }
      ],
      "name": "supportsInterface",
      "outputs": [
        {
          "internalType": "bool",
          "name": "",
          "type": "bool"
        }
      ],
      "stateMutability": "view",
      "type": "function"
    },
    {
      "inputs": [],
      "name": "symbol",
      "outputs": [
        {
          "internalType": "string",
          "name": "",
          "type": "string"
        }
      ],
      "stateMutability": "view",
      "type": "function"
    },
    {
      "inputs": [
        {
          "internalType": "uint256",
          "name": "tokenId",
          "type": "uint256"
        }
      ],
      "name": "tokenURI",
      "outputs": [
        {
          "internalType": "string",
          "name": "",
          "type": "string"
        }
      ],
      "stateMutability": "view",
      "type": "function"
    },
    {
      "inputs": [
        {
          "internalType": "address",
          "name": "from",
          "type": "address"
        },
        {
          "internalType": "address",
          "name": "to",
          "type": "address"
        },
        {
          "internalType": "uint256",
          "name": "tokenId",
          "type": "uint256"
        }
      ],
      "name": "transferFrom",
      "outputs": [],
      "stateMutability": "nonpayable",
      "type": "function"
    },
    {
      "inputs": [
        {
          "internalType": "address",
          "name": "newOwner",
          "type": "address"
        }
      ],
      "name": "transferOwnership",
      "outputs": [],
      "stateMutability": "nonpayable",
      "type": "function"
    },
    {
      "inputs": [
        {
          "internalType": "address",
          "name": "",
          "type": "address"
        }
      ],
      "name": "whitelistMintedAmount",
      "outputs": [
        {
          "internalType": "uint256",
          "name": "",
          "type": "uint256"
        }
      ],
      "stateMutability": "view",
      "type": "function"
    },
    {
      "inputs": [],
      "name": "withdraw",
      "outputs": [],
      "stateMutability": "nonpayable",
      "type": "function"
    }
  ],
  "bytecode": "0x6080604052606460085560006010553480156200001b57600080fd5b506040518060400160405280600a81526020017f46757a7a20546f6b656e000000000000000000000000000000000000000000008152506040518060400160405280600481526020017f46757a7a000000000000000000000000000000000000000000000000000000008152508160009080519060200190620000a0929190620001b8565b508060019080519060200190620000b9929190620001b8565b505050620000dc620000d0620000ea60201b60201c565b620000f260201b60201c565b6001600781905550620002cd565b600033905090565b6000600660009054906101000a900473ffffffffffffffffffffffffffffffffffffffff16905081600660006101000a81548173ffffffffffffffffffffffffffffffffffffffff021916908373ffffffffffffffffffffffffffffffffffffffff1602179055508173ffffffffffffffffffffffffffffffffffffffff168173ffffffffffffffffffffffffffffffffffffffff167f8be0079c531659141344cd1fd0a4f28419497f9722a3daafe3b4186f6b6457e060405160405180910390a35050565b828054620001c69062000268565b90600052602060002090601f016020900481019282620001ea576000855562000236565b82601f106200020557805160ff191683800117855562000236565b8280016001018555821562000236579182015b828111156200023557825182559160200191906001019062000218565b5b50905062000245919062000249565b5090565b5b80821115620002645760008160009055506001016200024a565b5090565b600060028204905060018216806200028157607f821691505b602082108114156200029857620002976200029e565b5b50919050565b7f4e487b7100000000000000000000000000000000000000000000000000000000600052602260045260246000fd5b6147e580620002dd6000396000f3fe6080604052600436106101ee5760003560e01c80637d2211d61161010d578063aaab1ba5116100a0578063c87b56dd1161006f578063c87b56dd146106aa578063d6eec46a146106e7578063e985e9c514610712578063ead29d4e1461074f578063f2fde38b1461078c576101ee565b8063aaab1ba514610611578063ac501c411461062d578063b88d4fde14610658578063bd32fb6614610681576101ee565b80638da5cb5b116100dc5780638da5cb5b1461056757806395d89b411461059257806398d5fdca146105bd578063a22cb465146105e8576101ee565b80637d2211d6146104c15780637d7eee42146104ea57806382afe55014610513578063886e0c101461053e576101ee565b80633c18c3da116101855780636352211e116101545780636352211e1461040757806370a0823114610444578063715018a614610481578063791a251914610498576101ee565b80633c18c3da1461036e5780633ccfd60b1461038a5780633e9c9ec2146103a157806342842e0e146103de576101ee565b80631fac2a35116101c15780631fac2a35146102c1578063200d2ed2146102fe57806323b872dd146103295780632db1154414610352576101ee565b806301ffc9a7146101f357806306fdde0314610230578063081812fc1461025b578063095ea7b314610298575b600080fd5b3480156101ff57600080fd5b5061021a6004803603810190610215919061320b565b6107b5565b60405161022791906138de565b60405180910390f35b34801561023c57600080fd5b50610245610897565b60405161025291906138f9565b60405180910390f35b34801561026757600080fd5b50610282600480360381019061027d919061329e565b610929565b60405161028f9190613877565b60405180910390f35b3480156102a457600080fd5b506102bf60048036038101906102ba91906130fe565b61096f565b005b3480156102cd57600080fd5b506102e860048036038101906102e39190612f93565b610a87565b6040516102f59190613c7b565b60405180910390f35b34801561030a57600080fd5b50610313610a9f565b60405161032091906138f9565b60405180910390f35b34801561033557600080fd5b50610350600480360381019061034b9190612ff8565b610b2d565b005b61036c6004803603810190610367919061329e565b610b8d565b005b6103886004803603810190610383919061317b565b610e51565b005b34801561039657600080fd5b5061039f611141565b005b3480156103ad57600080fd5b506103c860048036038101906103c39190612f93565b6111ec565b6040516103d591906138de565b60405180910390f35b3480156103ea57600080fd5b5061040560048036038101906104009190612ff8565b61120c565b005b34801561041357600080fd5b5061042e6004803603810190610429919061329e565b61122c565b60405161043b9190613877565b60405180910390f35b34801561045057600080fd5b5061046b60048036038101906104669190612f93565b6112b3565b6040516104789190613c7b565b60405180910390f35b34801561048d57600080fd5b5061049661136b565b005b3480156104a457600080fd5b506104bf60048036038101906104ba919061329e565b61137f565b005b3480156104cd57600080fd5b506104e860048036038101906104e3919061325d565b611391565b005b3480156104f657600080fd5b50610511600480360381019061050c919061329e565b6113b3565b005b34801561051f57600080fd5b506105286113c5565b6040516105359190613c7b565b60405180910390f35b34801561054a57600080fd5b50610565600480360381019061056091906131e2565b6113cb565b005b34801561057357600080fd5b5061057c6113dd565b6040516105899190613877565b60405180910390f35b34801561059e57600080fd5b506105a7611407565b6040516105b491906138f9565b60405180910390f35b3480156105c957600080fd5b506105d2611499565b6040516105df9190613c7b565b60405180910390f35b3480156105f457600080fd5b5061060f600480360381019061060a91906130c2565b61156b565b005b61062b6004803603810190610626919061313a565b611581565b005b34801561063957600080fd5b506106426117fd565b60405161064f9190613c7b565b60405180910390f35b34801561066457600080fd5b5061067f600480360381019061067a9190613047565b611802565b005b34801561068d57600080fd5b506106a860048036038101906106a391906131e2565b611864565b005b3480156106b657600080fd5b506106d160048036038101906106cc919061329e565b611876565b6040516106de91906138f9565b60405180910390f35b3480156106f357600080fd5b506106fc6118de565b6040516107099190613c7b565b60405180910390f35b34801561071e57600080fd5b5061073960048036038101906107349190612fbc565b6118e4565b60405161074691906138de565b60405180910390f35b34801561075b57600080fd5b5061077660048036038101906107719190612f93565b611978565b6040516107839190613c7b565b60405180910390f35b34801561079857600080fd5b506107b360048036038101906107ae9190612f93565b611990565b005b60007f80ac58cd000000000000000000000000000000000000000000000000000000007bffffffffffffffffffffffffffffffffffffffffffffffffffffffff1916827bffffffffffffffffffffffffffffffffffffffffffffffffffffffff1916148061088057507f5b5e139f000000000000000000000000000000000000000000000000000000007bffffffffffffffffffffffffffffffffffffffffffffffffffffffff1916827bffffffffffffffffffffffffffffffffffffffffffffffffffffffff1916145b80610890575061088f82611a14565b5b9050919050565b6060600080546108a690613f50565b80601f01602080910402602001604051908101604052809291908181526020018280546108d290613f50565b801561091f5780601f106108f45761010080835404028352916020019161091f565b820191906000526020600020905b81548152906001019060200180831161090257829003601f168201915b5050505050905090565b600061093482611a7e565b6004600083815260200190815260200160002060009054906101000a900473ffffffffffffffffffffffffffffffffffffffff169050919050565b600061097a8261122c565b90508073ffffffffffffffffffffffffffffffffffffffff168373ffffffffffffffffffffffffffffffffffffffff1614156109eb576040517f08c379a00000000000000000000000000000000000000000000000000000000081526004016109e290613bfb565b60405180910390fd5b8073ffffffffffffffffffffffffffffffffffffffff16610a0a611ac9565b73ffffffffffffffffffffffffffffffffffffffff161480610a395750610a3881610a33611ac9565b6118e4565b5b610a78576040517f08c379a0000000000000000000000000000000000000000000000000000000008152600401610a6f90613c1b565b60405180910390fd5b610a828383611ad1565b505050565b600c6020528060005260406000206000915090505481565b60118054610aac90613f50565b80601f0160208091040260200160405190810160405280929190818152602001828054610ad890613f50565b8015610b255780601f10610afa57610100808354040283529160200191610b25565b820191906000526020600020905b815481529060010190602001808311610b0857829003601f168201915b505050505081565b610b3e610b38611ac9565b82611b8a565b610b7d576040517f08c379a0000000000000000000000000000000000000000000000000000000008152600401610b749061393b565b60405180910390fd5b610b88838383611c1f565b505050565b6040518060400160405280600a81526020017f5075626c696353616c6500000000000000000000000000000000000000000000815250805190602001206011604051610bd9919061383c565b604051809103902014610c21576040517f08c379a0000000000000000000000000000000000000000000000000000000008152600401610c1890613adb565b60405180910390fd5b6000610c2b611499565b11610c6b576040517f08c379a0000000000000000000000000000000000000000000000000000000008152600401610c6290613a7b565b60405180910390fd5b600281600b60003373ffffffffffffffffffffffffffffffffffffffff1673ffffffffffffffffffffffffffffffffffffffff16815260200190815260200160002054610cb89190613dac565b1115610cf9576040517f08c379a0000000000000000000000000000000000000000000000000000000008152600401610cf090613abb565b60405180910390fd5b60085481601054610d0a9190613dac565b10610d4a576040517f08c379a0000000000000000000000000000000000000000000000000000000008152600401610d419061391b565b60405180910390fd5b80610d53611499565b610d5d9190613e02565b3414610d9e576040517f08c379a0000000000000000000000000000000000000000000000000000000008152600401610d9590613b7b565b60405180910390fd5b60005b81811015610df757610db36012611f19565b6000610dbf6012611f2f565b9050610dcb3382611f3d565b60106000815480929190610dde90613fb3565b9190505550508080610def90613fb3565b915050610da1565b5080600b60003373ffffffffffffffffffffffffffffffffffffffff1673ffffffffffffffffffffffffffffffffffffffff1681526020019081526020016000206000828254610e479190613dac565b9250508190555050565b6040518060400160405280600781526020017f50726553616c6500000000000000000000000000000000000000000000000000815250805190602001206011604051610e9d919061383c565b604051809103902014610ee5576040517f08c379a0000000000000000000000000000000000000000000000000000000008152600401610edc906139db565b60405180910390fd5b610f1a83600e543384604051602001610eff929190613810565b60405160208183030381529060405280519060200120611f5b565b610f59576040517f08c379a0000000000000000000000000000000000000000000000000000000008152600401610f509061395b565b60405180910390fd5b60085482601054610f6a9190613dac565b1115610fab576040517f08c379a0000000000000000000000000000000000000000000000000000000008152600401610fa290613b5b565b60405180910390fd5b8082600c60003373ffffffffffffffffffffffffffffffffffffffff1673ffffffffffffffffffffffffffffffffffffffff16815260200190815260200160002054610ff79190613dac565b1115611038576040517f08c379a000000000000000000000000000000000000000000000000000000000815260040161102f90613c5b565b60405180910390fd5b3482611042611499565b61104c9190613e02565b1461108c576040517f08c379a000000000000000000000000000000000000000000000000000000000815260040161108390613b7b565b60405180910390fd5b60005b828110156110e5576110a16012611f19565b60006110ad6012611f2f565b90506110b93382611f3d565b601060008154809291906110cc90613fb3565b91905055505080806110dd90613fb3565b91505061108f565b5081600c60003373ffffffffffffffffffffffffffffffffffffffff1673ffffffffffffffffffffffffffffffffffffffff16815260200190815260200160002060008282546111359190613dac565b92505081905550505050565b611149611f72565b611151611ff0565b60004711611194576040517f08c379a000000000000000000000000000000000000000000000000000000000815260040161118b90613bdb565b60405180910390fd5b61119c6113dd565b73ffffffffffffffffffffffffffffffffffffffff166108fc479081150290604051600060405180830381858888f193505050501580156111e1573d6000803e3d6000fd5b506111ea612040565b565b600d6020528060005260406000206000915054906101000a900460ff1681565b61122783838360405180602001604052806000815250611802565b505050565b6000806112388361204a565b9050600073ffffffffffffffffffffffffffffffffffffffff168173ffffffffffffffffffffffffffffffffffffffff1614156112aa576040517f08c379a00000000000000000000000000000000000000000000000000000000081526004016112a190613bbb565b60405180910390fd5b80915050919050565b60008073ffffffffffffffffffffffffffffffffffffffff168273ffffffffffffffffffffffffffffffffffffffff161415611324576040517f08c379a000000000000000000000000000000000000000000000000000000000815260040161131b90613afb565b60405180910390fd5b600360008373ffffffffffffffffffffffffffffffffffffffff1673ffffffffffffffffffffffffffffffffffffffff168152602001908152602001600020549050919050565b611373611f72565b61137d6000612087565b565b611387611f72565b80600a8190555050565b611399611f72565b80601190805190602001906113af929190612d0c565b5050565b6113bb611f72565b8060098190555050565b60095481565b6113d3611f72565b80600f8190555050565b6000600660009054906101000a900473ffffffffffffffffffffffffffffffffffffffff16905090565b60606001805461141690613f50565b80601f016020809104026020016040519081016040528092919081815260200182805461144290613f50565b801561148f5780601f106114645761010080835404028352916020019161148f565b820191906000526020600020905b81548152906001019060200180831161147257829003601f168201915b5050505050905090565b60006040518060400160405280600781526020017f50726553616c65000000000000000000000000000000000000000000000000008152508051906020012060116040516114e7919061383c565b604051809103902014156114ff576009549050611568565b6040518060400160405280600a81526020017f5075626c696353616c650000000000000000000000000000000000000000000081525080519060200120601160405161154b919061383c565b6040518091039020141561156357600a549050611568565b600090505b90565b61157d611576611ac9565b838361214d565b5050565b6040518060400160405280600c81526020017f526573657276656453616c6500000000000000000000000000000000000000008152508051906020012060116040516115cd919061383c565b604051809103902014611615576040517f08c379a000000000000000000000000000000000000000000000000000000000815260040161160c90613b9b565b60405180910390fd5b61164881600f543360405160200161162d91906137f5565b60405160208183030381529060405280519060200120611f5b565b611687576040517f08c379a000000000000000000000000000000000000000000000000000000000815260040161167e9061397b565b60405180910390fd5b60085460016010546116999190613dac565b11156116da576040517f08c379a00000000000000000000000000000000000000000000000000000000081526004016116d19061391b565b60405180910390fd5b600d60003373ffffffffffffffffffffffffffffffffffffffff1673ffffffffffffffffffffffffffffffffffffffff16815260200190815260200160002060009054906101000a900460ff1615611767576040517f08c379a000000000000000000000000000000000000000000000000000000000815260040161175e90613a9b565b60405180910390fd5b6001600d60003373ffffffffffffffffffffffffffffffffffffffff1673ffffffffffffffffffffffffffffffffffffffff16815260200190815260200160002060006101000a81548160ff0219169083151502179055506117c96012611f19565b60006117d56012611f2f565b90506117e13382611f3d565b601060008154809291906117f490613fb3565b91905055505050565b600281565b61181361180d611ac9565b83611b8a565b611852576040517f08c379a00000000000000000000000000000000000000000000000000000000081526004016118499061393b565b60405180910390fd5b61185e848484846122ba565b50505050565b61186c611f72565b80600e8190555050565b606061188182611a7e565b600061188b612316565b905060008151116118ab57604051806020016040528060008152506118d6565b806118b584612353565b6040516020016118c6929190613853565b6040516020818303038152906040525b915050919050565b600a5481565b6000600560008473ffffffffffffffffffffffffffffffffffffffff1673ffffffffffffffffffffffffffffffffffffffff16815260200190815260200160002060008373ffffffffffffffffffffffffffffffffffffffff1673ffffffffffffffffffffffffffffffffffffffff16815260200190815260200160002060009054906101000a900460ff16905092915050565b600b6020528060005260406000206000915090505481565b611998611f72565b600073ffffffffffffffffffffffffffffffffffffffff168173ffffffffffffffffffffffffffffffffffffffff161415611a08576040517f08c379a00000000000000000000000000000000000000000000000000000000081526004016119ff906139bb565b60405180910390fd5b611a1181612087565b50565b60007f01ffc9a7000000000000000000000000000000000000000000000000000000007bffffffffffffffffffffffffffffffffffffffffffffffffffffffff1916827bffffffffffffffffffffffffffffffffffffffffffffffffffffffff1916149050919050565b611a8781612477565b611ac6576040517f08c379a0000000000000000000000000000000000000000000000000000000008152600401611abd90613bbb565b60405180910390fd5b50565b600033905090565b816004600083815260200190815260200160002060006101000a81548173ffffffffffffffffffffffffffffffffffffffff021916908373ffffffffffffffffffffffffffffffffffffffff160217905550808273ffffffffffffffffffffffffffffffffffffffff16611b448361122c565b73ffffffffffffffffffffffffffffffffffffffff167f8c5be1e5ebec7d5bd14f71427d1e84f3dd0314c0f7b2291e5b200ac8c7c3b92560405160405180910390a45050565b600080611b968361122c565b90508073ffffffffffffffffffffffffffffffffffffffff168473ffffffffffffffffffffffffffffffffffffffff161480611bd85750611bd781856118e4565b5b80611c1657508373ffffffffffffffffffffffffffffffffffffffff16611bfe84610929565b73ffffffffffffffffffffffffffffffffffffffff16145b91505092915050565b8273ffffffffffffffffffffffffffffffffffffffff16611c3f8261122c565b73ffffffffffffffffffffffffffffffffffffffff1614611c95576040517f08c379a0000000000000000000000000000000000000000000000000000000008152600401611c8c906139fb565b60405180910390fd5b600073ffffffffffffffffffffffffffffffffffffffff168273ffffffffffffffffffffffffffffffffffffffff161415611d05576040517f08c379a0000000000000000000000000000000000000000000000000000000008152600401611cfc90613a3b565b60405180910390fd5b611d1283838360016124b8565b8273ffffffffffffffffffffffffffffffffffffffff16611d328261122c565b73ffffffffffffffffffffffffffffffffffffffff1614611d88576040517f08c379a0000000000000000000000000000000000000000000000000000000008152600401611d7f906139fb565b60405180910390fd5b6004600082815260200190815260200160002060006101000a81549073ffffffffffffffffffffffffffffffffffffffff02191690556001600360008573ffffffffffffffffffffffffffffffffffffffff1673ffffffffffffffffffffffffffffffffffffffff168152602001908152602001600020600082825403925050819055506001600360008473ffffffffffffffffffffffffffffffffffffffff1673ffffffffffffffffffffffffffffffffffffffff16815260200190815260200160002060008282540192505081905550816002600083815260200190815260200160002060006101000a81548173ffffffffffffffffffffffffffffffffffffffff021916908373ffffffffffffffffffffffffffffffffffffffff160217905550808273ffffffffffffffffffffffffffffffffffffffff168473ffffffffffffffffffffffffffffffffffffffff167fddf252ad1be2c89b69c2b068fc378daa952ba7f163c4a11628f55a4df523b3ef60405160405180910390a4611f1483838360016125de565b505050565b6001816000016000828254019250508190555050565b600081600001549050919050565b611f578282604051806020016040528060008152506125e4565b5050565b600082611f68858461263f565b1490509392505050565b611f7a611ac9565b73ffffffffffffffffffffffffffffffffffffffff16611f986113dd565b73ffffffffffffffffffffffffffffffffffffffff1614611fee576040517f08c379a0000000000000000000000000000000000000000000000000000000008152600401611fe590613b3b565b60405180910390fd5b565b60026007541415612036576040517f08c379a000000000000000000000000000000000000000000000000000000000815260040161202d90613c3b565b60405180910390fd5b6002600781905550565b6001600781905550565b60006002600083815260200190815260200160002060009054906101000a900473ffffffffffffffffffffffffffffffffffffffff169050919050565b6000600660009054906101000a900473ffffffffffffffffffffffffffffffffffffffff16905081600660006101000a81548173ffffffffffffffffffffffffffffffffffffffff021916908373ffffffffffffffffffffffffffffffffffffffff1602179055508173ffffffffffffffffffffffffffffffffffffffff168173ffffffffffffffffffffffffffffffffffffffff167f8be0079c531659141344cd1fd0a4f28419497f9722a3daafe3b4186f6b6457e060405160405180910390a35050565b8173ffffffffffffffffffffffffffffffffffffffff168373ffffffffffffffffffffffffffffffffffffffff1614156121bc576040517f08c379a00000000000000000000000000000000000000000000000000000000081526004016121b390613a5b565b60405180910390fd5b80600560008573ffffffffffffffffffffffffffffffffffffffff1673ffffffffffffffffffffffffffffffffffffffff16815260200190815260200160002060008473ffffffffffffffffffffffffffffffffffffffff1673ffffffffffffffffffffffffffffffffffffffff16815260200190815260200160002060006101000a81548160ff0219169083151502179055508173ffffffffffffffffffffffffffffffffffffffff168373ffffffffffffffffffffffffffffffffffffffff167f17307eab39ab6107e8899845ad3d59bd9653f200f220920489ca2b5937696c31836040516122ad91906138de565b60405180910390a3505050565b6122c5848484611c1f565b6122d1848484846126bb565b612310576040517f08c379a00000000000000000000000000000000000000000000000000000000081526004016123079061399b565b60405180910390fd5b50505050565b60606040518060400160405280601a81526020017f687474703a2f2f6c6f63616c686f73743a333030302f6e66742f000000000000815250905090565b60606000600161236284612852565b01905060008167ffffffffffffffff8111156123a7577f4e487b7100000000000000000000000000000000000000000000000000000000600052604160045260246000fd5b6040519080825280601f01601f1916602001820160405280156123d95781602001600182028036833780820191505090505b509050600082602001820190505b60011561246c578080600190039150507f3031323334353637383961626364656600000000000000000000000000000000600a86061a8153600a8581612456577f4e487b7100000000000000000000000000000000000000000000000000000000600052601260045260246000fd5b04945060008514156124675761246c565b6123e7565b819350505050919050565b60008073ffffffffffffffffffffffffffffffffffffffff166124998361204a565b73ffffffffffffffffffffffffffffffffffffffff1614159050919050565b60018111156125d857600073ffffffffffffffffffffffffffffffffffffffff168473ffffffffffffffffffffffffffffffffffffffff161461254c5780600360008673ffffffffffffffffffffffffffffffffffffffff1673ffffffffffffffffffffffffffffffffffffffff16815260200190815260200160002060008282546125449190613e5c565b925050819055505b600073ffffffffffffffffffffffffffffffffffffffff168373ffffffffffffffffffffffffffffffffffffffff16146125d75780600360008573ffffffffffffffffffffffffffffffffffffffff1673ffffffffffffffffffffffffffffffffffffffff16815260200190815260200160002060008282546125cf9190613dac565b925050819055505b5b50505050565b50505050565b6125ee8383612a89565b6125fb60008484846126bb565b61263a576040517f08c379a00000000000000000000000000000000000000000000000000000000081526004016126319061399b565b60405180910390fd5b505050565b60008082905060005b84518110156126b05761269b8286838151811061268e577f4e487b7100000000000000000000000000000000000000000000000000000000600052603260045260246000fd5b6020026020010151612ca7565b915080806126a890613fb3565b915050612648565b508091505092915050565b60006126dc8473ffffffffffffffffffffffffffffffffffffffff16612cd2565b15612845578373ffffffffffffffffffffffffffffffffffffffff1663150b7a02612705611ac9565b8786866040518563ffffffff1660e01b81526004016127279493929190613892565b602060405180830381600087803b15801561274157600080fd5b505af192505050801561277257506040513d601f19601f8201168201806040525081019061276f9190613234565b60015b6127f5573d80600081146127a2576040519150601f19603f3d011682016040523d82523d6000602084013e6127a7565b606091505b506000815114156127ed576040517f08c379a00000000000000000000000000000000000000000000000000000000081526004016127e49061399b565b60405180910390fd5b805181602001fd5b63150b7a0260e01b7bffffffffffffffffffffffffffffffffffffffffffffffffffffffff1916817bffffffffffffffffffffffffffffffffffffffffffffffffffffffff19161491505061284a565b600190505b949350505050565b600080600090507a184f03e93ff9f4daa797ed6e38ed64bf6a1f01000000000000000083106128d6577a184f03e93ff9f4daa797ed6e38ed64bf6a1f01000000000000000083816128cc577f4e487b7100000000000000000000000000000000000000000000000000000000600052601260045260246000fd5b0492506040810190505b6d04ee2d6d415b85acef81000000008310612939576d04ee2d6d415b85acef8100000000838161292f577f4e487b7100000000000000000000000000000000000000000000000000000000600052601260045260246000fd5b0492506020810190505b662386f26fc10000831061298e57662386f26fc100008381612984577f4e487b7100000000000000000000000000000000000000000000000000000000600052601260045260246000fd5b0492506010810190505b6305f5e10083106129dd576305f5e10083816129d3577f4e487b7100000000000000000000000000000000000000000000000000000000600052601260045260246000fd5b0492506008810190505b6127108310612a28576127108381612a1e577f4e487b7100000000000000000000000000000000000000000000000000000000600052601260045260246000fd5b0492506004810190505b60648310612a715760648381612a67577f4e487b7100000000000000000000000000000000000000000000000000000000600052601260045260246000fd5b0492506002810190505b600a8310612a80576001810190505b80915050919050565b600073ffffffffffffffffffffffffffffffffffffffff168273ffffffffffffffffffffffffffffffffffffffff161415612af9576040517f08c379a0000000000000000000000000000000000000000000000000000000008152600401612af090613b1b565b60405180910390fd5b612b0281612477565b15612b42576040517f08c379a0000000000000000000000000000000000000000000000000000000008152600401612b3990613a1b565b60405180910390fd5b612b506000838360016124b8565b612b5981612477565b15612b99576040517f08c379a0000000000000000000000000000000000000000000000000000000008152600401612b9090613a1b565b60405180910390fd5b6001600360008473ffffffffffffffffffffffffffffffffffffffff1673ffffffffffffffffffffffffffffffffffffffff16815260200190815260200160002060008282540192505081905550816002600083815260200190815260200160002060006101000a81548173ffffffffffffffffffffffffffffffffffffffff021916908373ffffffffffffffffffffffffffffffffffffffff160217905550808273ffffffffffffffffffffffffffffffffffffffff16600073ffffffffffffffffffffffffffffffffffffffff167fddf252ad1be2c89b69c2b068fc378daa952ba7f163c4a11628f55a4df523b3ef60405160405180910390a4612ca36000838360016125de565b5050565b6000818310612cbf57612cba8284612cf5565b612cca565b612cc98383612cf5565b5b905092915050565b6000808273ffffffffffffffffffffffffffffffffffffffff163b119050919050565b600082600052816020526040600020905092915050565b828054612d1890613f50565b90600052602060002090601f016020900481019282612d3a5760008555612d81565b82601f10612d5357805160ff1916838001178555612d81565b82800160010185558215612d81579182015b82811115612d80578251825591602001919060010190612d65565b5b509050612d8e9190612d92565b5090565b5b80821115612dab576000816000905550600101612d93565b5090565b6000612dc2612dbd84613cbb565b613c96565b90508083825260208201905082856020860282011115612de157600080fd5b60005b85811015612e115781612df78882612eeb565b845260208401935060208301925050600181019050612de4565b5050509392505050565b6000612e2e612e2984613ce7565b613c96565b905082815260208101848484011115612e4657600080fd5b612e51848285613f0e565b509392505050565b6000612e6c612e6784613d18565b613c96565b905082815260208101848484011115612e8457600080fd5b612e8f848285613f0e565b509392505050565b600081359050612ea68161473c565b92915050565b600082601f830112612ebd57600080fd5b8135612ecd848260208601612daf565b91505092915050565b600081359050612ee581614753565b92915050565b600081359050612efa8161476a565b92915050565b600081359050612f0f81614781565b92915050565b600081519050612f2481614781565b92915050565b600082601f830112612f3b57600080fd5b8135612f4b848260208601612e1b565b91505092915050565b600082601f830112612f6557600080fd5b8135612f75848260208601612e59565b91505092915050565b600081359050612f8d81614798565b92915050565b600060208284031215612fa557600080fd5b6000612fb384828501612e97565b91505092915050565b60008060408385031215612fcf57600080fd5b6000612fdd85828601612e97565b9250506020612fee85828601612e97565b9150509250929050565b60008060006060848603121561300d57600080fd5b600061301b86828701612e97565b935050602061302c86828701612e97565b925050604061303d86828701612f7e565b9150509250925092565b6000806000806080858703121561305d57600080fd5b600061306b87828801612e97565b945050602061307c87828801612e97565b935050604061308d87828801612f7e565b925050606085013567ffffffffffffffff8111156130aa57600080fd5b6130b687828801612f2a565b91505092959194509250565b600080604083850312156130d557600080fd5b60006130e385828601612e97565b92505060206130f485828601612ed6565b9150509250929050565b6000806040838503121561311157600080fd5b600061311f85828601612e97565b925050602061313085828601612f7e565b9150509250929050565b60006020828403121561314c57600080fd5b600082013567ffffffffffffffff81111561316657600080fd5b61317284828501612eac565b91505092915050565b60008060006060848603121561319057600080fd5b600084013567ffffffffffffffff8111156131aa57600080fd5b6131b686828701612eac565b93505060206131c786828701612f7e565b92505060406131d886828701612f7e565b9150509250925092565b6000602082840312156131f457600080fd5b600061320284828501612eeb565b91505092915050565b60006020828403121561321d57600080fd5b600061322b84828501612f00565b91505092915050565b60006020828403121561324657600080fd5b600061325484828501612f15565b91505092915050565b60006020828403121561326f57600080fd5b600082013567ffffffffffffffff81111561328957600080fd5b61329584828501612f54565b91505092915050565b6000602082840312156132b057600080fd5b60006132be84828501612f7e565b91505092915050565b6132d081613e90565b82525050565b6132e76132e282613e90565b613ffc565b82525050565b6132f681613ea2565b82525050565b600061330782613d5e565b6133118185613d74565b9350613321818560208601613f1d565b61332a816140b7565b840191505092915050565b6000815461334281613f50565b61334c8186613d85565b945060018216600081146133675760018114613378576133ab565b60ff198316865281860193506133ab565b61338185613d49565b60005b838110156133a357815481890152600182019150602081019050613384565b838801955050505b50505092915050565b60006133bf82613d69565b6133c98185613d90565b93506133d9818560208601613f1d565b6133e2816140b7565b840191505092915050565b60006133f882613d69565b6134028185613da1565b9350613412818560208601613f1d565b80840191505092915050565b600061342b602383613d90565b9150613436826140d5565b604082019050919050565b600061344e602d83613d90565b915061345982614124565b604082019050919050565b6000613471601d83613d90565b915061347c82614173565b602082019050919050565b6000613494602183613d90565b915061349f8261419c565b604082019050919050565b60006134b7603283613d90565b91506134c2826141eb565b604082019050919050565b60006134da602683613d90565b91506134e58261423a565b604082019050919050565b60006134fd601683613d90565b915061350882614289565b602082019050919050565b6000613520602583613d90565b915061352b826142b2565b604082019050919050565b6000613543601c83613d90565b915061354e82614301565b602082019050919050565b6000613566602483613d90565b91506135718261432a565b604082019050919050565b6000613589601983613d90565b915061359482614379565b602082019050919050565b60006135ac601583613d90565b91506135b7826143a2565b602082019050919050565b60006135cf602283613d90565b91506135da826143cb565b604082019050919050565b60006135f2602b83613d90565b91506135fd8261441a565b604082019050919050565b6000613615602183613d90565b915061362082614469565b604082019050919050565b6000613638602983613d90565b9150613643826144b8565b604082019050919050565b600061365b602083613d90565b915061366682614507565b602082019050919050565b600061367e602083613d90565b915061368982614530565b602082019050919050565b60006136a1602683613d90565b91506136ac82614559565b604082019050919050565b60006136c4601483613d90565b91506136cf826145a8565b602082019050919050565b60006136e7601c83613d90565b91506136f2826145d1565b602082019050919050565b600061370a601883613d90565b9150613715826145fa565b602082019050919050565b600061372d600e83613d90565b915061373882614623565b602082019050919050565b6000613750602183613d90565b915061375b8261464c565b604082019050919050565b6000613773603d83613d90565b915061377e8261469b565b604082019050919050565b6000613796601f83613d90565b91506137a1826146ea565b602082019050919050565b60006137b9601783613d90565b91506137c482614713565b602082019050919050565b6137d881613f04565b82525050565b6137ef6137ea82613f04565b614020565b82525050565b600061380182846132d6565b60148201915081905092915050565b600061381c82856132d6565b60148201915061382c82846137de565b6020820191508190509392505050565b60006138488284613335565b915081905092915050565b600061385f82856133ed565b915061386b82846133ed565b91508190509392505050565b600060208201905061388c60008301846132c7565b92915050565b60006080820190506138a760008301876132c7565b6138b460208301866132c7565b6138c160408301856137cf565b81810360608301526138d381846132fc565b905095945050505050565b60006020820190506138f360008301846132ed565b92915050565b6000602082019050818103600083015261391381846133b4565b905092915050565b600060208201905081810360008301526139348161341e565b9050919050565b6000602082019050818103600083015261395481613441565b9050919050565b6000602082019050818103600083015261397481613464565b9050919050565b6000602082019050818103600083015261399481613487565b9050919050565b600060208201905081810360008301526139b4816134aa565b9050919050565b600060208201905081810360008301526139d4816134cd565b9050919050565b600060208201905081810360008301526139f4816134f0565b9050919050565b60006020820190508181036000830152613a1481613513565b9050919050565b60006020820190508181036000830152613a3481613536565b9050919050565b60006020820190508181036000830152613a5481613559565b9050919050565b60006020820190508181036000830152613a748161357c565b9050919050565b60006020820190508181036000830152613a948161359f565b9050919050565b60006020820190508181036000830152613ab4816135c2565b9050919050565b60006020820190508181036000830152613ad4816135e5565b9050919050565b60006020820190508181036000830152613af481613608565b9050919050565b60006020820190508181036000830152613b148161362b565b9050919050565b60006020820190508181036000830152613b348161364e565b9050919050565b60006020820190508181036000830152613b5481613671565b9050919050565b60006020820190508181036000830152613b7481613694565b9050919050565b60006020820190508181036000830152613b94816136b7565b9050919050565b60006020820190508181036000830152613bb4816136da565b9050919050565b60006020820190508181036000830152613bd4816136fd565b9050919050565b60006020820190508181036000830152613bf481613720565b9050919050565b60006020820190508181036000830152613c1481613743565b9050919050565b60006020820190508181036000830152613c3481613766565b9050919050565b60006020820190508181036000830152613c5481613789565b9050919050565b60006020820190508181036000830152613c74816137ac565b9050919050565b6000602082019050613c9060008301846137cf565b92915050565b6000613ca0613cb1565b9050613cac8282613f82565b919050565b6000604051905090565b600067ffffffffffffffff821115613cd657613cd5614088565b5b602082029050602081019050919050565b600067ffffffffffffffff821115613d0257613d01614088565b5b613d0b826140b7565b9050602081019050919050565b600067ffffffffffffffff821115613d3357613d32614088565b5b613d3c826140b7565b9050602081019050919050565b60008190508160005260206000209050919050565b600081519050919050565b600081519050919050565b600082825260208201905092915050565b600081905092915050565b600082825260208201905092915050565b600081905092915050565b6000613db782613f04565b9150613dc283613f04565b9250827fffffffffffffffffffffffffffffffffffffffffffffffffffffffffffffffff03821115613df757613df661402a565b5b828201905092915050565b6000613e0d82613f04565b9150613e1883613f04565b9250817fffffffffffffffffffffffffffffffffffffffffffffffffffffffffffffffff0483118215151615613e5157613e5061402a565b5b828202905092915050565b6000613e6782613f04565b9150613e7283613f04565b925082821015613e8557613e8461402a565b5b828203905092915050565b6000613e9b82613ee4565b9050919050565b60008115159050919050565b6000819050919050565b60007fffffffff0000000000000000000000000000000000000000000000000000000082169050919050565b600073ffffffffffffffffffffffffffffffffffffffff82169050919050565b6000819050919050565b82818337600083830152505050565b60005b83811015613f3b578082015181840152602081019050613f20565b83811115613f4a576000848401525b50505050565b60006002820490506001821680613f6857607f821691505b60208210811415613f7c57613f7b614059565b5b50919050565b613f8b826140b7565b810181811067ffffffffffffffff82111715613faa57613fa9614088565b5b80604052505050565b6000613fbe82613f04565b91507fffffffffffffffffffffffffffffffffffffffffffffffffffffffffffffffff821415613ff157613ff061402a565b5b600182019050919050565b60006140078261400e565b9050919050565b6000614019826140c8565b9050919050565b6000819050919050565b7f4e487b7100000000000000000000000000000000000000000000000000000000600052601160045260246000fd5b7f4e487b7100000000000000000000000000000000000000000000000000000000600052602260045260246000fd5b7f4e487b7100000000000000000000000000000000000000000000000000000000600052604160045260246000fd5b6000601f19601f8301169050919050565b60008160601b9050919050565b7f4d696e74696e6720657863656564207468652073616c6520616c6c6f6361746960008201527f6f6e2e0000000000000000000000000000000000000000000000000000000000602082015250565b7f4552433732313a2063616c6c6572206973206e6f7420746f6b656e206f776e6560008201527f72206f7220617070726f76656400000000000000000000000000000000000000602082015250565b7f596f7520617265206e6f74206f6e207468652077686974656c6973742e000000600082015250565b7f596f7520617265206e6f74206f6e20746865207265736572766564206c69737460008201527f2e00000000000000000000000000000000000000000000000000000000000000602082015250565b7f4552433732313a207472616e7366657220746f206e6f6e20455243373231526560008201527f63656976657220696d706c656d656e7465720000000000000000000000000000602082015250565b7f4f776e61626c653a206e6577206f776e657220697320746865207a65726f206160008201527f6464726573730000000000000000000000000000000000000000000000000000602082015250565b7f50726573616c6520706572696f64206973206f76657200000000000000000000600082015250565b7f4552433732313a207472616e736665722066726f6d20696e636f72726563742060008201527f6f776e6572000000000000000000000000000000000000000000000000000000602082015250565b7f4552433732313a20746f6b656e20616c7265616479206d696e74656400000000600082015250565b7f4552433732313a207472616e7366657220746f20746865207a65726f2061646460008201527f7265737300000000000000000000000000000000000000000000000000000000602082015250565b7f4552433732313a20617070726f766520746f2063616c6c657200000000000000600082015250565b7f4974656d206973206e6f7420617661696c61626c650000000000000000000000600082015250565b7f596f75206861766520636c61696d656420746865207265736572766564206d6960008201527f6e74000000000000000000000000000000000000000000000000000000000000602082015250565b7f4d696e74696e6720616d6f756e74206578636565647320616c6c6f77616e636560008201527f207065722077616c6c6574000000000000000000000000000000000000000000602082015250565b7f4974732063757272656e746c79206e6f74206f70656e20666f72207075626c6960008201527f6300000000000000000000000000000000000000000000000000000000000000602082015250565b7f4552433732313a2061646472657373207a65726f206973206e6f74206120766160008201527f6c6964206f776e65720000000000000000000000000000000000000000000000602082015250565b7f4552433732313a206d696e7420746f20746865207a65726f2061646472657373600082015250565b7f4f776e61626c653a2063616c6c6572206973206e6f7420746865206f776e6572600082015250565b7f4d696e74696e6720657863656564207468652070726573616c6520616c6c6f6360008201527f6174696f6e2e0000000000000000000000000000000000000000000000000000602082015250565b7f696e73756666696369656e742062616c616e6365000000000000000000000000600082015250565b7f52657365727665642073616c6520706572696f64206973206f76657200000000600082015250565b7f4552433732313a20696e76616c696420746f6b656e2049440000000000000000600082015250565b7f6e6f20657468657220666f756e64000000000000000000000000000000000000600082015250565b7f4552433732313a20617070726f76616c20746f2063757272656e74206f776e6560008201527f7200000000000000000000000000000000000000000000000000000000000000602082015250565b7f4552433732313a20617070726f76652063616c6c6572206973206e6f7420746f60008201527f6b656e206f776e6572206f7220617070726f76656420666f7220616c6c000000602082015250565b7f5265656e7472616e637947756172643a207265656e7472616e742063616c6c00600082015250565b7f4d617820616c6c6f77616e63652065786365656465642e000000000000000000600082015250565b61474581613e90565b811461475057600080fd5b50565b61475c81613ea2565b811461476757600080fd5b50565b61477381613eae565b811461477e57600080fd5b50565b61478a81613eb8565b811461479557600080fd5b50565b6147a181613f04565b81146147ac57600080fd5b5056fea26469706673582212206995d66551d8dea7f738ea5d9920185cb194e84149193b427adb575cd90bd8be64736f6c63430008040033",
  "linkReferences": {},
  "deployedLinkReferences": {}
}