{
  "_format": "hh-sol-artifact-1",
  "contractName": "FuzzNFT",
  "sourceName": "contracts/FuzzNFT.sol",
  "abi": [
    {
      "inputs": [],
      "stateMutability": "nonpayable",
      "type": "constructor"
    },
    {
      "anonymous": false,
      "inputs": [
        {
          "indexed": true,
          "internalType": "address",
          "name": "owner",
          "type": "address"
        },
        {
          "indexed": true,
          "internalType": "address",
          "name": "approved",
          "type": "address"
        },
        {
          "indexed": true,
          "internalType": "uint256",
          "name": "tokenId",
          "type": "uint256"
        }
      ],
      "name": "Approval",
      "type": "event"
    },
    {
      "anonymous": false,
      "inputs": [
        {
          "indexed": true,
          "internalType": "address",
          "name": "owner",
          "type": "address"
        },
        {
          "indexed": true,
          "internalType": "address",
          "name": "operator",
          "type": "address"
        },
        {
          "indexed": false,
          "internalType": "bool",
          "name": "approved",
          "type": "bool"
        }
      ],
      "name": "ApprovalForAll",
      "type": "event"
    },
    {
      "anonymous": false,
      "inputs": [
        {
          "indexed": true,
          "internalType": "address",
          "name": "previousOwner",
          "type": "address"
        },
        {
          "indexed": true,
          "internalType": "address",
          "name": "newOwner",
          "type": "address"
        }
      ],
      "name": "OwnershipTransferred",
      "type": "event"
    },
    {
      "anonymous": false,
      "inputs": [
        {
          "indexed": true,
          "internalType": "address",
          "name": "from",
          "type": "address"
        },
        {
          "indexed": true,
          "internalType": "address",
          "name": "to",
          "type": "address"
        },
        {
          "indexed": true,
          "internalType": "uint256",
          "name": "tokenId",
          "type": "uint256"
        }
      ],
      "name": "Transfer",
      "type": "event"
    },
    {
      "inputs": [],
      "name": "CREATOR_PRICE",
      "outputs": [
        {
          "internalType": "uint256",
          "name": "",
          "type": "uint256"
        }
      ],
      "stateMutability": "view",
      "type": "function"
    },
    {
      "inputs": [],
      "name": "MAX_QTY_PER_MINTER",
      "outputs": [
        {
          "internalType": "uint256",
          "name": "",
          "type": "uint256"
        }
      ],
      "stateMutability": "view",
      "type": "function"
    },
    {
      "inputs": [],
      "name": "PRE_SALES_PRICE",
      "outputs": [
        {
          "internalType": "uint256",
          "name": "",
          "type": "uint256"
        }
      ],
      "stateMutability": "view",
      "type": "function"
    },
    {
      "inputs": [],
      "name": "PUBLIC_SALES_BASE_PRICE",
      "outputs": [
        {
          "internalType": "uint256",
          "name": "",
          "type": "uint256"
        }
      ],
      "stateMutability": "view",
      "type": "function"
    },
    {
      "inputs": [],
      "name": "SALES_MAX_QTY",
      "outputs": [
        {
          "internalType": "uint256",
          "name": "",
          "type": "uint256"
        }
      ],
      "stateMutability": "view",
      "type": "function"
    },
    {
      "inputs": [
        {
          "internalType": "address",
          "name": "to",
          "type": "address"
        },
        {
          "internalType": "uint256",
          "name": "tokenId",
          "type": "uint256"
        }
      ],
      "name": "approve",
      "outputs": [],
      "stateMutability": "nonpayable",
      "type": "function"
    },
    {
      "inputs": [
        {
          "internalType": "address",
          "name": "owner",
          "type": "address"
        }
      ],
      "name": "balanceOf",
      "outputs": [
        {
          "internalType": "uint256",
          "name": "",
          "type": "uint256"
        }
      ],
      "stateMutability": "view",
      "type": "function"
    },
    {
      "inputs": [],
      "name": "creatorMint",
      "outputs": [],
      "stateMutability": "payable",
      "type": "function"
    },
    {
      "inputs": [
        {
          "internalType": "uint256",
          "name": "tokenId",
          "type": "uint256"
        }
      ],
      "name": "getApproved",
      "outputs": [
        {
          "internalType": "address",
          "name": "",
          "type": "address"
        }
      ],
      "stateMutability": "view",
      "type": "function"
    },
    {
      "inputs": [],
      "name": "getPrice",
      "outputs": [
        {
          "internalType": "uint256",
          "name": "",
          "type": "uint256"
        }
      ],
      "stateMutability": "view",
      "type": "function"
    },
    {
      "inputs": [
        {
          "internalType": "address",
          "name": "owner",
          "type": "address"
        },
        {
          "internalType": "address",
          "name": "operator",
          "type": "address"
        }
      ],
      "name": "isApprovedForAll",
      "outputs": [
        {
          "internalType": "bool",
          "name": "",
          "type": "bool"
        }
      ],
      "stateMutability": "view",
      "type": "function"
    },
    {
      "inputs": [],
      "name": "name",
      "outputs": [
        {
          "internalType": "string",
          "name": "",
          "type": "string"
        }
      ],
      "stateMutability": "view",
      "type": "function"
    },
    {
      "inputs": [],
      "name": "owner",
      "outputs": [
        {
          "internalType": "address",
          "name": "",
          "type": "address"
        }
      ],
      "stateMutability": "view",
      "type": "function"
    },
    {
      "inputs": [
        {
          "internalType": "uint256",
          "name": "tokenId",
          "type": "uint256"
        }
      ],
      "name": "ownerOf",
      "outputs": [
        {
          "internalType": "address",
          "name": "",
          "type": "address"
        }
      ],
      "stateMutability": "view",
      "type": "function"
    },
    {
      "inputs": [
        {
          "internalType": "bytes32[]",
          "name": "proof",
          "type": "bytes32[]"
        },
        {
          "internalType": "uint256",
          "name": "qty",
          "type": "uint256"
        },
        {
          "internalType": "uint256",
          "name": "allowance",
          "type": "uint256"
        }
      ],
      "name": "presaleMint",
      "outputs": [],
      "stateMutability": "payable",
      "type": "function"
    },
    {
      "inputs": [
        {
          "internalType": "uint256",
          "name": "qty",
          "type": "uint256"
        }
      ],
      "name": "publicMint",
      "outputs": [],
      "stateMutability": "payable",
      "type": "function"
    },
    {
      "inputs": [],
      "name": "publicMintSupply",
      "outputs": [
        {
          "internalType": "uint256",
          "name": "",
          "type": "uint256"
        }
      ],
      "stateMutability": "view",
      "type": "function"
    },
    {
      "inputs": [
        {
          "internalType": "address",
          "name": "",
          "type": "address"
        }
      ],
      "name": "publicMintedAmount",
      "outputs": [
        {
          "internalType": "uint256",
          "name": "",
          "type": "uint256"
        }
      ],
      "stateMutability": "view",
      "type": "function"
    },
    {
      "inputs": [],
      "name": "renounceOwnership",
      "outputs": [],
      "stateMutability": "nonpayable",
      "type": "function"
    },
    {
      "inputs": [
        {
          "internalType": "address",
          "name": "",
          "type": "address"
        }
      ],
      "name": "reservedClaimed",
      "outputs": [
        {
          "internalType": "bool",
          "name": "",
          "type": "bool"
        }
      ],
      "stateMutability": "view",
      "type": "function"
    },
    {
      "inputs": [
        {
          "internalType": "bytes32[]",
          "name": "proof",
          "type": "bytes32[]"
        }
      ],
      "name": "reservedMint",
      "outputs": [],
      "stateMutability": "payable",
      "type": "function"
    },
    {
      "inputs": [
        {
          "internalType": "address",
          "name": "from",
          "type": "address"
        },
        {
          "internalType": "address",
          "name": "to",
          "type": "address"
        },
        {
          "internalType": "uint256",
          "name": "tokenId",
          "type": "uint256"
        }
      ],
      "name": "safeTransferFrom",
      "outputs": [],
      "stateMutability": "nonpayable",
      "type": "function"
    },
    {
      "inputs": [
        {
          "internalType": "address",
          "name": "from",
          "type": "address"
        },
        {
          "internalType": "address",
          "name": "to",
          "type": "address"
        },
        {
          "internalType": "uint256",
          "name": "tokenId",
          "type": "uint256"
        },
        {
          "internalType": "bytes",
          "name": "data",
          "type": "bytes"
        }
      ],
      "name": "safeTransferFrom",
      "outputs": [],
      "stateMutability": "nonpayable",
      "type": "function"
    },
    {
      "inputs": [
        {
          "internalType": "address",
          "name": "operator",
          "type": "address"
        },
        {
          "internalType": "bool",
          "name": "approved",
          "type": "bool"
        }
      ],
      "name": "setApprovalForAll",
      "outputs": [],
      "stateMutability": "nonpayable",
      "type": "function"
    },
    {
      "inputs": [
        {
          "internalType": "uint256",
          "name": "_price",
          "type": "uint256"
        }
      ],
      "name": "setCreatorPrice",
      "outputs": [],
      "stateMutability": "nonpayable",
      "type": "function"
    },
    {
      "inputs": [
        {
          "internalType": "uint256",
          "name": "_price",
          "type": "uint256"
        }
      ],
      "name": "setPreSalePrice",
      "outputs": [],
      "stateMutability": "nonpayable",
      "type": "function"
    },
    {
      "inputs": [
        {
          "internalType": "uint256",
          "name": "_price",
          "type": "uint256"
        }
      ],
      "name": "setPublicSaleBasePrice",
      "outputs": [],
      "stateMutability": "nonpayable",
      "type": "function"
    },
    {
      "inputs": [
        {
          "internalType": "bytes32",
          "name": "_reservedMerkleRoot",
          "type": "bytes32"
        }
      ],
      "name": "setReservedMerkleroot",
      "outputs": [],
      "stateMutability": "nonpayable",
      "type": "function"
    },
    {
      "inputs": [
        {
          "internalType": "string",
          "name": "_status",
          "type": "string"
        }
      ],
      "name": "setStatus",
      "outputs": [],
      "stateMutability": "nonpayable",
      "type": "function"
    },
    {
      "inputs": [
        {
          "internalType": "bytes32",
          "name": "_whitelistMerkleRoot",
          "type": "bytes32"
        }
      ],
      "name": "setWhitelistMerkleRoot",
      "outputs": [],
      "stateMutability": "nonpayable",
      "type": "function"
    },
    {
      "inputs": [],
      "name": "status",
      "outputs": [
        {
          "internalType": "string",
          "name": "",
          "type": "string"
        }
      ],
      "stateMutability": "view",
      "type": "function"
    },
    {
      "inputs": [
        {
          "internalType": "bytes4",
          "name": "interfaceId",
          "type": "bytes4"
        }
      ],
      "name": "supportsInterface",
      "outputs": [
        {
          "internalType": "bool",
          "name": "",
          "type": "bool"
        }
      ],
      "stateMutability": "view",
      "type": "function"
    },
    {
      "inputs": [],
      "name": "symbol",
      "outputs": [
        {
          "internalType": "string",
          "name": "",
          "type": "string"
        }
      ],
      "stateMutability": "view",
      "type": "function"
    },
    {
      "inputs": [
        {
          "internalType": "uint256",
          "name": "tokenId",
          "type": "uint256"
        }
      ],
      "name": "tokenURI",
      "outputs": [
        {
          "internalType": "string",
          "name": "",
          "type": "string"
        }
      ],
      "stateMutability": "view",
      "type": "function"
    },
    {
      "inputs": [],
      "name": "totalSupply",
      "outputs": [
        {
          "internalType": "uint256",
          "name": "",
          "type": "uint256"
        }
      ],
      "stateMutability": "view",
      "type": "function"
    },
    {
      "inputs": [
        {
          "internalType": "address",
          "name": "from",
          "type": "address"
        },
        {
          "internalType": "address",
          "name": "to",
          "type": "address"
        },
        {
          "internalType": "uint256",
          "name": "tokenId",
          "type": "uint256"
        }
      ],
      "name": "transferFrom",
      "outputs": [],
      "stateMutability": "nonpayable",
      "type": "function"
    },
    {
      "inputs": [
        {
          "internalType": "address",
          "name": "newOwner",
          "type": "address"
        }
      ],
      "name": "transferOwnership",
      "outputs": [],
      "stateMutability": "nonpayable",
      "type": "function"
    },
    {
      "inputs": [
        {
          "internalType": "address",
          "name": "",
          "type": "address"
        }
      ],
      "name": "whitelistMintedAmount",
      "outputs": [
        {
          "internalType": "uint256",
          "name": "",
          "type": "uint256"
        }
      ],
      "stateMutability": "view",
      "type": "function"
    },
    {
      "inputs": [],
      "name": "withdraw",
      "outputs": [],
      "stateMutability": "nonpayable",
      "type": "function"
    }
  ],
  "bytecode": "0x60806040526103e8600855600060115560006012553480156200002157600080fd5b506040518060400160405280600a81526020017f46757a7a20546f6b656e000000000000000000000000000000000000000000008152506040518060400160405280600481526020017f46757a7a000000000000000000000000000000000000000000000000000000008152508160009080519060200190620000a6929190620001be565b508060019080519060200190620000bf929190620001be565b505050620000e2620000d6620000f060201b60201c565b620000f860201b60201c565b6001600781905550620002d3565b600033905090565b6000600660009054906101000a900473ffffffffffffffffffffffffffffffffffffffff16905081600660006101000a81548173ffffffffffffffffffffffffffffffffffffffff021916908373ffffffffffffffffffffffffffffffffffffffff1602179055508173ffffffffffffffffffffffffffffffffffffffff168173ffffffffffffffffffffffffffffffffffffffff167f8be0079c531659141344cd1fd0a4f28419497f9722a3daafe3b4186f6b6457e060405160405180910390a35050565b828054620001cc906200026e565b90600052602060002090601f016020900481019282620001f057600085556200023c565b82601f106200020b57805160ff19168380011785556200023c565b828001600101855582156200023c579182015b828111156200023b5782518255916020019190600101906200021e565b5b5090506200024b91906200024f565b5090565b5b808211156200026a57600081600090555060010162000250565b5090565b600060028204905060018216806200028757607f821691505b602082108114156200029e576200029d620002a4565b5b50919050565b7f4e487b7100000000000000000000000000000000000000000000000000000000600052602260045260246000fd5b614cd680620002e36000396000f3fe60806040526004361061022f5760003560e01c8063715018a61161012e578063a7abe1fc116100ab578063bd32fb661161006f578063bd32fb66146107cc578063c87b56dd146107f5578063e985e9c514610832578063ead29d4e1461086f578063f2fde38b146108ac5761022f565b8063a7abe1fc14610708578063aaab1ba514610733578063ac501c411461074f578063b63428e01461077a578063b88d4fde146107a35761022f565b8063886e0c10116100f2578063886e0c10146106355780638da5cb5b1461065e57806395d89b411461068957806398d5fdca146106b4578063a22cb465146106df5761022f565b8063715018a6146105765780637d2211d61461058d5780637d7eee42146105b657806382afe550146105df57806385f29ca81461060a5761022f565b80632db11544116101bc57806342842e0e1161018057806342842e0e1461049e5780634b845499146104c757806354a95351146104d15780636352211e146104fc57806370a08231146105395761022f565b80632db11544146103e95780633c18c3da146104055780633ccfd60b146104215780633e9c9ec21461043857806340702c90146104755761022f565b8063095ea7b311610203578063095ea7b31461030457806318160ddd1461032d5780631fac2a3514610358578063200d2ed21461039557806323b872dd146103c05761022f565b806226275e1461023457806301ffc9a71461025f57806306fdde031461029c578063081812fc146102c7575b600080fd5b34801561024057600080fd5b506102496108d5565b604051610256919061405e565b60405180910390f35b34801561026b57600080fd5b5061028660048036038101906102819190613568565b6108db565b6040516102939190613c81565b60405180910390f35b3480156102a857600080fd5b506102b16109bd565b6040516102be9190613c9c565b60405180910390f35b3480156102d357600080fd5b506102ee60048036038101906102e991906135fb565b610a4f565b6040516102fb9190613c1a565b60405180910390f35b34801561031057600080fd5b5061032b6004803603810190610326919061345b565b610a95565b005b34801561033957600080fd5b50610342610bad565b60405161034f919061405e565b60405180910390f35b34801561036457600080fd5b5061037f600480360381019061037a91906132f0565b610bb3565b60405161038c919061405e565b60405180910390f35b3480156103a157600080fd5b506103aa610bcb565b6040516103b79190613c9c565b60405180910390f35b3480156103cc57600080fd5b506103e760048036038101906103e29190613355565b610c59565b005b61040360048036038101906103fe91906135fb565b610cb9565b005b61041f600480360381019061041a91906134d8565b610f96565b005b34801561042d57600080fd5b50610436611286565b005b34801561044457600080fd5b5061045f600480360381019061045a91906132f0565b611331565b60405161046c9190613c81565b60405180910390f35b34801561048157600080fd5b5061049c600480360381019061049791906135fb565b611351565b005b3480156104aa57600080fd5b506104c560048036038101906104c09190613355565b611363565b005b6104cf611383565b005b3480156104dd57600080fd5b506104e6611524565b6040516104f3919061405e565b60405180910390f35b34801561050857600080fd5b50610523600480360381019061051e91906135fb565b61152a565b6040516105309190613c1a565b60405180910390f35b34801561054557600080fd5b50610560600480360381019061055b91906132f0565b6115b1565b60405161056d919061405e565b60405180910390f35b34801561058257600080fd5b5061058b611669565b005b34801561059957600080fd5b506105b460048036038101906105af91906135ba565b61167d565b005b3480156105c257600080fd5b506105dd60048036038101906105d891906135fb565b61169f565b005b3480156105eb57600080fd5b506105f46116b1565b604051610601919061405e565b60405180910390f35b34801561061657600080fd5b5061061f6116b7565b60405161062c919061405e565b60405180910390f35b34801561064157600080fd5b5061065c6004803603810190610657919061353f565b6116bd565b005b34801561066a57600080fd5b506106736116cf565b6040516106809190613c1a565b60405180910390f35b34801561069557600080fd5b5061069e6116f9565b6040516106ab9190613c9c565b60405180910390f35b3480156106c057600080fd5b506106c961178b565b6040516106d6919061405e565b60405180910390f35b3480156106eb57600080fd5b506107066004803603810190610701919061341f565b6118d3565b005b34801561071457600080fd5b5061071d6118e9565b60405161072a919061405e565b60405180910390f35b61074d60048036038101906107489190613497565b6118ef565b005b34801561075b57600080fd5b50610764611b6b565b604051610771919061405e565b60405180910390f35b34801561078657600080fd5b506107a1600480360381019061079c91906135fb565b611b70565b005b3480156107af57600080fd5b506107ca60048036038101906107c591906133a4565b611b82565b005b3480156107d857600080fd5b506107f360048036038101906107ee919061353f565b611be4565b005b34801561080157600080fd5b5061081c600480360381019061081791906135fb565b611bf6565b6040516108299190613c9c565b60405180910390f35b34801561083e57600080fd5b5061085960048036038101906108549190613319565b611c5e565b6040516108669190613c81565b60405180910390f35b34801561087b57600080fd5b50610896600480360381019061089191906132f0565b611cf2565b6040516108a3919061405e565b60405180910390f35b3480156108b857600080fd5b506108d360048036038101906108ce91906132f0565b611d0a565b005b60085481565b60007f80ac58cd000000000000000000000000000000000000000000000000000000007bffffffffffffffffffffffffffffffffffffffffffffffffffffffff1916827bffffffffffffffffffffffffffffffffffffffffffffffffffffffff191614806109a657507f5b5e139f000000000000000000000000000000000000000000000000000000007bffffffffffffffffffffffffffffffffffffffffffffffffffffffff1916827bffffffffffffffffffffffffffffffffffffffffffffffffffffffff1916145b806109b657506109b582611d8e565b5b9050919050565b6060600080546109cc90614364565b80601f01602080910402602001604051908101604052809291908181526020018280546109f890614364565b8015610a455780601f10610a1a57610100808354040283529160200191610a45565b820191906000526020600020905b815481529060010190602001808311610a2857829003601f168201915b5050505050905090565b6000610a5a82611df8565b6004600083815260200190815260200160002060009054906101000a900473ffffffffffffffffffffffffffffffffffffffff169050919050565b6000610aa08261152a565b90508073ffffffffffffffffffffffffffffffffffffffff168373ffffffffffffffffffffffffffffffffffffffff161415610b11576040517f08c379a0000000000000000000000000000000000000000000000000000000008152600401610b0890613fde565b60405180910390fd5b8073ffffffffffffffffffffffffffffffffffffffff16610b30611e43565b73ffffffffffffffffffffffffffffffffffffffff161480610b5f5750610b5e81610b59611e43565b611c5e565b5b610b9e576040517f08c379a0000000000000000000000000000000000000000000000000000000008152600401610b9590613ffe565b60405180910390fd5b610ba88383611e4b565b505050565b60115481565b600d6020528060005260406000206000915090505481565b60138054610bd890614364565b80601f0160208091040260200160405190810160405280929190818152602001828054610c0490614364565b8015610c515780601f10610c2657610100808354040283529160200191610c51565b820191906000526020600020905b815481529060010190602001808311610c3457829003601f168201915b505050505081565b610c6a610c64611e43565b82611f04565b610ca9576040517f08c379a0000000000000000000000000000000000000000000000000000000008152600401610ca090613cde565b60405180910390fd5b610cb4838383611f99565b505050565b6040518060400160405280600a81526020017f5075626c696353616c6500000000000000000000000000000000000000000000815250805190602001206013604051610d059190613bdf565b604051809103902014610d4d576040517f08c379a0000000000000000000000000000000000000000000000000000000008152600401610d4490613ebe565b60405180910390fd5b6000610d5761178b565b11610d97576040517f08c379a0000000000000000000000000000000000000000000000000000000008152600401610d8e90613e5e565b60405180910390fd5b600281600c60003373ffffffffffffffffffffffffffffffffffffffff1673ffffffffffffffffffffffffffffffffffffffff16815260200190815260200160002054610de4919061418f565b1115610e25576040517f08c379a0000000000000000000000000000000000000000000000000000000008152600401610e1c90613e9e565b60405180910390fd5b60085481601154610e36919061418f565b10610e76576040517f08c379a0000000000000000000000000000000000000000000000000000000008152600401610e6d90613cbe565b60405180910390fd5b80610e7f61178b565b610e899190614216565b3414610eca576040517f08c379a0000000000000000000000000000000000000000000000000000000008152600401610ec190613f5e565b60405180910390fd5b60005b81811015610f2357610edf6014612293565b6000610eeb60146122a9565b9050610ef733826122b7565b60116000815480929190610f0a906143c7565b9190505550508080610f1b906143c7565b915050610ecd565b508060126000828254610f36919061418f565b9250508190555080600c60003373ffffffffffffffffffffffffffffffffffffffff1673ffffffffffffffffffffffffffffffffffffffff1681526020019081526020016000206000828254610f8c919061418f565b9250508190555050565b6040518060400160405280600781526020017f50726553616c6500000000000000000000000000000000000000000000000000815250805190602001206013604051610fe29190613bdf565b60405180910390201461102a576040517f08c379a000000000000000000000000000000000000000000000000000000000815260040161102190613d9e565b60405180910390fd5b61105f83600f543384604051602001611044929190613bb3565b604051602081830303815290604052805190602001206122d5565b61109e576040517f08c379a000000000000000000000000000000000000000000000000000000000815260040161109590613d1e565b60405180910390fd5b600854826011546110af919061418f565b11156110f0576040517f08c379a00000000000000000000000000000000000000000000000000000000081526004016110e790613f3e565b60405180910390fd5b8082600d60003373ffffffffffffffffffffffffffffffffffffffff1673ffffffffffffffffffffffffffffffffffffffff1681526020019081526020016000205461113c919061418f565b111561117d576040517f08c379a00000000000000000000000000000000000000000000000000000000081526004016111749061403e565b60405180910390fd5b348261118761178b565b6111919190614216565b146111d1576040517f08c379a00000000000000000000000000000000000000000000000000000000081526004016111c890613f5e565b60405180910390fd5b60005b8281101561122a576111e66014612293565b60006111f260146122a9565b90506111fe33826122b7565b60116000815480929190611211906143c7565b9190505550508080611222906143c7565b9150506111d4565b5081600d60003373ffffffffffffffffffffffffffffffffffffffff1673ffffffffffffffffffffffffffffffffffffffff168152602001908152602001600020600082825461127a919061418f565b92505081905550505050565b61128e6122ec565b61129661236a565b600047116112d9576040517f08c379a00000000000000000000000000000000000000000000000000000000081526004016112d090613fbe565b60405180910390fd5b6112e16116cf565b73ffffffffffffffffffffffffffffffffffffffff166108fc479081150290604051600060405180830381858888f19350505050158015611326573d6000803e3d6000fd5b5061132f6123ba565b565b600e6020528060005260406000206000915054906101000a900460ff1681565b6113596122ec565b80600b8190555050565b61137e83838360405180602001604052806000815250611b82565b505050565b61138b6122ec565b600060115460085461139d9190614270565b90506040518060400160405280600a81526020017f5075626c696353616c65000000000000000000000000000000000000000000008152508051906020012060136040516113eb9190613bdf565b604051809103902014611433576040517f08c379a000000000000000000000000000000000000000000000000000000000815260040161142a90613cfe565b60405180910390fd5b6000600b5411611478576040517f08c379a000000000000000000000000000000000000000000000000000000000815260040161146f90613dfe565b60405180910390fd5b80600b546114869190614216565b34146114c7576040517f08c379a00000000000000000000000000000000000000000000000000000000081526004016114be90613f5e565b60405180910390fd5b60005b81811015611520576114dc6014612293565b60006114e860146122a9565b90506114f433826122b7565b60116000815480929190611507906143c7565b9190505550508080611518906143c7565b9150506114ca565b5050565b600b5481565b600080611536836123c4565b9050600073ffffffffffffffffffffffffffffffffffffffff168173ffffffffffffffffffffffffffffffffffffffff1614156115a8576040517f08c379a000000000000000000000000000000000000000000000000000000000815260040161159f90613f9e565b60405180910390fd5b80915050919050565b60008073ffffffffffffffffffffffffffffffffffffffff168273ffffffffffffffffffffffffffffffffffffffff161415611622576040517f08c379a000000000000000000000000000000000000000000000000000000000815260040161161990613ede565b60405180910390fd5b600360008373ffffffffffffffffffffffffffffffffffffffff1673ffffffffffffffffffffffffffffffffffffffff168152602001908152602001600020549050919050565b6116716122ec565b61167b6000612401565b565b6116856122ec565b806013908051906020019061169b929190613069565b5050565b6116a76122ec565b8060098190555050565b60095481565b60125481565b6116c56122ec565b8060108190555050565b6000600660009054906101000a900473ffffffffffffffffffffffffffffffffffffffff16905090565b60606001805461170890614364565b80601f016020809104026020016040519081016040528092919081815260200182805461173490614364565b80156117815780601f1061175657610100808354040283529160200191611781565b820191906000526020600020905b81548152906001019060200180831161176457829003601f168201915b5050505050905090565b60006040518060400160405280600781526020017f50726553616c65000000000000000000000000000000000000000000000000008152508051906020012060136040516117d99190613bdf565b604051809103902014156117f15760095490506118d0565b6040518060400160405280600a81526020017f5075626c696353616c650000000000000000000000000000000000000000000081525080519060200120601360405161183d9190613bdf565b604051809103902014156118cb5760646012541161185f57600a5490506118d0565b606560125410158015611876575061019060125411155b1561189d5760646096600a5461188c9190614216565b61189691906141e5565b90506118d0565b610191601254106118ca57606460c8600a546118b99190614216565b6118c391906141e5565b90506118d0565b5b600090505b90565b6118e56118de611e43565b83836124c7565b5050565b600a5481565b6040518060400160405280600c81526020017f526573657276656453616c65000000000000000000000000000000000000000081525080519060200120601360405161193b9190613bdf565b604051809103902014611983576040517f08c379a000000000000000000000000000000000000000000000000000000000815260040161197a90613f7e565b60405180910390fd5b6119b6816010543360405160200161199b9190613b98565b604051602081830303815290604052805190602001206122d5565b6119f5576040517f08c379a00000000000000000000000000000000000000000000000000000000081526004016119ec90613d3e565b60405180910390fd5b6008546001601154611a07919061418f565b1115611a48576040517f08c379a0000000000000000000000000000000000000000000000000000000008152600401611a3f90613cbe565b60405180910390fd5b600e60003373ffffffffffffffffffffffffffffffffffffffff1673ffffffffffffffffffffffffffffffffffffffff16815260200190815260200160002060009054906101000a900460ff1615611ad5576040517f08c379a0000000000000000000000000000000000000000000000000000000008152600401611acc90613e7e565b60405180910390fd5b6001600e60003373ffffffffffffffffffffffffffffffffffffffff1673ffffffffffffffffffffffffffffffffffffffff16815260200190815260200160002060006101000a81548160ff021916908315150217905550611b376014612293565b6000611b4360146122a9565b9050611b4f33826122b7565b60116000815480929190611b62906143c7565b91905055505050565b600281565b611b786122ec565b80600a8190555050565b611b93611b8d611e43565b83611f04565b611bd2576040517f08c379a0000000000000000000000000000000000000000000000000000000008152600401611bc990613cde565b60405180910390fd5b611bde84848484612634565b50505050565b611bec6122ec565b80600f8190555050565b6060611c0182611df8565b6000611c0b612690565b90506000815111611c2b5760405180602001604052806000815250611c56565b80611c35846126b0565b604051602001611c46929190613bf6565b6040516020818303038152906040525b915050919050565b6000600560008473ffffffffffffffffffffffffffffffffffffffff1673ffffffffffffffffffffffffffffffffffffffff16815260200190815260200160002060008373ffffffffffffffffffffffffffffffffffffffff1673ffffffffffffffffffffffffffffffffffffffff16815260200190815260200160002060009054906101000a900460ff16905092915050565b600c6020528060005260406000206000915090505481565b611d126122ec565b600073ffffffffffffffffffffffffffffffffffffffff168173ffffffffffffffffffffffffffffffffffffffff161415611d82576040517f08c379a0000000000000000000000000000000000000000000000000000000008152600401611d7990613d7e565b60405180910390fd5b611d8b81612401565b50565b60007f01ffc9a7000000000000000000000000000000000000000000000000000000007bffffffffffffffffffffffffffffffffffffffffffffffffffffffff1916827bffffffffffffffffffffffffffffffffffffffffffffffffffffffff1916149050919050565b611e01816127d4565b611e40576040517f08c379a0000000000000000000000000000000000000000000000000000000008152600401611e3790613f9e565b60405180910390fd5b50565b600033905090565b816004600083815260200190815260200160002060006101000a81548173ffffffffffffffffffffffffffffffffffffffff021916908373ffffffffffffffffffffffffffffffffffffffff160217905550808273ffffffffffffffffffffffffffffffffffffffff16611ebe8361152a565b73ffffffffffffffffffffffffffffffffffffffff167f8c5be1e5ebec7d5bd14f71427d1e84f3dd0314c0f7b2291e5b200ac8c7c3b92560405160405180910390a45050565b600080611f108361152a565b90508073ffffffffffffffffffffffffffffffffffffffff168473ffffffffffffffffffffffffffffffffffffffff161480611f525750611f518185611c5e565b5b80611f9057508373ffffffffffffffffffffffffffffffffffffffff16611f7884610a4f565b73ffffffffffffffffffffffffffffffffffffffff16145b91505092915050565b8273ffffffffffffffffffffffffffffffffffffffff16611fb98261152a565b73ffffffffffffffffffffffffffffffffffffffff161461200f576040517f08c379a000000000000000000000000000000000000000000000000000000000815260040161200690613dbe565b60405180910390fd5b600073ffffffffffffffffffffffffffffffffffffffff168273ffffffffffffffffffffffffffffffffffffffff16141561207f576040517f08c379a000000000000000000000000000000000000000000000000000000000815260040161207690613e1e565b60405180910390fd5b61208c8383836001612815565b8273ffffffffffffffffffffffffffffffffffffffff166120ac8261152a565b73ffffffffffffffffffffffffffffffffffffffff1614612102576040517f08c379a00000000000000000000000000000000000000000000000000000000081526004016120f990613dbe565b60405180910390fd5b6004600082815260200190815260200160002060006101000a81549073ffffffffffffffffffffffffffffffffffffffff02191690556001600360008573ffffffffffffffffffffffffffffffffffffffff1673ffffffffffffffffffffffffffffffffffffffff168152602001908152602001600020600082825403925050819055506001600360008473ffffffffffffffffffffffffffffffffffffffff1673ffffffffffffffffffffffffffffffffffffffff16815260200190815260200160002060008282540192505081905550816002600083815260200190815260200160002060006101000a81548173ffffffffffffffffffffffffffffffffffffffff021916908373ffffffffffffffffffffffffffffffffffffffff160217905550808273ffffffffffffffffffffffffffffffffffffffff168473ffffffffffffffffffffffffffffffffffffffff167fddf252ad1be2c89b69c2b068fc378daa952ba7f163c4a11628f55a4df523b3ef60405160405180910390a461228e838383600161293b565b505050565b6001816000016000828254019250508190555050565b600081600001549050919050565b6122d1828260405180602001604052806000815250612941565b5050565b6000826122e2858461299c565b1490509392505050565b6122f4611e43565b73ffffffffffffffffffffffffffffffffffffffff166123126116cf565b73ffffffffffffffffffffffffffffffffffffffff1614612368576040517f08c379a000000000000000000000000000000000000000000000000000000000815260040161235f90613f1e565b60405180910390fd5b565b600260075414156123b0576040517f08c379a00000000000000000000000000000000000000000000000000000000081526004016123a79061401e565b60405180910390fd5b6002600781905550565b6001600781905550565b60006002600083815260200190815260200160002060009054906101000a900473ffffffffffffffffffffffffffffffffffffffff169050919050565b6000600660009054906101000a900473ffffffffffffffffffffffffffffffffffffffff16905081600660006101000a81548173ffffffffffffffffffffffffffffffffffffffff021916908373ffffffffffffffffffffffffffffffffffffffff1602179055508173ffffffffffffffffffffffffffffffffffffffff168173ffffffffffffffffffffffffffffffffffffffff167f8be0079c531659141344cd1fd0a4f28419497f9722a3daafe3b4186f6b6457e060405160405180910390a35050565b8173ffffffffffffffffffffffffffffffffffffffff168373ffffffffffffffffffffffffffffffffffffffff161415612536576040517f08c379a000000000000000000000000000000000000000000000000000000000815260040161252d90613e3e565b60405180910390fd5b80600560008573ffffffffffffffffffffffffffffffffffffffff1673ffffffffffffffffffffffffffffffffffffffff16815260200190815260200160002060008473ffffffffffffffffffffffffffffffffffffffff1673ffffffffffffffffffffffffffffffffffffffff16815260200190815260200160002060006101000a81548160ff0219169083151502179055508173ffffffffffffffffffffffffffffffffffffffff168373ffffffffffffffffffffffffffffffffffffffff167f17307eab39ab6107e8899845ad3d59bd9653f200f220920489ca2b5937696c31836040516126279190613c81565b60405180910390a3505050565b61263f848484611f99565b61264b84848484612a18565b61268a576040517f08c379a000000000000000000000000000000000000000000000000000000000815260040161268190613d5e565b60405180910390fd5b50505050565b6060604051806060016040528060368152602001614c6b60369139905090565b6060600060016126bf84612baf565b01905060008167ffffffffffffffff811115612704577f4e487b7100000000000000000000000000000000000000000000000000000000600052604160045260246000fd5b6040519080825280601f01601f1916602001820160405280156127365781602001600182028036833780820191505090505b509050600082602001820190505b6001156127c9578080600190039150507f3031323334353637383961626364656600000000000000000000000000000000600a86061a8153600a85816127b3577f4e487b7100000000000000000000000000000000000000000000000000000000600052601260045260246000fd5b04945060008514156127c4576127c9565b612744565b819350505050919050565b60008073ffffffffffffffffffffffffffffffffffffffff166127f6836123c4565b73ffffffffffffffffffffffffffffffffffffffff1614159050919050565b600181111561293557600073ffffffffffffffffffffffffffffffffffffffff168473ffffffffffffffffffffffffffffffffffffffff16146128a95780600360008673ffffffffffffffffffffffffffffffffffffffff1673ffffffffffffffffffffffffffffffffffffffff16815260200190815260200160002060008282546128a19190614270565b925050819055505b600073ffffffffffffffffffffffffffffffffffffffff168373ffffffffffffffffffffffffffffffffffffffff16146129345780600360008573ffffffffffffffffffffffffffffffffffffffff1673ffffffffffffffffffffffffffffffffffffffff168152602001908152602001600020600082825461292c919061418f565b925050819055505b5b50505050565b50505050565b61294b8383612de6565b6129586000848484612a18565b612997576040517f08c379a000000000000000000000000000000000000000000000000000000000815260040161298e90613d5e565b60405180910390fd5b505050565b60008082905060005b8451811015612a0d576129f8828683815181106129eb577f4e487b7100000000000000000000000000000000000000000000000000000000600052603260045260246000fd5b6020026020010151613004565b91508080612a05906143c7565b9150506129a5565b508091505092915050565b6000612a398473ffffffffffffffffffffffffffffffffffffffff1661302f565b15612ba2578373ffffffffffffffffffffffffffffffffffffffff1663150b7a02612a62611e43565b8786866040518563ffffffff1660e01b8152600401612a849493929190613c35565b602060405180830381600087803b158015612a9e57600080fd5b505af1925050508015612acf57506040513d601f19601f82011682018060405250810190612acc9190613591565b60015b612b52573d8060008114612aff576040519150601f19603f3d011682016040523d82523d6000602084013e612b04565b606091505b50600081511415612b4a576040517f08c379a0000000000000000000000000000000000000000000000000000000008152600401612b4190613d5e565b60405180910390fd5b805181602001fd5b63150b7a0260e01b7bffffffffffffffffffffffffffffffffffffffffffffffffffffffff1916817bffffffffffffffffffffffffffffffffffffffffffffffffffffffff191614915050612ba7565b600190505b949350505050565b600080600090507a184f03e93ff9f4daa797ed6e38ed64bf6a1f0100000000000000008310612c33577a184f03e93ff9f4daa797ed6e38ed64bf6a1f0100000000000000008381612c29577f4e487b7100000000000000000000000000000000000000000000000000000000600052601260045260246000fd5b0492506040810190505b6d04ee2d6d415b85acef81000000008310612c96576d04ee2d6d415b85acef81000000008381612c8c577f4e487b7100000000000000000000000000000000000000000000000000000000600052601260045260246000fd5b0492506020810190505b662386f26fc100008310612ceb57662386f26fc100008381612ce1577f4e487b7100000000000000000000000000000000000000000000000000000000600052601260045260246000fd5b0492506010810190505b6305f5e1008310612d3a576305f5e1008381612d30577f4e487b7100000000000000000000000000000000000000000000000000000000600052601260045260246000fd5b0492506008810190505b6127108310612d85576127108381612d7b577f4e487b7100000000000000000000000000000000000000000000000000000000600052601260045260246000fd5b0492506004810190505b60648310612dce5760648381612dc4577f4e487b7100000000000000000000000000000000000000000000000000000000600052601260045260246000fd5b0492506002810190505b600a8310612ddd576001810190505b80915050919050565b600073ffffffffffffffffffffffffffffffffffffffff168273ffffffffffffffffffffffffffffffffffffffff161415612e56576040517f08c379a0000000000000000000000000000000000000000000000000000000008152600401612e4d90613efe565b60405180910390fd5b612e5f816127d4565b15612e9f576040517f08c379a0000000000000000000000000000000000000000000000000000000008152600401612e9690613dde565b60405180910390fd5b612ead600083836001612815565b612eb6816127d4565b15612ef6576040517f08c379a0000000000000000000000000000000000000000000000000000000008152600401612eed90613dde565b60405180910390fd5b6001600360008473ffffffffffffffffffffffffffffffffffffffff1673ffffffffffffffffffffffffffffffffffffffff16815260200190815260200160002060008282540192505081905550816002600083815260200190815260200160002060006101000a81548173ffffffffffffffffffffffffffffffffffffffff021916908373ffffffffffffffffffffffffffffffffffffffff160217905550808273ffffffffffffffffffffffffffffffffffffffff16600073ffffffffffffffffffffffffffffffffffffffff167fddf252ad1be2c89b69c2b068fc378daa952ba7f163c4a11628f55a4df523b3ef60405160405180910390a461300060008383600161293b565b5050565b600081831061301c576130178284613052565b613027565b6130268383613052565b5b905092915050565b6000808273ffffffffffffffffffffffffffffffffffffffff163b119050919050565b600082600052816020526040600020905092915050565b82805461307590614364565b90600052602060002090601f01602090048101928261309757600085556130de565b82601f106130b057805160ff19168380011785556130de565b828001600101855582156130de579182015b828111156130dd5782518255916020019190600101906130c2565b5b5090506130eb91906130ef565b5090565b5b808211156131085760008160009055506001016130f0565b5090565b600061311f61311a8461409e565b614079565b9050808382526020820190508285602086028201111561313e57600080fd5b60005b8581101561316e57816131548882613248565b845260208401935060208301925050600181019050613141565b5050509392505050565b600061318b613186846140ca565b614079565b9050828152602081018484840111156131a357600080fd5b6131ae848285614322565b509392505050565b60006131c96131c4846140fb565b614079565b9050828152602081018484840111156131e157600080fd5b6131ec848285614322565b509392505050565b60008135905061320381614bf7565b92915050565b600082601f83011261321a57600080fd5b813561322a84826020860161310c565b91505092915050565b60008135905061324281614c0e565b92915050565b60008135905061325781614c25565b92915050565b60008135905061326c81614c3c565b92915050565b60008151905061328181614c3c565b92915050565b600082601f83011261329857600080fd5b81356132a8848260208601613178565b91505092915050565b600082601f8301126132c257600080fd5b81356132d28482602086016131b6565b91505092915050565b6000813590506132ea81614c53565b92915050565b60006020828403121561330257600080fd5b6000613310848285016131f4565b91505092915050565b6000806040838503121561332c57600080fd5b600061333a858286016131f4565b925050602061334b858286016131f4565b9150509250929050565b60008060006060848603121561336a57600080fd5b6000613378868287016131f4565b9350506020613389868287016131f4565b925050604061339a868287016132db565b9150509250925092565b600080600080608085870312156133ba57600080fd5b60006133c8878288016131f4565b94505060206133d9878288016131f4565b93505060406133ea878288016132db565b925050606085013567ffffffffffffffff81111561340757600080fd5b61341387828801613287565b91505092959194509250565b6000806040838503121561343257600080fd5b6000613440858286016131f4565b925050602061345185828601613233565b9150509250929050565b6000806040838503121561346e57600080fd5b600061347c858286016131f4565b925050602061348d858286016132db565b9150509250929050565b6000602082840312156134a957600080fd5b600082013567ffffffffffffffff8111156134c357600080fd5b6134cf84828501613209565b91505092915050565b6000806000606084860312156134ed57600080fd5b600084013567ffffffffffffffff81111561350757600080fd5b61351386828701613209565b9350506020613524868287016132db565b9250506040613535868287016132db565b9150509250925092565b60006020828403121561355157600080fd5b600061355f84828501613248565b91505092915050565b60006020828403121561357a57600080fd5b60006135888482850161325d565b91505092915050565b6000602082840312156135a357600080fd5b60006135b184828501613272565b91505092915050565b6000602082840312156135cc57600080fd5b600082013567ffffffffffffffff8111156135e657600080fd5b6135f2848285016132b1565b91505092915050565b60006020828403121561360d57600080fd5b600061361b848285016132db565b91505092915050565b61362d816142a4565b82525050565b61364461363f826142a4565b614410565b82525050565b613653816142b6565b82525050565b600061366482614141565b61366e8185614157565b935061367e818560208601614331565b613687816144fa565b840191505092915050565b6000815461369f81614364565b6136a98186614168565b945060018216600081146136c457600181146136d557613708565b60ff19831686528186019350613708565b6136de8561412c565b60005b83811015613700578154818901526001820191506020810190506136e1565b838801955050505b50505092915050565b600061371c8261414c565b6137268185614173565b9350613736818560208601614331565b61373f816144fa565b840191505092915050565b60006137558261414c565b61375f8185614184565b935061376f818560208601614331565b80840191505092915050565b6000613788602383614173565b915061379382614518565b604082019050919050565b60006137ab602d83614173565b91506137b682614567565b604082019050919050565b60006137ce602f83614173565b91506137d9826145b6565b604082019050919050565b60006137f1601d83614173565b91506137fc82614605565b602082019050919050565b6000613814602183614173565b915061381f8261462e565b604082019050919050565b6000613837603283614173565b91506138428261467d565b604082019050919050565b600061385a602683614173565b9150613865826146cc565b604082019050919050565b600061387d601683614173565b91506138888261471b565b602082019050919050565b60006138a0602583614173565b91506138ab82614744565b604082019050919050565b60006138c3601c83614173565b91506138ce82614793565b602082019050919050565b60006138e6601483614173565b91506138f1826147bc565b602082019050919050565b6000613909602483614173565b9150613914826147e5565b604082019050919050565b600061392c601983614173565b915061393782614834565b602082019050919050565b600061394f601583614173565b915061395a8261485d565b602082019050919050565b6000613972602283614173565b915061397d82614886565b604082019050919050565b6000613995602b83614173565b91506139a0826148d5565b604082019050919050565b60006139b8602183614173565b91506139c382614924565b604082019050919050565b60006139db602983614173565b91506139e682614973565b604082019050919050565b60006139fe602083614173565b9150613a09826149c2565b602082019050919050565b6000613a21602083614173565b9150613a2c826149eb565b602082019050919050565b6000613a44602683614173565b9150613a4f82614a14565b604082019050919050565b6000613a67601483614173565b9150613a7282614a63565b602082019050919050565b6000613a8a601c83614173565b9150613a9582614a8c565b602082019050919050565b6000613aad601883614173565b9150613ab882614ab5565b602082019050919050565b6000613ad0600e83614173565b9150613adb82614ade565b602082019050919050565b6000613af3602183614173565b9150613afe82614b07565b604082019050919050565b6000613b16603d83614173565b9150613b2182614b56565b604082019050919050565b6000613b39601f83614173565b9150613b4482614ba5565b602082019050919050565b6000613b5c601783614173565b9150613b6782614bce565b602082019050919050565b613b7b81614318565b82525050565b613b92613b8d82614318565b614434565b82525050565b6000613ba48284613633565b60148201915081905092915050565b6000613bbf8285613633565b601482019150613bcf8284613b81565b6020820191508190509392505050565b6000613beb8284613692565b915081905092915050565b6000613c02828561374a565b9150613c0e828461374a565b91508190509392505050565b6000602082019050613c2f6000830184613624565b92915050565b6000608082019050613c4a6000830187613624565b613c576020830186613624565b613c646040830185613b72565b8181036060830152613c768184613659565b905095945050505050565b6000602082019050613c96600083018461364a565b92915050565b60006020820190508181036000830152613cb68184613711565b905092915050565b60006020820190508181036000830152613cd78161377b565b9050919050565b60006020820190508181036000830152613cf78161379e565b9050919050565b60006020820190508181036000830152613d17816137c1565b9050919050565b60006020820190508181036000830152613d37816137e4565b9050919050565b60006020820190508181036000830152613d5781613807565b9050919050565b60006020820190508181036000830152613d778161382a565b9050919050565b60006020820190508181036000830152613d978161384d565b9050919050565b60006020820190508181036000830152613db781613870565b9050919050565b60006020820190508181036000830152613dd781613893565b9050919050565b60006020820190508181036000830152613df7816138b6565b9050919050565b60006020820190508181036000830152613e17816138d9565b9050919050565b60006020820190508181036000830152613e37816138fc565b9050919050565b60006020820190508181036000830152613e578161391f565b9050919050565b60006020820190508181036000830152613e7781613942565b9050919050565b60006020820190508181036000830152613e9781613965565b9050919050565b60006020820190508181036000830152613eb781613988565b9050919050565b60006020820190508181036000830152613ed7816139ab565b9050919050565b60006020820190508181036000830152613ef7816139ce565b9050919050565b60006020820190508181036000830152613f17816139f1565b9050919050565b60006020820190508181036000830152613f3781613a14565b9050919050565b60006020820190508181036000830152613f5781613a37565b9050919050565b60006020820190508181036000830152613f7781613a5a565b9050919050565b60006020820190508181036000830152613f9781613a7d565b9050919050565b60006020820190508181036000830152613fb781613aa0565b9050919050565b60006020820190508181036000830152613fd781613ac3565b9050919050565b60006020820190508181036000830152613ff781613ae6565b9050919050565b6000602082019050818103600083015261401781613b09565b9050919050565b6000602082019050818103600083015261403781613b2c565b9050919050565b6000602082019050818103600083015261405781613b4f565b9050919050565b60006020820190506140736000830184613b72565b92915050565b6000614083614094565b905061408f8282614396565b919050565b6000604051905090565b600067ffffffffffffffff8211156140b9576140b86144cb565b5b602082029050602081019050919050565b600067ffffffffffffffff8211156140e5576140e46144cb565b5b6140ee826144fa565b9050602081019050919050565b600067ffffffffffffffff821115614116576141156144cb565b5b61411f826144fa565b9050602081019050919050565b60008190508160005260206000209050919050565b600081519050919050565b600081519050919050565b600082825260208201905092915050565b600081905092915050565b600082825260208201905092915050565b600081905092915050565b600061419a82614318565b91506141a583614318565b9250827fffffffffffffffffffffffffffffffffffffffffffffffffffffffffffffffff038211156141da576141d961443e565b5b828201905092915050565b60006141f082614318565b91506141fb83614318565b92508261420b5761420a61446d565b5b828204905092915050565b600061422182614318565b915061422c83614318565b9250817fffffffffffffffffffffffffffffffffffffffffffffffffffffffffffffffff04831182151516156142655761426461443e565b5b828202905092915050565b600061427b82614318565b915061428683614318565b9250828210156142995761429861443e565b5b828203905092915050565b60006142af826142f8565b9050919050565b60008115159050919050565b6000819050919050565b60007fffffffff0000000000000000000000000000000000000000000000000000000082169050919050565b600073ffffffffffffffffffffffffffffffffffffffff82169050919050565b6000819050919050565b82818337600083830152505050565b60005b8381101561434f578082015181840152602081019050614334565b8381111561435e576000848401525b50505050565b6000600282049050600182168061437c57607f821691505b602082108114156143905761438f61449c565b5b50919050565b61439f826144fa565b810181811067ffffffffffffffff821117156143be576143bd6144cb565b5b80604052505050565b60006143d282614318565b91507fffffffffffffffffffffffffffffffffffffffffffffffffffffffffffffffff8214156144055761440461443e565b5b600182019050919050565b600061441b82614422565b9050919050565b600061442d8261450b565b9050919050565b6000819050919050565b7f4e487b7100000000000000000000000000000000000000000000000000000000600052601160045260246000fd5b7f4e487b7100000000000000000000000000000000000000000000000000000000600052601260045260246000fd5b7f4e487b7100000000000000000000000000000000000000000000000000000000600052602260045260246000fd5b7f4e487b7100000000000000000000000000000000000000000000000000000000600052604160045260246000fd5b6000601f19601f8301169050919050565b60008160601b9050919050565b7f4d696e74696e6720657863656564207468652073616c6520616c6c6f6361746960008201527f6f6e2e0000000000000000000000000000000000000000000000000000000000602082015250565b7f4552433732313a2063616c6c6572206973206e6f7420746f6b656e206f776e6560008201527f72206f7220617070726f76656400000000000000000000000000000000000000602082015250565b7f43726561746f722063616e206f6e6c79206d696e7420647572696e672050756260008201527f6c69632053616c6520706572696f640000000000000000000000000000000000602082015250565b7f596f7520617265206e6f74206f6e207468652077686974656c6973742e000000600082015250565b7f596f7520617265206e6f74206f6e20746865207265736572766564206c69737460008201527f2e00000000000000000000000000000000000000000000000000000000000000602082015250565b7f4552433732313a207472616e7366657220746f206e6f6e20455243373231526560008201527f63656976657220696d706c656d656e7465720000000000000000000000000000602082015250565b7f4f776e61626c653a206e6577206f776e657220697320746865207a65726f206160008201527f6464726573730000000000000000000000000000000000000000000000000000602082015250565b7f50726573616c6520706572696f64206973206f76657200000000000000000000600082015250565b7f4552433732313a207472616e736665722066726f6d20696e636f72726563742060008201527f6f776e6572000000000000000000000000000000000000000000000000000000602082015250565b7f4552433732313a20746f6b656e20616c7265616479206d696e74656400000000600082015250565b7f5365742074686520707269636520666972737421000000000000000000000000600082015250565b7f4552433732313a207472616e7366657220746f20746865207a65726f2061646460008201527f7265737300000000000000000000000000000000000000000000000000000000602082015250565b7f4552433732313a20617070726f766520746f2063616c6c657200000000000000600082015250565b7f4974656d206973206e6f7420617661696c61626c650000000000000000000000600082015250565b7f596f75206861766520636c61696d656420746865207265736572766564206d6960008201527f6e74000000000000000000000000000000000000000000000000000000000000602082015250565b7f4d696e74696e6720616d6f756e74206578636565647320616c6c6f77616e636560008201527f207065722077616c6c6574000000000000000000000000000000000000000000602082015250565b7f4974732063757272656e746c79206e6f74206f70656e20666f72207075626c6960008201527f6300000000000000000000000000000000000000000000000000000000000000602082015250565b7f4552433732313a2061646472657373207a65726f206973206e6f74206120766160008201527f6c6964206f776e65720000000000000000000000000000000000000000000000602082015250565b7f4552433732313a206d696e7420746f20746865207a65726f2061646472657373600082015250565b7f4f776e61626c653a2063616c6c6572206973206e6f7420746865206f776e6572600082015250565b7f4d696e74696e6720657863656564207468652070726573616c6520616c6c6f6360008201527f6174696f6e2e0000000000000000000000000000000000000000000000000000602082015250565b7f696e73756666696369656e742062616c616e6365000000000000000000000000600082015250565b7f52657365727665642073616c6520706572696f64206973206f76657200000000600082015250565b7f4552433732313a20696e76616c696420746f6b656e2049440000000000000000600082015250565b7f6e6f20657468657220666f756e64000000000000000000000000000000000000600082015250565b7f4552433732313a20617070726f76616c20746f2063757272656e74206f776e6560008201527f7200000000000000000000000000000000000000000000000000000000000000602082015250565b7f4552433732313a20617070726f76652063616c6c6572206973206e6f7420746f60008201527f6b656e206f776e6572206f7220617070726f76656420666f7220616c6c000000602082015250565b7f5265656e7472616e637947756172643a207265656e7472616e742063616c6c00600082015250565b7f4d617820616c6c6f77616e63652065786365656465642e000000000000000000600082015250565b614c00816142a4565b8114614c0b57600080fd5b50565b614c17816142b6565b8114614c2257600080fd5b50565b614c2e816142c2565b8114614c3957600080fd5b50565b614c45816142cc565b8114614c5057600080fd5b50565b614c5c81614318565b8114614c6757600080fd5b5056fe697066733a2f2f516d596d573933685044534232384333586a6575536575576458715179506139753666766867766b6250325074332fa26469706673582212200e3689ecd113100569b945c40a9ee001f5be5b0cc184a14e7e490135da093b4364736f6c63430008040033",
  "linkReferences": {},
  "deployedLinkReferences": {}
}