{
  "_format": "hh-sol-artifact-1",
  "contractName": "RoboPunksNFT",
  "sourceName": "contracts/RoboPunksNFT.sol",
  "abi": [
    {
      "inputs": [],
      "stateMutability": "nonpayable",
      "type": "constructor"
    },
    {
      "anonymous": false,
      "inputs": [
        {
          "indexed": true,
          "internalType": "address",
          "name": "owner",
          "type": "address"
        },
        {
          "indexed": true,
          "internalType": "address",
          "name": "approved",
          "type": "address"
        },
        {
          "indexed": true,
          "internalType": "uint256",
          "name": "tokenId",
          "type": "uint256"
        }
      ],
      "name": "Approval",
      "type": "event"
    },
    {
      "anonymous": false,
      "inputs": [
        {
          "indexed": true,
          "internalType": "address",
          "name": "owner",
          "type": "address"
        },
        {
          "indexed": true,
          "internalType": "address",
          "name": "operator",
          "type": "address"
        },
        {
          "indexed": false,
          "internalType": "bool",
          "name": "approved",
          "type": "bool"
        }
      ],
      "name": "ApprovalForAll",
      "type": "event"
    },
    {
      "anonymous": false,
      "inputs": [
        {
          "indexed": true,
          "internalType": "address",
          "name": "previousOwner",
          "type": "address"
        },
        {
          "indexed": true,
          "internalType": "address",
          "name": "newOwner",
          "type": "address"
        }
      ],
      "name": "OwnershipTransferred",
      "type": "event"
    },
    {
      "anonymous": false,
      "inputs": [
        {
          "indexed": false,
          "internalType": "address",
          "name": "account",
          "type": "address"
        }
      ],
      "name": "Paused",
      "type": "event"
    },
    {
      "anonymous": false,
      "inputs": [
        {
          "indexed": true,
          "internalType": "address",
          "name": "from",
          "type": "address"
        },
        {
          "indexed": true,
          "internalType": "address",
          "name": "to",
          "type": "address"
        },
        {
          "indexed": true,
          "internalType": "uint256",
          "name": "tokenId",
          "type": "uint256"
        }
      ],
      "name": "Transfer",
      "type": "event"
    },
    {
      "anonymous": false,
      "inputs": [
        {
          "indexed": false,
          "internalType": "address",
          "name": "account",
          "type": "address"
        }
      ],
      "name": "Unpaused",
      "type": "event"
    },
    {
      "inputs": [
        {
          "internalType": "address",
          "name": "",
          "type": "address"
        }
      ],
      "name": "allowList",
      "outputs": [
        {
          "internalType": "bool",
          "name": "",
          "type": "bool"
        }
      ],
      "stateMutability": "view",
      "type": "function"
    },
    {
      "inputs": [
        {
          "internalType": "address",
          "name": "to",
          "type": "address"
        },
        {
          "internalType": "uint256",
          "name": "tokenId",
          "type": "uint256"
        }
      ],
      "name": "approve",
      "outputs": [],
      "stateMutability": "nonpayable",
      "type": "function"
    },
    {
      "inputs": [
        {
          "internalType": "address",
          "name": "owner",
          "type": "address"
        }
      ],
      "name": "balanceOf",
      "outputs": [
        {
          "internalType": "uint256",
          "name": "",
          "type": "uint256"
        }
      ],
      "stateMutability": "view",
      "type": "function"
    },
    {
      "inputs": [
        {
          "internalType": "bool",
          "name": "_publicMintOpen",
          "type": "bool"
        },
        {
          "internalType": "bool",
          "name": "_whiteListMintOpen",
          "type": "bool"
        }
      ],
      "name": "editMintWindows",
      "outputs": [],
      "stateMutability": "nonpayable",
      "type": "function"
    },
    {
      "inputs": [
        {
          "internalType": "uint256",
          "name": "tokenId",
          "type": "uint256"
        }
      ],
      "name": "getApproved",
      "outputs": [
        {
          "internalType": "address",
          "name": "",
          "type": "address"
        }
      ],
      "stateMutability": "view",
      "type": "function"
    },
    {
      "inputs": [],
      "name": "getPrice",
      "outputs": [
        {
          "internalType": "uint256",
          "name": "",
          "type": "uint256"
        }
      ],
      "stateMutability": "view",
      "type": "function"
    },
    {
      "inputs": [
        {
          "internalType": "address",
          "name": "owner",
          "type": "address"
        },
        {
          "internalType": "address",
          "name": "operator",
          "type": "address"
        }
      ],
      "name": "isApprovedForAll",
      "outputs": [
        {
          "internalType": "bool",
          "name": "",
          "type": "bool"
        }
      ],
      "stateMutability": "view",
      "type": "function"
    },
    {
      "inputs": [],
      "name": "name",
      "outputs": [
        {
          "internalType": "string",
          "name": "",
          "type": "string"
        }
      ],
      "stateMutability": "view",
      "type": "function"
    },
    {
      "inputs": [],
      "name": "owner",
      "outputs": [
        {
          "internalType": "address",
          "name": "",
          "type": "address"
        }
      ],
      "stateMutability": "view",
      "type": "function"
    },
    {
      "inputs": [
        {
          "internalType": "uint256",
          "name": "tokenId",
          "type": "uint256"
        }
      ],
      "name": "ownerOf",
      "outputs": [
        {
          "internalType": "address",
          "name": "",
          "type": "address"
        }
      ],
      "stateMutability": "view",
      "type": "function"
    },
    {
      "inputs": [],
      "name": "pause",
      "outputs": [],
      "stateMutability": "nonpayable",
      "type": "function"
    },
    {
      "inputs": [],
      "name": "paused",
      "outputs": [
        {
          "internalType": "bool",
          "name": "",
          "type": "bool"
        }
      ],
      "stateMutability": "view",
      "type": "function"
    },
    {
      "inputs": [
        {
          "internalType": "uint256",
          "name": "_quantity",
          "type": "uint256"
        }
      ],
      "name": "publicMint",
      "outputs": [],
      "stateMutability": "payable",
      "type": "function"
    },
    {
      "inputs": [],
      "name": "publicMintOpen",
      "outputs": [
        {
          "internalType": "bool",
          "name": "",
          "type": "bool"
        }
      ],
      "stateMutability": "view",
      "type": "function"
    },
    {
      "inputs": [
        {
          "internalType": "uint256",
          "name": "_publicPrice",
          "type": "uint256"
        }
      ],
      "name": "publicPriceSetter",
      "outputs": [],
      "stateMutability": "nonpayable",
      "type": "function"
    },
    {
      "inputs": [],
      "name": "renounceOwnership",
      "outputs": [],
      "stateMutability": "nonpayable",
      "type": "function"
    },
    {
      "inputs": [
        {
          "internalType": "address",
          "name": "from",
          "type": "address"
        },
        {
          "internalType": "address",
          "name": "to",
          "type": "address"
        },
        {
          "internalType": "uint256",
          "name": "tokenId",
          "type": "uint256"
        }
      ],
      "name": "safeTransferFrom",
      "outputs": [],
      "stateMutability": "nonpayable",
      "type": "function"
    },
    {
      "inputs": [
        {
          "internalType": "address",
          "name": "from",
          "type": "address"
        },
        {
          "internalType": "address",
          "name": "to",
          "type": "address"
        },
        {
          "internalType": "uint256",
          "name": "tokenId",
          "type": "uint256"
        },
        {
          "internalType": "bytes",
          "name": "data",
          "type": "bytes"
        }
      ],
      "name": "safeTransferFrom",
      "outputs": [],
      "stateMutability": "nonpayable",
      "type": "function"
    },
    {
      "inputs": [
        {
          "internalType": "address[]",
          "name": "addresses",
          "type": "address[]"
        }
      ],
      "name": "setAllowList",
      "outputs": [],
      "stateMutability": "nonpayable",
      "type": "function"
    },
    {
      "inputs": [
        {
          "internalType": "address",
          "name": "operator",
          "type": "address"
        },
        {
          "internalType": "bool",
          "name": "approved",
          "type": "bool"
        }
      ],
      "name": "setApprovalForAll",
      "outputs": [],
      "stateMutability": "nonpayable",
      "type": "function"
    },
    {
      "inputs": [
        {
          "internalType": "bytes4",
          "name": "interfaceId",
          "type": "bytes4"
        }
      ],
      "name": "supportsInterface",
      "outputs": [
        {
          "internalType": "bool",
          "name": "",
          "type": "bool"
        }
      ],
      "stateMutability": "view",
      "type": "function"
    },
    {
      "inputs": [],
      "name": "symbol",
      "outputs": [
        {
          "internalType": "string",
          "name": "",
          "type": "string"
        }
      ],
      "stateMutability": "view",
      "type": "function"
    },
    {
      "inputs": [
        {
          "internalType": "uint256",
          "name": "index",
          "type": "uint256"
        }
      ],
      "name": "tokenByIndex",
      "outputs": [
        {
          "internalType": "uint256",
          "name": "",
          "type": "uint256"
        }
      ],
      "stateMutability": "view",
      "type": "function"
    },
    {
      "inputs": [
        {
          "internalType": "address",
          "name": "owner",
          "type": "address"
        },
        {
          "internalType": "uint256",
          "name": "index",
          "type": "uint256"
        }
      ],
      "name": "tokenOfOwnerByIndex",
      "outputs": [
        {
          "internalType": "uint256",
          "name": "",
          "type": "uint256"
        }
      ],
      "stateMutability": "view",
      "type": "function"
    },
    {
      "inputs": [
        {
          "internalType": "uint256",
          "name": "tokenId",
          "type": "uint256"
        }
      ],
      "name": "tokenURI",
      "outputs": [
        {
          "internalType": "string",
          "name": "",
          "type": "string"
        }
      ],
      "stateMutability": "view",
      "type": "function"
    },
    {
      "inputs": [],
      "name": "totalSupply",
      "outputs": [
        {
          "internalType": "uint256",
          "name": "",
          "type": "uint256"
        }
      ],
      "stateMutability": "view",
      "type": "function"
    },
    {
      "inputs": [
        {
          "internalType": "address",
          "name": "from",
          "type": "address"
        },
        {
          "internalType": "address",
          "name": "to",
          "type": "address"
        },
        {
          "internalType": "uint256",
          "name": "tokenId",
          "type": "uint256"
        }
      ],
      "name": "transferFrom",
      "outputs": [],
      "stateMutability": "nonpayable",
      "type": "function"
    },
    {
      "inputs": [
        {
          "internalType": "address",
          "name": "newOwner",
          "type": "address"
        }
      ],
      "name": "transferOwnership",
      "outputs": [],
      "stateMutability": "nonpayable",
      "type": "function"
    },
    {
      "inputs": [],
      "name": "unpause",
      "outputs": [],
      "stateMutability": "nonpayable",
      "type": "function"
    },
    {
      "inputs": [
        {
          "internalType": "uint256",
          "name": "_quantity",
          "type": "uint256"
        }
      ],
      "name": "whiteListMint",
      "outputs": [],
      "stateMutability": "payable",
      "type": "function"
    },
    {
      "inputs": [],
      "name": "whiteListMintOpen",
      "outputs": [
        {
          "internalType": "bool",
          "name": "",
          "type": "bool"
        }
      ],
      "stateMutability": "view",
      "type": "function"
    },
    {
      "inputs": [
        {
          "internalType": "uint256",
          "name": "_presalePrice",
          "type": "uint256"
        }
      ],
      "name": "whitelistPriceSetter",
      "outputs": [],
      "stateMutability": "nonpayable",
      "type": "function"
    },
    {
      "inputs": [
        {
          "internalType": "address",
          "name": "_address",
          "type": "address"
        }
      ],
      "name": "withdraw",
      "outputs": [],
      "stateMutability": "nonpayable",
      "type": "function"
    }
  ],
  "bytecode": "0x6080604052612710600b5566470de4df820000600c5566071afd498d0000600d556000600f60006101000a81548160ff0219169083151502179055506000600f60016101000a81548160ff0219169083151502179055503480156200006357600080fd5b506040518060400160405280600981526020017f46757a7a546f6b656e00000000000000000000000000000000000000000000008152506040518060400160405280600481526020017f46757a7a000000000000000000000000000000000000000000000000000000008152508160009080519060200190620000e892919062000213565b5080600190805190602001906200010192919062000213565b5050506000600a60006101000a81548160ff0219169083151502179055506200013f620001336200014560201b60201c565b6200014d60201b60201c565b62000328565b600033905090565b6000600a60019054906101000a900473ffffffffffffffffffffffffffffffffffffffff16905081600a60016101000a81548173ffffffffffffffffffffffffffffffffffffffff021916908373ffffffffffffffffffffffffffffffffffffffff1602179055508173ffffffffffffffffffffffffffffffffffffffff168173ffffffffffffffffffffffffffffffffffffffff167f8be0079c531659141344cd1fd0a4f28419497f9722a3daafe3b4186f6b6457e060405160405180910390a35050565b8280546200022190620002c3565b90600052602060002090601f01602090048101928262000245576000855562000291565b82601f106200026057805160ff191683800117855562000291565b8280016001018555821562000291579182015b828111156200029057825182559160200191906001019062000273565b5b509050620002a09190620002a4565b5090565b5b80821115620002bf576000816000905550600101620002a5565b5090565b60006002820490506001821680620002dc57607f821691505b60208210811415620002f357620002f2620002f9565b5b50919050565b7f4e487b7100000000000000000000000000000000000000000000000000000000600052602260045260246000fd5b6142ae80620003386000396000f3fe6080604052600436106101ee5760003560e01c80636352211e1161010d578063a22cb465116100a0578063c87b56dd1161006f578063c87b56dd146106b9578063e985e9c5146106f6578063eb61631f14610733578063ee31e2891461075c578063f2fde38b14610787576101ee565b8063a22cb46514610613578063b88d4fde1461063c578063bcc9ca5b14610665578063c4ea69f114610690576101ee565b80638456cb59116100dc5780638456cb591461057b5780638da5cb5b1461059257806395d89b41146105bd57806398d5fdca146105e8576101ee565b80636352211e146104c15780636447c35d146104fe57806370a0823114610527578063715018a614610564576101ee565b80632db115441161018557806342842e0e1161015457806342842e0e146104075780634f6ccce71461043057806351cff8d91461046d5780635c975abb14610496576101ee565b80632db115441461036e5780632f48de791461038a5780632f745c59146103b35780633f4ba83a146103f0576101ee565b8063095ea7b3116101c1578063095ea7b3146102b457806318160ddd146102dd57806323b872dd146103085780632848aeaf14610331576101ee565b806301ffc9a7146101f357806302e001ef1461023057806306fdde031461024c578063081812fc14610277575b600080fd5b3480156101ff57600080fd5b5061021a600480360381019061021591906130e5565b6107b0565b60405161022791906135e0565b60405180910390f35b61024a60048036038101906102459190613137565b6107c2565b005b34801561025857600080fd5b506102616108fd565b60405161026e91906135fb565b60405180910390f35b34801561028357600080fd5b5061029e60048036038101906102999190613137565b61098f565b6040516102ab9190613579565b60405180910390f35b3480156102c057600080fd5b506102db60048036038101906102d69190613028565b6109d5565b005b3480156102e957600080fd5b506102f2610aed565b6040516102ff91906138fd565b60405180910390f35b34801561031457600080fd5b5061032f600480360381019061032a9190612f22565b610afa565b005b34801561033d57600080fd5b5061035860048036038101906103539190612ebd565b610b5a565b60405161036591906135e0565b60405180910390f35b61038860048036038101906103839190613137565b610b7a565b005b34801561039657600080fd5b506103b160048036038101906103ac91906130a9565b610c29565b005b3480156103bf57600080fd5b506103da60048036038101906103d59190613028565b610c69565b6040516103e791906138fd565b60405180910390f35b3480156103fc57600080fd5b50610405610d0e565b005b34801561041357600080fd5b5061042e60048036038101906104299190612f22565b610d20565b005b34801561043c57600080fd5b5061045760048036038101906104529190613137565b610d40565b60405161046491906138fd565b60405180910390f35b34801561047957600080fd5b50610494600480360381019061048f9190612ebd565b610dd7565b005b3480156104a257600080fd5b506104ab610e2f565b6040516104b891906135e0565b60405180910390f35b3480156104cd57600080fd5b506104e860048036038101906104e39190613137565b610e46565b6040516104f59190613579565b60405180910390f35b34801561050a57600080fd5b5061052560048036038101906105209190613064565b610ecd565b005b34801561053357600080fd5b5061054e60048036038101906105499190612ebd565b610fa0565b60405161055b91906138fd565b60405180910390f35b34801561057057600080fd5b50610579611058565b005b34801561058757600080fd5b5061059061106c565b005b34801561059e57600080fd5b506105a761107e565b6040516105b49190613579565b60405180910390f35b3480156105c957600080fd5b506105d26110a8565b6040516105df91906135fb565b60405180910390f35b3480156105f457600080fd5b506105fd61113a565b60405161060a91906138fd565b60405180910390f35b34801561061f57600080fd5b5061063a60048036038101906106359190612fec565b611190565b005b34801561064857600080fd5b50610663600480360381019061065e9190612f71565b6111a6565b005b34801561067157600080fd5b5061067a611208565b60405161068791906135e0565b60405180910390f35b34801561069c57600080fd5b506106b760048036038101906106b29190613137565b61121b565b005b3480156106c557600080fd5b506106e060048036038101906106db9190613137565b61122d565b6040516106ed91906135fb565b60405180910390f35b34801561070257600080fd5b5061071d60048036038101906107189190612ee6565b611295565b60405161072a91906135e0565b60405180910390f35b34801561073f57600080fd5b5061075a60048036038101906107559190613137565b611329565b005b34801561076857600080fd5b5061077161133b565b60405161077e91906135e0565b60405180910390f35b34801561079357600080fd5b506107ae60048036038101906107a99190612ebd565b61134e565b005b60006107bb826113d2565b9050919050565b600f60019054906101000a900460ff16610811576040517f08c379a00000000000000000000000000000000000000000000000000000000081526004016108089061383d565b60405180910390fd5b601060003373ffffffffffffffffffffffffffffffffffffffff1673ffffffffffffffffffffffffffffffffffffffff16815260200190815260200160002060009054906101000a900460ff1661089d576040517f08c379a0000000000000000000000000000000000000000000000000000000008152600401610894906137fd565b60405180910390fd5b806108a661113a565b6108b09190613a07565b34146108f1576040517f08c379a00000000000000000000000000000000000000000000000000000000081526004016108e89061373d565b60405180910390fd5b6108fa8161144c565b50565b60606000805461090c90613b4b565b80601f016020809104026020016040519081016040528092919081815260200182805461093890613b4b565b80156109855780601f1061095a57610100808354040283529160200191610985565b820191906000526020600020905b81548152906001019060200180831161096857829003601f168201915b5050505050905090565b600061099a826114c9565b6004600083815260200190815260200160002060009054906101000a900473ffffffffffffffffffffffffffffffffffffffff169050919050565b60006109e082610e46565b90508073ffffffffffffffffffffffffffffffffffffffff168373ffffffffffffffffffffffffffffffffffffffff161415610a51576040517f08c379a0000000000000000000000000000000000000000000000000000000008152600401610a489061387d565b60405180910390fd5b8073ffffffffffffffffffffffffffffffffffffffff16610a70611514565b73ffffffffffffffffffffffffffffffffffffffff161480610a9f5750610a9e81610a99611514565b611295565b5b610ade576040517f08c379a0000000000000000000000000000000000000000000000000000000008152600401610ad59061389d565b60405180910390fd5b610ae8838361151c565b505050565b6000600880549050905090565b610b0b610b05611514565b826115d5565b610b4a576040517f08c379a0000000000000000000000000000000000000000000000000000000008152600401610b419061363d565b60405180910390fd5b610b5583838361166a565b505050565b60106020528060005260406000206000915054906101000a900460ff1681565b600f60009054906101000a900460ff16610bc9576040517f08c379a0000000000000000000000000000000000000000000000000000000008152600401610bc09061375d565b60405180910390fd5b80610bd261113a565b610bdc9190613a07565b3414610c1d576040517f08c379a0000000000000000000000000000000000000000000000000000000008152600401610c149061373d565b60405180910390fd5b610c268161144c565b50565b610c31611964565b81600f60006101000a81548160ff02191690831515021790555080600f60016101000a81548160ff0219169083151502179055505050565b6000610c7483610fa0565b8210610cb5576040517f08c379a0000000000000000000000000000000000000000000000000000000008152600401610cac9061365d565b60405180910390fd5b600660008473ffffffffffffffffffffffffffffffffffffffff1673ffffffffffffffffffffffffffffffffffffffff168152602001908152602001600020600083815260200190815260200160002054905092915050565b610d16611964565b610d1e6119e2565b565b610d3b838383604051806020016040528060008152506111a6565b505050565b6000610d4a610aed565b8210610d8b576040517f08c379a0000000000000000000000000000000000000000000000000000000008152600401610d82906138bd565b60405180910390fd5b60088281548110610dc5577f4e487b7100000000000000000000000000000000000000000000000000000000600052603260045260246000fd5b90600052602060002001549050919050565b610ddf611964565b60004790508173ffffffffffffffffffffffffffffffffffffffff166108fc829081150290604051600060405180830381858888f19350505050158015610e2a573d6000803e3d6000fd5b505050565b6000600a60009054906101000a900460ff16905090565b600080610e5283611a45565b9050600073ffffffffffffffffffffffffffffffffffffffff168173ffffffffffffffffffffffffffffffffffffffff161415610ec4576040517f08c379a0000000000000000000000000000000000000000000000000000000008152600401610ebb9061385d565b60405180910390fd5b80915050919050565b610ed5611964565b60005b82829050811015610f9b57600160106000858585818110610f22577f4e487b7100000000000000000000000000000000000000000000000000000000600052603260045260246000fd5b9050602002016020810190610f379190612ebd565b73ffffffffffffffffffffffffffffffffffffffff1673ffffffffffffffffffffffffffffffffffffffff16815260200190815260200160002060006101000a81548160ff0219169083151502179055508080610f9390613bae565b915050610ed8565b505050565b60008073ffffffffffffffffffffffffffffffffffffffff168273ffffffffffffffffffffffffffffffffffffffff161415611011576040517f08c379a00000000000000000000000000000000000000000000000000000000081526004016110089061379d565b60405180910390fd5b600360008373ffffffffffffffffffffffffffffffffffffffff1673ffffffffffffffffffffffffffffffffffffffff168152602001908152602001600020549050919050565b611060611964565b61106a6000611a82565b565b611074611964565b61107c611b48565b565b6000600a60019054906101000a900473ffffffffffffffffffffffffffffffffffffffff16905090565b6060600180546110b790613b4b565b80601f01602080910402602001604051908101604052809291908181526020018280546110e390613b4b565b80156111305780601f1061110557610100808354040283529160200191611130565b820191906000526020600020905b81548152906001019060200180831161111357829003601f168201915b5050505050905090565b600060011515600f60009054906101000a900460ff161515141561116257600c54905061118d565b60011515600f60019054906101000a900460ff161515141561118857600d54905061118d565b600090505b90565b6111a261119b611514565b8383611bab565b5050565b6111b76111b1611514565b836115d5565b6111f6576040517f08c379a00000000000000000000000000000000000000000000000000000000081526004016111ed9061363d565b60405180910390fd5b61120284848484611d18565b50505050565b600f60009054906101000a900460ff1681565b611223611964565b80600d8190555050565b6060611238826114c9565b6000611242611d74565b90506000815111611262576040518060200160405280600081525061128d565b8061126c84611d94565b60405160200161127d929190613555565b6040516020818303038152906040525b915050919050565b6000600560008473ffffffffffffffffffffffffffffffffffffffff1673ffffffffffffffffffffffffffffffffffffffff16815260200190815260200160002060008373ffffffffffffffffffffffffffffffffffffffff1673ffffffffffffffffffffffffffffffffffffffff16815260200190815260200160002060009054906101000a900460ff16905092915050565b611331611964565b80600c8190555050565b600f60019054906101000a900460ff1681565b611356611964565b600073ffffffffffffffffffffffffffffffffffffffff168173ffffffffffffffffffffffffffffffffffffffff1614156113c6576040517f08c379a00000000000000000000000000000000000000000000000000000000081526004016113bd9061369d565b60405180910390fd5b6113cf81611a82565b50565b60007f780e9d63000000000000000000000000000000000000000000000000000000007bffffffffffffffffffffffffffffffffffffffffffffffffffffffff1916827bffffffffffffffffffffffffffffffffffffffffffffffffffffffff19161480611445575061144482611eb8565b5b9050919050565b600b5481611458610aed565b6114629190613a07565b11156114a3576040517f08c379a000000000000000000000000000000000000000000000000000000000815260040161149a906137bd565b60405180910390fd5b60006114af6011611f9a565b90506114bb6011611fa8565b6114c53382611fbe565b5050565b6114d281611fdc565b611511576040517f08c379a00000000000000000000000000000000000000000000000000000000081526004016115089061385d565b60405180910390fd5b50565b600033905090565b816004600083815260200190815260200160002060006101000a81548173ffffffffffffffffffffffffffffffffffffffff021916908373ffffffffffffffffffffffffffffffffffffffff160217905550808273ffffffffffffffffffffffffffffffffffffffff1661158f83610e46565b73ffffffffffffffffffffffffffffffffffffffff167f8c5be1e5ebec7d5bd14f71427d1e84f3dd0314c0f7b2291e5b200ac8c7c3b92560405160405180910390a45050565b6000806115e183610e46565b90508073ffffffffffffffffffffffffffffffffffffffff168473ffffffffffffffffffffffffffffffffffffffff16148061162357506116228185611295565b5b8061166157508373ffffffffffffffffffffffffffffffffffffffff166116498461098f565b73ffffffffffffffffffffffffffffffffffffffff16145b91505092915050565b8273ffffffffffffffffffffffffffffffffffffffff1661168a82610e46565b73ffffffffffffffffffffffffffffffffffffffff16146116e0576040517f08c379a00000000000000000000000000000000000000000000000000000000081526004016116d7906136bd565b60405180910390fd5b600073ffffffffffffffffffffffffffffffffffffffff168273ffffffffffffffffffffffffffffffffffffffff161415611750576040517f08c379a0000000000000000000000000000000000000000000000000000000008152600401611747906136fd565b60405180910390fd5b61175d838383600161201d565b8273ffffffffffffffffffffffffffffffffffffffff1661177d82610e46565b73ffffffffffffffffffffffffffffffffffffffff16146117d3576040517f08c379a00000000000000000000000000000000000000000000000000000000081526004016117ca906136bd565b60405180910390fd5b6004600082815260200190815260200160002060006101000a81549073ffffffffffffffffffffffffffffffffffffffff02191690556001600360008573ffffffffffffffffffffffffffffffffffffffff1673ffffffffffffffffffffffffffffffffffffffff168152602001908152602001600020600082825403925050819055506001600360008473ffffffffffffffffffffffffffffffffffffffff1673ffffffffffffffffffffffffffffffffffffffff16815260200190815260200160002060008282540192505081905550816002600083815260200190815260200160002060006101000a81548173ffffffffffffffffffffffffffffffffffffffff021916908373ffffffffffffffffffffffffffffffffffffffff160217905550808273ffffffffffffffffffffffffffffffffffffffff168473ffffffffffffffffffffffffffffffffffffffff167fddf252ad1be2c89b69c2b068fc378daa952ba7f163c4a11628f55a4df523b3ef60405160405180910390a461195f8383836001612037565b505050565b61196c611514565b73ffffffffffffffffffffffffffffffffffffffff1661198a61107e565b73ffffffffffffffffffffffffffffffffffffffff16146119e0576040517f08c379a00000000000000000000000000000000000000000000000000000000081526004016119d79061381d565b60405180910390fd5b565b6119ea61203d565b6000600a60006101000a81548160ff0219169083151502179055507f5db9ee0a495bf2e6ff9c91a7834c1ba4fdd244a5e8aa4e537bd38aeae4b073aa611a2e611514565b604051611a3b9190613579565b60405180910390a1565b60006002600083815260200190815260200160002060009054906101000a900473ffffffffffffffffffffffffffffffffffffffff169050919050565b6000600a60019054906101000a900473ffffffffffffffffffffffffffffffffffffffff16905081600a60016101000a81548173ffffffffffffffffffffffffffffffffffffffff021916908373ffffffffffffffffffffffffffffffffffffffff1602179055508173ffffffffffffffffffffffffffffffffffffffff168173ffffffffffffffffffffffffffffffffffffffff167f8be0079c531659141344cd1fd0a4f28419497f9722a3daafe3b4186f6b6457e060405160405180910390a35050565b611b50612086565b6001600a60006101000a81548160ff0219169083151502179055507f62e78cea01bee320cd4e420270b5ea74000d11b0c9f74754ebdbfc544b05a258611b94611514565b604051611ba19190613579565b60405180910390a1565b8173ffffffffffffffffffffffffffffffffffffffff168373ffffffffffffffffffffffffffffffffffffffff161415611c1a576040517f08c379a0000000000000000000000000000000000000000000000000000000008152600401611c119061371d565b60405180910390fd5b80600560008573ffffffffffffffffffffffffffffffffffffffff1673ffffffffffffffffffffffffffffffffffffffff16815260200190815260200160002060008473ffffffffffffffffffffffffffffffffffffffff1673ffffffffffffffffffffffffffffffffffffffff16815260200190815260200160002060006101000a81548160ff0219169083151502179055508173ffffffffffffffffffffffffffffffffffffffff168373ffffffffffffffffffffffffffffffffffffffff167f17307eab39ab6107e8899845ad3d59bd9653f200f220920489ca2b5937696c3183604051611d0b91906135e0565b60405180910390a3505050565b611d2384848461166a565b611d2f848484846120d0565b611d6e576040517f08c379a0000000000000000000000000000000000000000000000000000000008152600401611d659061367d565b60405180910390fd5b50505050565b606060405180606001604052806036815260200161424360369139905090565b606060006001611da384612267565b01905060008167ffffffffffffffff811115611de8577f4e487b7100000000000000000000000000000000000000000000000000000000600052604160045260246000fd5b6040519080825280601f01601f191660200182016040528015611e1a5781602001600182028036833780820191505090505b509050600082602001820190505b600115611ead578080600190039150507f3031323334353637383961626364656600000000000000000000000000000000600a86061a8153600a8581611e97577f4e487b7100000000000000000000000000000000000000000000000000000000600052601260045260246000fd5b0494506000851415611ea857611ead565b611e28565b819350505050919050565b60007f80ac58cd000000000000000000000000000000000000000000000000000000007bffffffffffffffffffffffffffffffffffffffffffffffffffffffff1916827bffffffffffffffffffffffffffffffffffffffffffffffffffffffff19161480611f8357507f5b5e139f000000000000000000000000000000000000000000000000000000007bffffffffffffffffffffffffffffffffffffffffffffffffffffffff1916827bffffffffffffffffffffffffffffffffffffffffffffffffffffffff1916145b80611f935750611f928261249e565b5b9050919050565b600081600001549050919050565b6001816000016000828254019250508190555050565b611fd8828260405180602001604052806000815250612508565b5050565b60008073ffffffffffffffffffffffffffffffffffffffff16611ffe83611a45565b73ffffffffffffffffffffffffffffffffffffffff1614159050919050565b612025612086565b61203184848484612563565b50505050565b50505050565b612045610e2f565b612084576040517f08c379a000000000000000000000000000000000000000000000000000000000815260040161207b9061361d565b60405180910390fd5b565b61208e610e2f565b156120ce576040517f08c379a00000000000000000000000000000000000000000000000000000000081526004016120c59061377d565b60405180910390fd5b565b60006120f18473ffffffffffffffffffffffffffffffffffffffff166126c3565b1561225a578373ffffffffffffffffffffffffffffffffffffffff1663150b7a0261211a611514565b8786866040518563ffffffff1660e01b815260040161213c9493929190613594565b602060405180830381600087803b15801561215657600080fd5b505af192505050801561218757506040513d601f19601f82011682018060405250810190612184919061310e565b60015b61220a573d80600081146121b7576040519150601f19603f3d011682016040523d82523d6000602084013e6121bc565b606091505b50600081511415612202576040517f08c379a00000000000000000000000000000000000000000000000000000000081526004016121f99061367d565b60405180910390fd5b805181602001fd5b63150b7a0260e01b7bffffffffffffffffffffffffffffffffffffffffffffffffffffffff1916817bffffffffffffffffffffffffffffffffffffffffffffffffffffffff19161491505061225f565b600190505b949350505050565b600080600090507a184f03e93ff9f4daa797ed6e38ed64bf6a1f01000000000000000083106122eb577a184f03e93ff9f4daa797ed6e38ed64bf6a1f01000000000000000083816122e1577f4e487b7100000000000000000000000000000000000000000000000000000000600052601260045260246000fd5b0492506040810190505b6d04ee2d6d415b85acef8100000000831061234e576d04ee2d6d415b85acef81000000008381612344577f4e487b7100000000000000000000000000000000000000000000000000000000600052601260045260246000fd5b0492506020810190505b662386f26fc1000083106123a357662386f26fc100008381612399577f4e487b7100000000000000000000000000000000000000000000000000000000600052601260045260246000fd5b0492506010810190505b6305f5e10083106123f2576305f5e10083816123e8577f4e487b7100000000000000000000000000000000000000000000000000000000600052601260045260246000fd5b0492506008810190505b612710831061243d576127108381612433577f4e487b7100000000000000000000000000000000000000000000000000000000600052601260045260246000fd5b0492506004810190505b60648310612486576064838161247c577f4e487b7100000000000000000000000000000000000000000000000000000000600052601260045260246000fd5b0492506002810190505b600a8310612495576001810190505b80915050919050565b60007f01ffc9a7000000000000000000000000000000000000000000000000000000007bffffffffffffffffffffffffffffffffffffffffffffffffffffffff1916827bffffffffffffffffffffffffffffffffffffffffffffffffffffffff1916149050919050565b61251283836126e6565b61251f60008484846120d0565b61255e576040517f08c379a00000000000000000000000000000000000000000000000000000000081526004016125559061367d565b60405180910390fd5b505050565b61256f84848484612904565b60018111156125b3576040517f08c379a00000000000000000000000000000000000000000000000000000000081526004016125aa906138dd565b60405180910390fd5b6000829050600073ffffffffffffffffffffffffffffffffffffffff168573ffffffffffffffffffffffffffffffffffffffff1614156125fb576125f681612a2a565b61263a565b8373ffffffffffffffffffffffffffffffffffffffff168573ffffffffffffffffffffffffffffffffffffffff1614612639576126388582612a73565b5b5b600073ffffffffffffffffffffffffffffffffffffffff168473ffffffffffffffffffffffffffffffffffffffff16141561267d5761267881612be0565b6126bc565b8473ffffffffffffffffffffffffffffffffffffffff168473ffffffffffffffffffffffffffffffffffffffff16146126bb576126ba8482612d23565b5b5b5050505050565b6000808273ffffffffffffffffffffffffffffffffffffffff163b119050919050565b600073ffffffffffffffffffffffffffffffffffffffff168273ffffffffffffffffffffffffffffffffffffffff161415612756576040517f08c379a000000000000000000000000000000000000000000000000000000000815260040161274d906137dd565b60405180910390fd5b61275f81611fdc565b1561279f576040517f08c379a0000000000000000000000000000000000000000000000000000000008152600401612796906136dd565b60405180910390fd5b6127ad60008383600161201d565b6127b681611fdc565b156127f6576040517f08c379a00000000000000000000000000000000000000000000000000000000081526004016127ed906136dd565b60405180910390fd5b6001600360008473ffffffffffffffffffffffffffffffffffffffff1673ffffffffffffffffffffffffffffffffffffffff16815260200190815260200160002060008282540192505081905550816002600083815260200190815260200160002060006101000a81548173ffffffffffffffffffffffffffffffffffffffff021916908373ffffffffffffffffffffffffffffffffffffffff160217905550808273ffffffffffffffffffffffffffffffffffffffff16600073ffffffffffffffffffffffffffffffffffffffff167fddf252ad1be2c89b69c2b068fc378daa952ba7f163c4a11628f55a4df523b3ef60405160405180910390a4612900600083836001612037565b5050565b6001811115612a2457600073ffffffffffffffffffffffffffffffffffffffff168473ffffffffffffffffffffffffffffffffffffffff16146129985780600360008673ffffffffffffffffffffffffffffffffffffffff1673ffffffffffffffffffffffffffffffffffffffff16815260200190815260200160002060008282546129909190613a61565b925050819055505b600073ffffffffffffffffffffffffffffffffffffffff168373ffffffffffffffffffffffffffffffffffffffff1614612a235780600360008573ffffffffffffffffffffffffffffffffffffffff1673ffffffffffffffffffffffffffffffffffffffff1681526020019081526020016000206000828254612a1b91906139b1565b925050819055505b5b50505050565b6008805490506009600083815260200190815260200160002081905550600881908060018154018082558091505060019003906000526020600020016000909190919091505550565b60006001612a8084610fa0565b612a8a9190613a61565b9050600060076000848152602001908152602001600020549050818114612b6f576000600660008673ffffffffffffffffffffffffffffffffffffffff1673ffffffffffffffffffffffffffffffffffffffff168152602001908152602001600020600084815260200190815260200160002054905080600660008773ffffffffffffffffffffffffffffffffffffffff1673ffffffffffffffffffffffffffffffffffffffff168152602001908152602001600020600084815260200190815260200160002081905550816007600083815260200190815260200160002081905550505b6007600084815260200190815260200160002060009055600660008573ffffffffffffffffffffffffffffffffffffffff1673ffffffffffffffffffffffffffffffffffffffff16815260200190815260200160002060008381526020019081526020016000206000905550505050565b60006001600880549050612bf49190613a61565b9050600060096000848152602001908152602001600020549050600060088381548110612c4a577f4e487b7100000000000000000000000000000000000000000000000000000000600052603260045260246000fd5b906000526020600020015490508060088381548110612c92577f4e487b7100000000000000000000000000000000000000000000000000000000600052603260045260246000fd5b906000526020600020018190555081600960008381526020019081526020016000208190555060096000858152602001908152602001600020600090556008805480612d07577f4e487b7100000000000000000000000000000000000000000000000000000000600052603160045260246000fd5b6001900381819060005260206000200160009055905550505050565b6000612d2e83610fa0565b905081600660008573ffffffffffffffffffffffffffffffffffffffff1673ffffffffffffffffffffffffffffffffffffffff168152602001908152602001600020600083815260200190815260200160002081905550806007600084815260200190815260200160002081905550505050565b6000612db5612db08461393d565b613918565b905082815260208101848484011115612dcd57600080fd5b612dd8848285613b09565b509392505050565b600081359050612def816141e6565b92915050565b60008083601f840112612e0757600080fd5b8235905067ffffffffffffffff811115612e2057600080fd5b602083019150836020820283011115612e3857600080fd5b9250929050565b600081359050612e4e816141fd565b92915050565b600081359050612e6381614214565b92915050565b600081519050612e7881614214565b92915050565b600082601f830112612e8f57600080fd5b8135612e9f848260208601612da2565b91505092915050565b600081359050612eb78161422b565b92915050565b600060208284031215612ecf57600080fd5b6000612edd84828501612de0565b91505092915050565b60008060408385031215612ef957600080fd5b6000612f0785828601612de0565b9250506020612f1885828601612de0565b9150509250929050565b600080600060608486031215612f3757600080fd5b6000612f4586828701612de0565b9350506020612f5686828701612de0565b9250506040612f6786828701612ea8565b9150509250925092565b60008060008060808587031215612f8757600080fd5b6000612f9587828801612de0565b9450506020612fa687828801612de0565b9350506040612fb787828801612ea8565b925050606085013567ffffffffffffffff811115612fd457600080fd5b612fe087828801612e7e565b91505092959194509250565b60008060408385031215612fff57600080fd5b600061300d85828601612de0565b925050602061301e85828601612e3f565b9150509250929050565b6000806040838503121561303b57600080fd5b600061304985828601612de0565b925050602061305a85828601612ea8565b9150509250929050565b6000806020838503121561307757600080fd5b600083013567ffffffffffffffff81111561309157600080fd5b61309d85828601612df5565b92509250509250929050565b600080604083850312156130bc57600080fd5b60006130ca85828601612e3f565b92505060206130db85828601612e3f565b9150509250929050565b6000602082840312156130f757600080fd5b600061310584828501612e54565b91505092915050565b60006020828403121561312057600080fd5b600061312e84828501612e69565b91505092915050565b60006020828403121561314957600080fd5b600061315784828501612ea8565b91505092915050565b61316981613a95565b82525050565b61317881613aa7565b82525050565b60006131898261396e565b6131938185613984565b93506131a3818560208601613b18565b6131ac81613c84565b840191505092915050565b60006131c282613979565b6131cc8185613995565b93506131dc818560208601613b18565b6131e581613c84565b840191505092915050565b60006131fb82613979565b61320581856139a6565b9350613215818560208601613b18565b80840191505092915050565b600061322e601483613995565b915061323982613c95565b602082019050919050565b6000613251602d83613995565b915061325c82613cbe565b604082019050919050565b6000613274602b83613995565b915061327f82613d0d565b604082019050919050565b6000613297603283613995565b91506132a282613d5c565b604082019050919050565b60006132ba602683613995565b91506132c582613dab565b604082019050919050565b60006132dd602583613995565b91506132e882613dfa565b604082019050919050565b6000613300601c83613995565b915061330b82613e49565b602082019050919050565b6000613323602483613995565b915061332e82613e72565b604082019050919050565b6000613346601983613995565b915061335182613ec1565b602082019050919050565b6000613369601083613995565b915061337482613eea565b602082019050919050565b600061338c601283613995565b915061339782613f13565b602082019050919050565b60006133af601083613995565b91506133ba82613f3c565b602082019050919050565b60006133d2602983613995565b91506133dd82613f65565b604082019050919050565b60006133f5600c83613995565b915061340082613fb4565b602082019050919050565b6000613418602083613995565b915061342382613fdd565b602082019050919050565b600061343b601d83613995565b915061344682614006565b602082019050919050565b600061345e602083613995565b91506134698261402f565b602082019050919050565b6000613481601583613995565b915061348c82614058565b602082019050919050565b60006134a4601883613995565b91506134af82614081565b602082019050919050565b60006134c7602183613995565b91506134d2826140aa565b604082019050919050565b60006134ea603d83613995565b91506134f5826140f9565b604082019050919050565b600061350d602c83613995565b915061351882614148565b604082019050919050565b6000613530603583613995565b915061353b82614197565b604082019050919050565b61354f81613aff565b82525050565b600061356182856131f0565b915061356d82846131f0565b91508190509392505050565b600060208201905061358e6000830184613160565b92915050565b60006080820190506135a96000830187613160565b6135b66020830186613160565b6135c36040830185613546565b81810360608301526135d5818461317e565b905095945050505050565b60006020820190506135f5600083018461316f565b92915050565b6000602082019050818103600083015261361581846131b7565b905092915050565b6000602082019050818103600083015261363681613221565b9050919050565b6000602082019050818103600083015261365681613244565b9050919050565b6000602082019050818103600083015261367681613267565b9050919050565b600060208201905081810360008301526136968161328a565b9050919050565b600060208201905081810360008301526136b6816132ad565b9050919050565b600060208201905081810360008301526136d6816132d0565b9050919050565b600060208201905081810360008301526136f6816132f3565b9050919050565b6000602082019050818103600083015261371681613316565b9050919050565b6000602082019050818103600083015261373681613339565b9050919050565b600060208201905081810360008301526137568161335c565b9050919050565b600060208201905081810360008301526137768161337f565b9050919050565b60006020820190508181036000830152613796816133a2565b9050919050565b600060208201905081810360008301526137b6816133c5565b9050919050565b600060208201905081810360008301526137d6816133e8565b9050919050565b600060208201905081810360008301526137f68161340b565b9050919050565b600060208201905081810360008301526138168161342e565b9050919050565b6000602082019050818103600083015261383681613451565b9050919050565b6000602082019050818103600083015261385681613474565b9050919050565b6000602082019050818103600083015261387681613497565b9050919050565b60006020820190508181036000830152613896816134ba565b9050919050565b600060208201905081810360008301526138b6816134dd565b9050919050565b600060208201905081810360008301526138d681613500565b9050919050565b600060208201905081810360008301526138f681613523565b9050919050565b60006020820190506139126000830184613546565b92915050565b6000613922613933565b905061392e8282613b7d565b919050565b6000604051905090565b600067ffffffffffffffff82111561395857613957613c55565b5b61396182613c84565b9050602081019050919050565b600081519050919050565b600081519050919050565b600082825260208201905092915050565b600082825260208201905092915050565b600081905092915050565b60006139bc82613aff565b91506139c783613aff565b9250827fffffffffffffffffffffffffffffffffffffffffffffffffffffffffffffffff038211156139fc576139fb613bf7565b5b828201905092915050565b6000613a1282613aff565b9150613a1d83613aff565b9250817fffffffffffffffffffffffffffffffffffffffffffffffffffffffffffffffff0483118215151615613a5657613a55613bf7565b5b828202905092915050565b6000613a6c82613aff565b9150613a7783613aff565b925082821015613a8a57613a89613bf7565b5b828203905092915050565b6000613aa082613adf565b9050919050565b60008115159050919050565b60007fffffffff0000000000000000000000000000000000000000000000000000000082169050919050565b600073ffffffffffffffffffffffffffffffffffffffff82169050919050565b6000819050919050565b82818337600083830152505050565b60005b83811015613b36578082015181840152602081019050613b1b565b83811115613b45576000848401525b50505050565b60006002820490506001821680613b6357607f821691505b60208210811415613b7757613b76613c26565b5b50919050565b613b8682613c84565b810181811067ffffffffffffffff82111715613ba557613ba4613c55565b5b80604052505050565b6000613bb982613aff565b91507fffffffffffffffffffffffffffffffffffffffffffffffffffffffffffffffff821415613bec57613beb613bf7565b5b600182019050919050565b7f4e487b7100000000000000000000000000000000000000000000000000000000600052601160045260246000fd5b7f4e487b7100000000000000000000000000000000000000000000000000000000600052602260045260246000fd5b7f4e487b7100000000000000000000000000000000000000000000000000000000600052604160045260246000fd5b6000601f19601f8301169050919050565b7f5061757361626c653a206e6f7420706175736564000000000000000000000000600082015250565b7f4552433732313a2063616c6c6572206973206e6f7420746f6b656e206f776e6560008201527f72206f7220617070726f76656400000000000000000000000000000000000000602082015250565b7f455243373231456e756d657261626c653a206f776e657220696e646578206f7560008201527f74206f6620626f756e6473000000000000000000000000000000000000000000602082015250565b7f4552433732313a207472616e7366657220746f206e6f6e20455243373231526560008201527f63656976657220696d706c656d656e7465720000000000000000000000000000602082015250565b7f4f776e61626c653a206e6577206f776e657220697320746865207a65726f206160008201527f6464726573730000000000000000000000000000000000000000000000000000602082015250565b7f4552433732313a207472616e736665722066726f6d20696e636f72726563742060008201527f6f776e6572000000000000000000000000000000000000000000000000000000602082015250565b7f4552433732313a20746f6b656e20616c7265616479206d696e74656400000000600082015250565b7f4552433732313a207472616e7366657220746f20746865207a65726f2061646460008201527f7265737300000000000000000000000000000000000000000000000000000000602082015250565b7f4552433732313a20617070726f766520746f2063616c6c657200000000000000600082015250565b7f4e6f7420456e6f7567682046756e647300000000000000000000000000000000600082015250565b7f5075626c6963204d696e7420436c6f7365640000000000000000000000000000600082015250565b7f5061757361626c653a2070617573656400000000000000000000000000000000600082015250565b7f4552433732313a2061646472657373207a65726f206973206e6f74206120766160008201527f6c6964206f776e65720000000000000000000000000000000000000000000000602082015250565b7f576520536f6c64204f7574210000000000000000000000000000000000000000600082015250565b7f4552433732313a206d696e7420746f20746865207a65726f2061646472657373600082015250565b7f596f7520617265206e6f74206f6e2074686520616c6c6f77206c697374000000600082015250565b7f4f776e61626c653a2063616c6c6572206973206e6f7420746865206f776e6572600082015250565b7f416c6c6f776c697374204d696e7420436c6f7365640000000000000000000000600082015250565b7f4552433732313a20696e76616c696420746f6b656e2049440000000000000000600082015250565b7f4552433732313a20617070726f76616c20746f2063757272656e74206f776e6560008201527f7200000000000000000000000000000000000000000000000000000000000000602082015250565b7f4552433732313a20617070726f76652063616c6c6572206973206e6f7420746f60008201527f6b656e206f776e6572206f7220617070726f76656420666f7220616c6c000000602082015250565b7f455243373231456e756d657261626c653a20676c6f62616c20696e646578206f60008201527f7574206f6620626f756e64730000000000000000000000000000000000000000602082015250565b7f455243373231456e756d657261626c653a20636f6e736563757469766520747260008201527f616e7366657273206e6f7420737570706f727465640000000000000000000000602082015250565b6141ef81613a95565b81146141fa57600080fd5b50565b61420681613aa7565b811461421157600080fd5b50565b61421d81613ab3565b811461422857600080fd5b50565b61423481613aff565b811461423f57600080fd5b5056fe697066733a2f2f516d61613654755032733970534b637a48463472775768544b556479677272447338526d595971436a50334879652fa2646970667358221220e94025617c353c71a3554678d2b524566bffbd501e539c37c5c69507ebb4319964736f6c63430008040033",
  "linkReferences": {},
  "deployedLinkReferences": {}
}